:040000006F30E06A13
:1000040000000000000000006F30006A6F30C0691B
:1000140011BFF9F70000000000000000000000001C
:1000240000000000000000000000000000000000CC
:100034006F308067000000006F3000670000000030
:100044006F3080666F00105F6F3000666F30C06580
:100054006F0090596F00906B6F3000656F20D03641
:100064006F3080646F1040776F20E04D6F30C06355
:100074006F3080636F3040636F3000636F20505384
:100084006F3080626F3040626F3000626F30C061E9
:100094006F308061000000000000000000000000DC
:1000A400000000000000000000000000000000004C
:0C00B40000000000000000000000000040
:1000C000B7870040194798D38280B787004013074D
:1000D000001498C34947D8C337574C00130717B4C7
:1000E000944B918ABDE623AE070623AC070623A6F0
:1000F000070823A4070823AE070823AC070823A694
:10010000070A23A4070A23AE070A23AC070A23A67B
:10011000070C23A4070C23AE070C23AC070C23A663
:10012000070E23A4070E4D47D8D337070300130744
:10013000170298D323A807069843014513672700A1
:1001400098C337C710001307D7C798C70947D8C344
:1001500082807D1751F70545828013051002828049
:1001600093178501E1879376750063DF0700B70772
:100170000001B397D70099C937860040345AD58F0C
:100180003CDA238DA1888280C167E5B7B78600403D
:10019000B05A93C7F7FFF18FBCDA238D01888280B4
:1001A000B787004088DF828001CD378700401C532D
:1001B00037060800D18F1CD38547A38CF188828035
:1001C000378600401C523707F8FF7D17F98F1CD285
:1001D000A38C01888280B787004093878707120528
:1001E0003E951C4113D707012310F6007D8BF18348
:1001F0002380E5009D8B2380F6008280B787004036
:100200009387870712053E951C414206EA054D8EED
:100210005D8E10C18280B7870040938787071205E3
:100220003E951C413707E003F98F1CC18280B787D8
:1002300000409387870712053E951C4186078583FA
:100240001CC18280B78700409387870712053E95BF
:1002500008416181137505088280378800401308C2
:10026000C80712054295D6073708E003B3F7070120
:10027000F205CD8F6A06D18FC206D58F1377F77F2F
:10028000D98F1CC18280B78700409387C7071205AA
:100290003E956A06F2051C414D8EC206558E1377B7
:1002A000F77F598E5D8E10C18280B787004093879B
:1002B000C70712053E951C41860785831CC18280B5
:1002C000B78700409387C70712053E951C41370743
:1002D000E003F98F1CC18280B78700409387C7076E
:1002E00012053E950841618113750508828083C718
:1002F000A189A98F9D8B99E7B787004088572181F5
:100300007D898280B787004012059387C7073E9595
:1003100008414181F5B703C705009377F5006205F1
:10032000B706E00356076185758F9207B7860040D0
:10033000635705009386C607B69798C38280938655
:100340008607DDBF9377F50062058A079A05618508
:10035000DD8D6358050093E53500B7870040ECC399
:10036000828093E51500D5BF378700401C53620596
:10037000A207A1831CD31C535D8D08D382803787CD
:1003800000405C43F19B5D8D48C31C4B918BF5FF96
:100390008280B7870040885361818280B7470320FD
:1003A00003C7070493760706C1E29387070483C651
:1003B00017000D466389C60213061003638CC6043A
:1003C00005466393C6067D8B8946631FD7040111DA
:1003D00006CE03C547009305F100A3070100253FA2
:1003E000F2400561828083C72700130700036399E9
:1003F000E700378700401C43C166D58F1CC382804D
:10040000130710036392E702378700401C43B706C7
:100410000200E5B703C7370083C727002207BA9752
:10042000378700401CDF82808280378700405C5322
:10043000411122C406C613F4F70FA18B89CBA14743
:100440005CD383C7918981C7085BEF0030729377D3
:10045000140063890712378400405C505450A18314
:10046000B1829D8B858A63920710B1CEEF00100890
:1004700083C68189850693F6F60F238CD18883C6BF
:100480008189FD8A238CD18819E9238C0188B707DB
:1004900001043CDC232E040693071004B1A0232C96
:1004A00004067C5CB70620EC03C78189938606C0EE
:1004B000F58FC98F5607D98F37050114C98F7CDC9A
:1004C0009307300415A03C5C13971700635307048F
:1004D000232C0406E1357929C167FD17631FF50058
:1004E000B70700187CDC8D477CC0B7870040054704
:1004F000D8D3B240224441018280B707010439C9F0
:1005000093070020E3E3A7FEB70701145D8D68DCC5
:1005100045BF3C5C1397270063590700EF00D00BE1
:10052000232E0406232C0406C9B7EF00D00203C70C
:10053000718905071377F70FA38BE18803C77189CA
:100540007D8BA38BE18809C983C7718937070104B3
:10055000D607D98F3CDC89B73707010438DC13078D
:10056000100478C0A38B018849B7FD173707002016
:100570001307C7038A07BA9781C69C438297B5B70A
:10058000DC4FEDBF098835D4B7870040B84F9306DC
:10059000000A1377071E6319D7001307002CB8C78A
:1005A00023A6070423A80704B7870040094789B793
:1005B0002A8309CA83830500230073007D1605037F
:1005C00085056DFA82802A8311C62300B3007D164B
:1005D000050365FE828099C5B7170040F857598D0D
:1005E000E8D78280371700403C57C98F3CD78280BC
:1005F000B7E7F50593870710B3D7A7023737004051
:1006000085462307D740A9469507B3D7D702C20727
:10061000C1832316F740930770FC2301F7408D47F1
:10062000A301F74093070004A300F740B717004069
:10063000F84F13670718F8CFB84313670710B8C30C
:100640008280411122C437B4C4041305044006C695
:1006500026C24AC0EF20F03013050440EF20B06DF1
:1006600071641305042069371565930500051305AA
:1006700005ACEF30400DEF20302895453705C0011F
:10068000EF20505AB7170040B857B706400013057F
:100690000420558FB8D7B857B7068000558FB8D704
:1006A000B857B7060001558FB8D7EF204046EF2066
:1006B000A04E83C791873755FE031305056C93F74A
:1006C000E70FA38CF186B797004023A007003707F8
:1006D0001000B7E700E023A0E7103707200023A0B1
:1006E000E7103707020023A0E710B72700400547AF
:1006F0002381E700EF20507005453522156513056D
:1007000085AEEF30C0180945EF207021EF10305D45
:10071000EF20C04EEF201021EF20500283C5318919
:10072000370540004D3D83C521893705800065357B
:1007300083C5018437050001F11593B51500613DAE
:10074000F1B7B7E700E04147B443B8C305473317F3
:10075000A7001386071818C2B4C38280411106C6C9
:10076000AD321D67B787004013079775B8DB374771
:10077000032013070704F8DB3707022093870708D5
:1007800013070700B7A6022098C393860604D4CBAC
:10079000B706022093860604D4D3B7560320938667
:1007A00006E494DBB7560320938606A4D4DBB8C3D3
:1007B0003757032013070764B8CB375703201307B5
:1007C0000724F8CB054685450D450D3C0147854678
:1007D000014685450945453C01478146014681451D
:1007E0000545553401478546014685451145613C1F
:1007F000054685451145193405472380E188814622
:100800000147014681451545BD3C014785460146E6
:10081000854519458D3C054685451945C532B2408B
:1008200041016F20807011C115BF4111094506C6F5
:10083000B936B78700401307800298C34D47D8C325
:10084000B24023A40700194798D34101828037455D
:1008500003201307050403566700411106C623AEA3
:10086000C1828347170083460700A38CF18293F669
:1008700006061308000413060504639D0605930687
:100880000005638CD700130710056387E702FD5747
:100890004165A38CF1827D1529A883472700054572
:1008A00091C7054709456383E7000D45EF203007F1
:1008B0000145B2404101828083C7318903C7218944
:1008C000B337F0003337E0000607D98F2300F60076
:1008D0000545C5B7930620026386D70863EBF60289
:1008E000930600026381D70693061002E391D7FABC
:1008F00083474700054793F7D70FE39AE7F8B70513
:1009000000201D469385C50D1305050455311D4571
:100910004DB79306E00F6384D7029306F00FE39878
:10092000D7F683474700A5F723870186A38601866C
:1009300023860186238C018623A4018695BF8347E5
:100940004600C9D7A9B783474700054793F6D70F95
:10095000E39FE6F2054685450145238CF182EFF0E1
:10096000FF89B9B783474700054793F7D70FE3904F
:10097000E7F23DBF01113745032026CA930605045F
:1009800006CE22CC4AC84EC652C403C7160083D72F
:10099000660003C60600A38CE18223AEF1821376C3
:1009A000060609CA6244F240D2444249B249224A88
:1009B000056171BD2D466369E60015660A071306D9
:1009C00086AF32971843028793070003631CF70032
:1009D0000149F2406244D244B249224A4A8542491E
:1009E00005618280930710036308F710FD57416982
:1009F000A38CF1827D19F1BF03C736000D46630257
:100A0000C7086362E6028546630BD7028946E31F87
:100A1000D7FC1307400D6374F70023AEE182156421
:100A2000130404BE2DA0BD46E312D7FC59476374DE
:100A3000F70023AEE1821564130484B809A849477E
:100A40006374F70023AEE1821564130444CB03AA58
:100A5000C18393070020D28963F4470193090020E2
:100A6000A2854E8613050504A13613990901330AA0
:100A70003A414E941359090123AE418323AA81823E
:100A800089BF83C6260009466384C604636BD6000B
:100A900085EA11476374F70023AEE18213848181F4
:100AA0007DB76381E6041307E00EE391E6F449475E
:100AB0006374F70023AEE1821564130404BA41BFE6
:100AC00021476374F70023AEE1821384018141B7AB
:100AD0001307A0026374F70023AEE18215641304C8
:100AE00044BBB5B759476374F70023AEE1823704BE
:100AF000002013040400A1BF83C7260023AEF182A7
:100B0000C1BD054685450D45EFF04FEF01478546D0
:100B1000014685450945EFF00FF70147814601463B
:100B200081450545EFF02FF601478546014685458D
:100B30001145EFF04FF5B7570320938707A437848B
:100B40000040232AF40A054685451145EFF00FEBD6
:100B5000EF20E02305472380E188814601470146D5
:100B600081451545EFF02FF2014785460146854541
:100B70001945EFF04FF1B757032093870724232A35
:100B8000F40C054685451945EFF04FE7EF20E039B5
:100B900081B585472310F50423AE0182094915BDAF
:100BA00083C7460013076008636FF7001307000848
:100BB000636EF70011476386E70A19476385E710FC
:100BC0000D476385E704C167FD170DBF9387F707DE
:100BD00093F7F70F1547E368F7FE15678A071307C2
:100BE00087B2BA979C4382870945EFF06FED83C7C0
:100BF0008187918B81C7EF10E04AD9BB01478546B9
:100C0000014685450945EFF00FE8D9B30D45EFF0F2
:100C10008FE0B70702209387070437870040854598
:100C20000D452322F70A0546EFF04FDD85450D45BA
:100C3000EFF04FF171BB0545EFF08FE801478146BA
:100C4000014681450545C1B71145EFF06FE7014702
:100C50008546014685451145EFF0EFE2A380018806
:100C600085BB1145EFF02FDBB7570320938707A40F
:100C700037870040232AF70A054685451145EFF0DE
:100C8000EFD785451145EFF0EFEB239201882391D3
:100C9000018805472380E18825BB1545EFF04FE229
:100CA00001478146014681451545B1BF1945EFF021
:100CB0002FE101478546014685451945EFF0AFDC38
:100CC0002388018831B31945EFF0EFD4B7570320DB
:100CD000938707243787004085451945232AF70C59
:100CE0000546EFF0AFD18545194599B703C7918304
:100CF00001114EC606CE22CC26CA4AC852C456C2DC
:100D000099478149631FF70283A4C1839307002099
:100D1000268463F497001304002003A94183374518
:100D2000032093190401CA85228613050504818CCA
:100D30002299EFF0FF8793D9090123AE918223AA6C
:100D40002183F2406244D2444249224A924A4E856B
:100D5000B2490561828003C7918393070002631B38
:100D6000F70603C7818385476316F70637470320D5
:100D7000832507040111B707002006CE9387C70D0E
:100D800093D68500A380D70093D605012381D70091
:100D90001307070493D68501A381D7008346470034
:100DA0002E852380B7002382D70083465700034750
:100DB00067002EC6A382D7002383E700EF103055CB
:100DC000B2451565130505B4EF20F017F240014553
:100DD000056182800145828003C791839547631630
:100DE000F70003A5C1836FF02FD88280397106DE2A
:100DF00016DC1ADA1ED82AD62ED432D236D03ACE03
:100E00003ECC42CA46C872C676C47AC27EC0EFF0F3
:100E1000CFE1F250E2525253C2533255A25512560C
:100E200082567247E2475248C248324EA24E124F93
:100E3000824F2161730020305D7122DE3AD43ED2B0
:100E40003727004086C696C49AC29EC02ADC2EDA96
:100E500032D836D642D046CE72CC76CA7AC87EC652
:100E600085472303F70003C701846316F704514540
:100E700023800184EFF0FF8C5545EFF09F8C0145F6
:100E8000EFF07F9A15651305C5B5EF205020725419
:100E9000B640A642164386436255D2554256B256D4
:100EA000225792570258F248624ED24E424FB24FEA
:100EB00061617300203003C701849147630CF7021E
:100EC0005145EFF01F885545EFF0BF870145EFF022
:100ED0009F95B797004023A0070037070002B7E7A8
:100EE00000E0054523A0E710E52115651305C5B60B
:100EF000EF20F01985472380F18437240040230137
:100F000004004545EFF0FF8389472300F40041B713
:100F10005D7122DE378400403ED05C4426DC85646F
:100F200086C696C49AC29EC02ADA2ED832D636D445
:100F30003AD242CE46CC72CA76C87AC67EC4E58F13
:100F400081CB9307201C1CC00145EFF04FC344C464
:100F5000B7870040D847058B39C30547D8C703C7B3
:100F6000118401CF13070028B8C737070200110703
:100F7000F8C723A80704A3800184114745452380AF
:100F8000E184EFF00FFCB727004009472380E7001A
:100F9000654523810700EFF0CFFA01451529378415
:100FA00000405C44918BB9C3238001843707100053
:100FB000B7E700E023A0E7103707200023A0E710E1
:100FC0003707020023A0E7103755FE03B72700407C
:100FD00005472381E7001305056CEF20E061EFF082
:100FE000EFF791475CC40945EFF06FB937870040D0
:100FF0005C47A18B95CFA1475CC70145054723807E
:10100000E184EFF05F825145EFF0AFF3B727004086
:1010100009472380E700238107004545EFF06FF281
:10102000B7E700E03707000223A0E71005454D268B
:10103000378700405C47B7061000F58F89C754C753
:101040000945EFF0CFB3378400405C4493F7074085
:1010500099CF930700405CC41C48858B6387071AAF
:101060000945EFF0CFB15C400567D98F5CC0B7860A
:101070000040D8468567938707807D8F01CB054662
:10108000A380C184DCC60145EFF06FAF3784004018
:101090005C440967F98F85CB58C40945EFF02FAE42
:1010A0005C4093E707105CC0B7870040984B098B02
:1010B00075FFD84309451377F7EFD8C3EF20C04930
:1010C0000145EFF06FAA378400405C442167F98F37
:1010D0006386070C1C50B70600800146D58F1CD0D4
:1010E00058C48146014781450545232E0406EFF08B
:1010F0008F9901478146014681450945EFF0AF9838
:1011000001478146014681450D45EFF0CF970147E4
:101110008146014681451145EFF0EF960147814632
:10112000014681451545EFF00F960147814601467E
:1011300081451945EFF02F950147814601468145CC
:101140001D45EFF04F94014681450545EFF00F8BAB
:10115000014681450945EFF06F8A014681450D45FD
:10116000EFF0CF89014681451145EFF02F89014607
:1011700081451545EFF08F88014681451945EFF00F
:10118000EF87014681451D45EFF04F870145EFF0A0
:10119000AF9D5C4041777D17F98F5CC0378400407C
:1011A0005C4493F7070499C70545EFF04F9D9307FB
:1011B00000045CC4378400405C4493F7070299C77D
:1011C0000945EFF0CF9B930700025CC437840040D1
:1011D0005C44C18B91C70945EFF06F9AC1475CC46D
:1011E0007254B640A64216438643E2545255C25545
:1011F0003256A256125782577248E248524EC24E99
:10120000324FA24F6161730020302324040009454E
:10121000EF208034A9BD82804111094506C6EFF058
:101220002F8A01478146014685450945EFF0AF8584
:10123000B24041016F00507282804111114506C6D3
:10124000EFF00F8801478146014685451145EFF0D3
:101250008F83B240A3800188410182808280411146
:10126000194506C6EFF0CF85014781460146854501
:101270001945EFF04F81B2402388018841018280F7
:10128000828082808280011181461306E1009305ED
:10129000D1000D4506CE22CCEFE0FFF30357E1006D
:1012A0000D45239FE18437040220EFE0DFF6B78786
:1012B00000401307040423A2E70A014681450D45B7
:1012C000EFE0DFF38355E10013050404EF00706BDA
:1012D00083C7D18591EB85450D450546EFE01FF2AB
:1012E00085450D45EFF00F86F2406244056182802E
:1012F00001119306D1001306E1006C00114506CEE2
:10130000EFE07FED0357E10011452392E188EFE024
:101310009FF0014681451145EFE05FEEF2402380EA
:10132000018805618280828001119306D100130635
:10133000E1006C00194506CEEFE0FFE91945EFE04A
:101340009FEDB75703209387072437870040232A50
:10135000F70C054685451945EFE05FEA85451945D7
:10136000EFE05FFEF2400561828082808280B79765
:101370000040130740F8A388E700130700042398F0
:10138000E70413070020239CE704B7460320239EAD
:10139000E70493860604D4CBB7A6022093860604FE
:1013A00094DFB70602209386060494D32398070699
:1013B00089462389D706A3890706239CE7061307D6
:1013C0002002238DE70613070002A38FE706828021
:1013D000B797004001CD23800700130790032380B7
:1013E000E700130770022381E70051B719472380F4
:1013F000E700828083C781849306E00F13F7F70F1D
:101400006389D7009307F00F630BF70041657D15E3
:101410008280B74703202380070405458280238705
:101420000186A386018623860186238C018623A458
:10143000018601458280011122CC2399018403C6D3
:1014400081843745032006CE26CA4AC84EC6AD451C
:101450008346050463EAC5021377F60F15660A078B
:10146000130686CC3297184393070504028703C7F7
:1014700037000D466303C706636AE60085476303CA
:10148000F70289476301F704FD571DA8BD47E31D17
:10149000F7FE9567938787CF23A2F18403D6418512
:1014A000D94709A89567938787D523A2F18403D6E6
:1014B0004185C94763E6C70083D74185C207C18319
:1014C0002399F1842DA89567938787D323A2F1846C
:1014D00003D6418593070002F1BF83C72700094661
:1014E000638EC708636BF600D1E39387418223A222
:1014F000F18403D64185914775BFE397E7F803D799
:101500002185C167FD178144630AF70483D72185CC
:1015100093940701C180B9C303D721859307F003D2
:101520009304000463E6E70083D42185C204C180EC
:10153000E206E18663DD060003A9418426861305E1
:101540000504CA852699EFF0AF8623A2218583D7AB
:101550002185858FC207C1832399F184F2406244BB
:101560004249B2492685D244056182809387C18170
:1015700023A2F18403D64185A1472DBF95679387A8
:1015800007D123A2F18403D64185930760021DB7DA
:1015900003C72700A386E1849DB703C7E1842380A6
:1015A000E700854731BF37960040034786000D8B23
:1015B0000DE33707002013060004231CC70C83C764
:1015C00027001387C1842301F70085472302F70012
:1015D0003DB70347860009460D8BE312C7FE370768
:1015E00000202146D9BF13F7F6010946631BC70443
:1015F00083C74700130610086389C702636CF600AF
:101600000546638BC702E391E7E8B7970040238D57
:101610000706F5B513062008E398C7E6B79700401C
:10162000239C0706238DE706D9BDB7970040239A70
:101630000706238BE706E1B5B7970040A38B0706A3
:101640007DBDE31307E403C727008547E319F7EAE5
:101650009387C18403C73700799BA381E70045B511
:1016600013F7F601E30207E20946E31FC7E003C6EA
:101670002700E31B06E083C7470013061008638FAB
:10168000C7026360F60205466383C704E39EE7DE94
:10169000379700408347B70793E73700A30DF70656
:1016A000B9BD13072008E391E7DE37970040834771
:1016B000A70793E73700230DF70691B5379700404A
:1016C0008347670793E73700230BF7060DBD37976E
:1016D00000408347770793E73700A30BF70605B56C
:1016E00003C747008945231005042399B1841306D5
:1016F00010086310C70237970040034767070D467D
:101700000D8BE31EC7DE05472380E7002399E184A4
:10171000FDB30546631BC7003796004003467607B6
:101720008D450D8AE31DB6DCC5B713082008631F7D
:101730000701379700400347A7070D8B8D45E3103E
:10174000B7DC2380C7002399C18455BBE319B7DAFE
:10175000379700400347B707CDB783C7818401118E
:1017600006CE22CC26CA4AC84EC695466381D70605
:1017700013F7F70F9947630BF7000144F2402285F6
:101780006244D2444249B2490561828003D721852F
:101790009307F0031304000463E6E70003D42185F4
:1017A0004204418083A44184374503202286A685D4
:1017B00013050504EFE0DFDF83D72185A29423A280
:1017C0009184818FC207C1832399F18445BF03C7E8
:1017D000D184B7970040A381E70045B75D7122DE51
:1017E0003ED286C696C49AC29EC02ADC2EDA32D871
:1017F00036D63AD442D046CE72CC76CA7AC87EC6A5
:10180000379400400347A4009377F70F137707023C
:1018100051C7B74703209387070403C7070003C6D0
:101820001700A384E1842384C18483D667001377DF
:101830000706239AD18431CBEFF0DFBBC167FD17D8
:101840006318F504B7970040239807060D472389CE
:10185000E706A389E706B797004013070002238530
:10186000E7007254B640A642164386436255D255ED
:101870004256B256225792570258F248624ED24E02
:10188000424FB24F616173002030EFF0DFBA7DB795
:10189000B79700402398A706214755BF13F72700A5
:1018A000630007120347B4008347B40089463D8BA9
:1018B00091838D8B6306D70A0D466305C70C01EF34
:1018C000639ED702593D01EDA147A309F4062318F1
:1018D000040623090406B7970040094749B72318AF
:1018E000A4068347240793C787002309F406834788
:1018F000240793F7C70F2309F406F1BFE9FF8356C6
:10190000C40083D7218563F0F6048357C40083D6CF
:101910002185C207C183B387F640C207C1832399DB
:10192000F18483D721859DC3B797004003C737074C
:1019300013478700A389E70603C737071377C70F45
:10194000A389E70649BF83D72185D1B7B797004060
:101950002398070621472389E706A3890706A5BF21
:10196000E39BE7F6B7A70220938707041CDC8347B5
:10197000A40793F7C70F93E72700230DF406EF00A2
:10198000A07D91BFA9FB37050220930705041CD059
:101990008347F4071305050493F7C70F93E7270060
:1019A000A30FF4068355C400EF00A07D83C7D18543
:1019B0009DF38347F40793F7C70FA30FF40621BFE6
:1019C00013F7170031CBEFF09F9A8547A30104006E
:1019D0002305F40003C701849376F70FE313F7E8B8
:1019E000B7E700E03707100023A0E7103707200013
:1019F00023A0E7103707020023A0E7103755FE03A6
:101A0000B72700402381D7001305056CEF10D03EA7
:101A10000545EFE05FE1B1B5918BE38407E49147C1
:101A20002305F4003DBD79714AD056CA856A22D497
:101A300026D24ECE52CC5AC85EC662C466C206D604
:101A40006AC02E8AB289AA84814C37A40040956B63
:101A5000378B1E001389818D938A1AE1156C939739
:101A60000C01C18363E43701054551A01050330DCB
:101A70009A01EA851385CBD6EF10F04C13070B487B
:101A8000B70602001C50F58FB9CB835769022306B5
:101A9000090244D4C207232A040293E717001CD882
:101AA0002320A4012312540113070B488357440237
:101AB00093F70704B9CB930780042312F40203C7FA
:101AC000F41F83C6E41F03C60400835544021305B4
:101AD0008CDB850CEF1030479384042049B77D17C9
:101AE00055F31565130545D8EF10705A0945B250E6
:101AF000225492540259F249624AD24A424BB24BA2
:101B0000224C924C024D456182807D1745F38355EE
:101B10004402156581460146130585D9EF10B04290
:101B2000FD572312F402D9B7411122C483C781871C
:101B300006C6858B85C703C701848547631BF704E9
:101B4000379700408347A70793E73700230DF70631
:101B500083C7818793F7E70F238CF18683C781873B
:101B6000898B85C703C701848547631CF7023797B4
:101B700000408347F70793E73700A30FF70683C7B3
:101B8000818793F7D70F238CF186B240224441011D
:101B9000828001478146094685450945EFE0AFEE61
:101BA00045BF014689450D45EFE04FE5C9BF938725
:101BB000818B83C61701E20623A2D18683C6270143
:101BC00003A64186C206B29623A2D18683C63701F8
:101BD00003A64186A206B29623A2D18603A6418619
:101BE00083C64701B29623A2D18683C6670183C705
:101BF0007701A20623A4D18683A68186B69723A463
:101C0000F18683A78186A60723A4F1862390018607
:101C100023870186A386018623860186828083C668
:101C2000818B130750059387818B639EE63883C6AB
:101C30001700130730056398E63883C6270013079B
:101C400020046392E63883C6370013073004639C90
:101C5000E63683C647002388D18683C6570013879C
:101C60000187A300D70083C667002301D70083C67E
:101C70007700A301D70003C7B700620723A4E1865A
:101C800003C7A70003A681864207329723A4E186F3
:101C900003C7970003A681862207329723A4E18613
:101CA00003A6818603C78700329723A4E18603A792
:101CB000818619CB0387C7006359070403C781874F
:101CC00013671700238CE18603C7818703C6F700DB
:101CD00013674700238CE18683C8A18713F7F80FA9
:101CE000638A080249476308E60A0D476300E60471
:101CF0001947238D01862387E18613078002A38677
:101D0000E18605472386E18645AC03C781871367D3
:101D100027004DBF1308F0026365C8064548636598
:101D2000C804630606260D476311E606130700077D
:101D3000239CE18A03C7E186A381070023A407004F
:101D40002381E7003707000AD8C303C7D186A386DB
:101D50000700239707002386E7002398070023AC9A
:101D6000F18423860186828039161376F60F754535
:101D7000636DC50015650A061305C5DD2A96104278
:101D800002861305A005630AA61815472387E18676
:101D900013070002ADB703A781869307400263F4DF
:101DA000E70023A4F186B7070020938787012380EB
:101DB000070023ACF18423870186A386018655B7EB
:101DC00003C69187058A630E061283A58186314674
:101DD0006374B60023A4C1861566130686EA83A53C
:101DE00081866366B70283A64187E1822382D7009A
:101DF00083A64187C182A382D70083A6418703A718
:101E00004187A1822383D700A383E7005DB7330511
:101E1000E60003450500B385E70005072380A5001C
:101E20001377F70F6DBF03C69187058A79CA83A51B
:101E3000818621466374B60023A4C18613868182FD
:101E400083A58186636AB70203A741877D176183F3
:101E50002380E70003A741877D174183A380E70024
:101E600003A741877D1721832381E70003A74187CB
:101E70007D17A381E70035BF3305E6000345050064
:101E8000B385E70005072380A5001377F70F4DBF43
:101E900083C79187858BB5C719BB03C69187058A10
:101EA0002DC283A5818631466374B60023A4C18602
:101EB00015661306C6E983A581866368B70283A603
:101EC0004187E1822382D70083A64187C182A38212
:101ED000D70083A6418703A74187A1822383D70028
:101EE000A383E70023ACF18482803305E600034539
:101EF0000500B385E70005072380A5001377F70FDA
:101F00005DBF09472387E1861307A003A386E18607
:101F100005472386E1866FF03FC183C5170113068D
:101F2000F0036390C50683A5818641466374B600BD
:101F300023A4C18615661306C6E883A58186636659
:101F4000B70283A64187E1822384D70083A6418715
:101F5000C182A384D70083A6418703A74187A182BA
:101F60002385D700A385E700B5BF3305E600034509
:101F70000500B385E70005072380A5001377F70F59
:101F80006DBF15472387E1861307000241B783C75A
:101F90009187858B81CB23870186A3860186238643
:101FA0000186828089472387F1869307A003A38651
:101FB000F18685472386F18683C7818793E71700DB
:101FC000238CF18689BF15472387E186130700021A
:101FD000A386E18609472386E18683C7818793E745
:101FE0001700238CF18683C7818793E72700C9BF39
:101FF000370700200356A70D83A68186411106C628
:1020000022C426C2637FD6040356A70D8356A70DAC
:1020100003A7818642064182158F23A4E18603C768
:10202000018437A5022083A5818513140601854705
:1020300093040504418013050504631FF702EFE0D4
:102040002FD7B7970040239C870684DF03C7A707D5
:102050001377C70F238DE706B24022449244410113
:10206000828003A6818623A4018683C7818793F794
:10207000E70F238CF18665B7EFE08FD3B787004079
:1020800023AA970822878545094585460546EFE03E
:102090008F9F2244B2409244854513052008410198
:1020A0006FE04FAA238C018683C60187B75742533E
:1020B00041119387573522C406C61387018723AC85
:1020C000F18A9387818B2382D7008346170023A44C
:1020D000070037A50220A382D700834627000347C5
:1020E0003700130405042383D700A383E70003C745
:1020F000C18635469385818B2386E70003C701841B
:102100008547130505046314F702EFE06FCAB7971C
:1021100000403547239CE70680DF03C7A7071377F6
:10212000C70F238DE706B240224441018280EFE0D1
:102130002FC8B787004023AA87088545094535473A
:1021400085460546EFE02F942244B24085451305AD
:10215000200841016FE00F9F83C78187858B81CF66
:1021600003C7718C930780026316F7000547238E1F
:10217000E1848280B5BD83C78187918B91C31DB7F0
:102180008280411126C283C7818706C622C4898BFB
:1021900089CB0547A38EE184B24022449244410199
:1021A0008280FD47E39AF5FE81471384818B7D474A
:1021B000B306F50003C60600B386870085072380B3
:1021C000C600E397E7FEEFF09FA583C78187898B61
:1021D000E1F783C78187858B85C30347F4009307A5
:1021E00080026316F7000547238EE18475B7224409
:1021F000B24092444101EDBB83C7C186D1FF224466
:10220000B2409244410179BD411122C437440320B8
:10221000054681451305042406C6EFF0DF809306CA
:102220000424224403C8F61F83C7E61F03C7160011
:10223000B24083C6060003C64190AA851565130502
:1022400045E541016F10205003C7018485476309AC
:10225000F70E011122CC83A7818606CE26CA4AC872
:102260004EC652C499EF83C78187F240624493F708
:10227000E70F238CF186D2444249B249224A0561D4
:10228000828003A781869307F03F1309004063E42F
:10229000E70003A9818683A541869354990013968C
:1022A0000401B7A90220418213850904EFF0AFF7BA
:1022B00085476303F50291462387D1866244C5466C
:1022C000A386D186F240D2444249B249224A2386AB
:1022D000F18605616FF05F8583A74186C204C180E6
:1022E000BE9423A2918683A78186B387274123A426
:1022F000F18683A7818699E783C7818793F7E70FE4
:10230000238CF1860945EFD0BFFB93890904B78779
:1023100000401317090123AA370985450945418360
:1023200085460546EFD03FF66244F240D24442492A
:10233000B249224A85451305200805616FE08F8068
:10234000828003C701848547630AF718797126D212
:1023500083D4E1854AD052CC5AC8139A0401056B44
:102360003709022022D44ECE56CA5EC662C466C267
:10237000930B9BE106D66AC0135A0A01A580130984
:1023800009048149B78A1E0037A40040130BCBF023
:1023900093970901C18363EB970483A741860147A3
:1023A000BE9423A2918683A6818663E6460103A795
:1023B00081863307474123A4E18683A78186639101
:1023C000071083C781872254B25092540259F249B0
:1023D000624AD24A424BB24B224C924C024D93F786
:1023E000D70F238CF18645616FF0DFCB83A7418641
:1023F00093860A4837060200CE971850718F25CF72
:102400001CC023127401138D0A481385818DEF00BF
:10241000F06459C989476302F5061387818D9307D4
:1024200010045CD88357670223262403C20793E76E
:1024300017001CD88346C70213870A4883574402F3
:1024400093F70704B5C7930780042312F402232AE5
:1024500004022320040023126401138D0A4813850B
:10246000818DEF00B05F29C9A1472312F4028509CD
:102470001309092031BFFD16C9F20D472387E186F4
:1024800022543147A386E186B25092540259F24950
:10249000624AD24A424BB24B224C924C024D2386A6
:1024A000018645616FF04FE87D1DE3100DF6F1B731
:1024B000E9F67D1741F7D1B77D1DE3120DFA75BF1F
:1024C000B250225492540259F249624AD24A424BC3
:1024D000B24B224C924C024D45618280828083C671
:1024E000C185411106C622C405476396E600238EC6
:1024F0000184EFF07FD503C7D18585461374F70FAC
:102500006315D702A38E01842D3D83C78187898BF4
:1025100089CF83C70184639E870037970040834734
:10252000F70793F7C70FA30FF706B2402244410104
:10253000828085450D450546EFD05FCC2244B240F0
:1025400085450D4541016FD0FFDF41113EC2B7A760
:10255000004036C683D647023AC481CA13970601A3
:1025600041832382E1902392E702B24622479247B9
:102570004101730020305D714EDE52DCB7A900408E
:10258000056AA6C2CAC056DA5AD85ED662D466D2E6
:102590006AD06ECE86C6A2C4AA8413094006138BE5
:1025A0004900130A7AE3B78A1E00B78BFF40130C69
:1025B0009022956C373D0040854D23A009002310E3
:1025C0004B010945EF00507913840A482685EF0036
:1025D000F04809CD8947631FF5007D1951451379EE
:1025E000F90FEF00507AE31A09FC19A07D1479FC69
:1025F0000944B5A023A0790123108B010945EF0000
:10260000B07593870A4826853EC6EF003045B2472D
:102610002A8435C503A64901AA8513854CEBEF1022
:10262000801283475D4093F70704E5DF0945EF001B
:102630009075E314B4FBB7A70040DC4BE3DF07F869
:1026400013D7E701058B05072381E4003707000155
:10265000F98F91C71565130545EDEF10C00EB64013
:102660002285264496440649F259625AD25A425B60
:10267000B25B225C925C025DF24D61618280FD176B
:10268000D9F3BDB7411122C426C206C637A7004000
:10269000856723200700938737E037841E00AA84CC
:1026A0002312F700130404482685EF00303B19CDB0
:1026B00085476318F500B7A70040DC4BC183239220
:1026C000F402B24022449244410182807D1469FCAC
:1026D0000945C5BF83574502411122C426C206C61B
:1026E000C20737A700401CC3B7841E009307901091
:1026F0002A842312F700938404482285EF001036C1
:1027000031C9054781476319E502B7A600409C46D9
:102710005CC8D84618CC9C4A5CCCD44A14D0F98208
:1027200095CE89462301D400C207B706FF00F58F76
:102730004183D98F8507AA070357E4011CD4854735
:102740003D8BB397E7002313F402B2402244924436
:1027500041018280FD14D5F00945C5BF8566F1169B
:102760008A07F58F9356E7013D83D58F1D8B85072B
:1027700009072301A400B397E7007DBF83574502F3
:10278000411122C426C24AC006C6C20737A700406C
:102790001CC38567938777E337891E00AA842E843C
:1027A0002312F700130909482685EF00302B15C9BD
:1027B0000547631CE50233348000060437A7004058
:1027C000856700C3938767E037841E002312F700F4
:1027D000130404482685EF00702801E97D147DF874
:1027E00021A07D19E31209FC0945B240224492441C
:1027F00002494101828083574502411122C426C209
:102800004AC006C6C20737A700401CC38567938726
:1028100077E3B7841E002A842E892312F70093845D
:1028200004482285EF00902339C90547631CE5045D
:10283000B7A7004023A627033707080023AA0702EB
:10284000050798DB056723A00700130737E3B78464
:102850001E002392E700938404482285EF00102095
:1028600005C9B7A7004003D747021377070465DF00
:1028700003D74702420741832392E70221A0FD14B8
:10288000CDF00945B2402244924402494101828080
:10289000FD14E1F4FDB7797156CA856A22D426D2B7
:1028A0004AD05AC85EC662C466C206D64ECE52CC64
:1028B0006AC00149156B37A40040956B156C938A6B
:1028C0008AE0956CCA851305CBEEEF00D0671545FD
:1028D000EF00704BB7170040B85B4166B7053E008C
:1028E000518FB8DBB85B91664D8FB8DBB84B13677F
:1028F0007700B8CBB853558FB8D3B84F136777006C
:10290000B8CFB85F4D8FB8DFB85F518FB8DFB85F11
:10291000558FB8DFD147230CF400854763E3270BBD
:10292000A147230CF4008347840193F7C70F230CBE
:10293000F4009307F051231CF402FD572312F40214
:10294000930770132314F402B947230EF400138580
:102950008BF0EF00D0731385818DEF005012794515
:10296000EF0070421385818DEF0070117945EF0003
:1029700090410D4A130DA01A854913054CF1EF0043
:1029800010712320A4012312540113850CF2EF00CF
:1029900010701385818DEF00700C65D963083507C1
:1029A00079457D1AEF00303EE3190AFC0509A1477D
:1029B000E31AF9F015651305C5F5EF00506D094AE6
:1029C00029A299476305F9009D47631EF900A147B5
:1029D000230CF4008347840193F7C70F230CF40002
:1029E0009307F01189BF93078002230CF4008347FB
:1029F000840193F7C70F230CF4008D47E3FB27F303
:102A0000C5B7B7A700401307A03079A01385818D03
:102A1000EFF07FB6E31C35F91385818DEF00700868
:102A2000E31635F91385818DEFF0DFC5E31035F935
:102A30001385818DEFF01FCAE31A35F71545EF00B6
:102A400090341385818DEF00F009E31135F785454A
:102A50001385818DEFF09FD2E31A35F537A700403B
:102A600083478701B74503209385054493F7C70F34
:102A700093E71700230CF7001385818DEFF0BFD784
:102A80002A8AE31535F39377F90F0D47E36BF7F6D1
:102A9000B7A700401307A070239CE7029384818DA1
:102AA00023860402B7A7004023AA070237070004C1
:102AB000B7E700E023A0E710945403C6240015658F
:102AC000CA851305C5F2EF001048B2502254925443
:102AD0000259F249D24A424BB24B224C924C024D1F
:102AE0005285624A45618280B7E700E0B843C1463B
:102AF000B4C3370600049386071890C2B8C3B7A7BB
:102B0000004023AA07027D572392E7028280B7E79D
:102B1000F50593870710B3D7A702411106C622C453
:102B20003747004085462307D780A9462A84854534
:102B300011459507B3D7D702C207C1832316F78083
:102B4000930770FC2301F7808D47A301F78093075B
:102B50000004A300F780371700403C4793E7870045
:102B60003CC7EF00007B95452145EF00807A0D457D
:102B7000EF00D02995450545EF00F02AB7E700E0C2
:102B80003707008023A0E710B7070020B24023AE2C
:102B9000870C224441018280B73700401387C780E9
:102BA0009306003214C309472380E780114723802E
:102BB000E78003C72780136717002381E780B7E703
:102BC00000E03707800023A0E710828041113AC659
:102BD0003EC43737004083476780858B99CB854754
:102BE0002303F78083D7E1878507C207C183239F2B
:102BF000F1863247A24741017300203003C70184A8
:102C000085476305F718797122D483D7418806D6A2
:102C100026D24AD04ECE95CF03D7218885451305BD
:102C2000F10093071700C207C1832391F188B757BA
:102C30000320938707A4BA9783C70700A307F1006F
:102C400083D74188FD17C207C1832392F188EF0023
:102C5000B02083C70188A1E383D741888DEF83C764
:102C6000118895EB2391018885472380F188B75718
:102C70000320938707A437870040232AF70A1145CA
:102C8000EFD06FD9854511450546EFD02FD7854543
:102C90001145EFD02FEB83C711886392070E83D7BE
:102CA0006188C207C183239EF18683D7C187E1CBA8
:102CB00083D6C1879307F01F63F5D70083C70188C8
:102CC00099C783D6E1879307803E63FAD70A83D7F3
:102CD000818883D6C187B6979306004063DBF600F0
:102CE00083D6818893070040958FC207C183239EB6
:102CF000F18683D6C1879307002063F4D700239E13
:102D0000F18683D6C18783D76188375503201305A1
:102D100005E4958FC207C1832393F18883D5818809
:102D2000B747032003D6C18793870764BE95EFD0CA
:102D30003F8883D7C18703D78188BA97C207C183E9
:102D40002394F18803D781889307F03F63F4E70069
:102D50002394018885471145A380F188EFD04FD691
:102D600003D7C1878546054685451145EFD0AFD1CC
:102D7000854513054008EFD0EFDC239F0186B25054
:102D8000225492540259F2494561828082802395EF
:102D90000188239401882393018823920188239139
:102DA0000188A380018823800188239F0186239EB8
:102DB000018682805D7136D83AD686C696C49AC29C
:102DC0009EC02ADE2EDC32DA3ED442D246D072CE0B
:102DD00076CC7ACA7EC802C402C637470040834711
:102DE00047809946BD8B6382D70631476389E708E0
:102DF00011476393E706374603209D473745004058
:102E0000130606641308F03F83D6A1889385160045
:102E1000C205C1812395B18883458580B296238000
:102E2000B60083D6A1886374D80023950188FD1766
:102E300093F7F70FF1FB83D761889D07C207C18322
:102E40002393F188239F018601A883455780156548
:102E50001305C5F7EF00300FB640A6421643864370
:102E60007255E2555256C2563257A25712588258DE
:102E7000724EE24E524FC24F616173002030280003
:102E8000EF009000374603201378F50F81471306B3
:102E900006649308F03F93F6F70F63E8060183D7C3
:102EA00061881375F50FAA9751BF83D6A1889385C2
:102EB0001600C205C1812395B1882C00BE9583C53B
:102EC0000500B2962380B60083D6A18863F4D800AB
:102ED000239501888507C1B7056637030020814621
:102EE0007D161303031E63C3B600828083D7E18877
:102EF00003D7C1888507F18FC207C183631AF70022
:102F000003D7C1880507718F420741832396E18863
:102F100003D7E188330ED500034E0E001A978506BD
:102F20002300C7012397F1887DBF2388018883D7B9
:102F3000E188C207C1832396F188828003C7018498
:102F40008547630FF70883C70189D9EB03D7C18889
:102F500083D7E1886306F708011137060020B755CB
:102F60000320056506CE0147130300401306061E25
:102F7000938505647D1503DEC18883D7E188631CD2
:102F8000FE0442074183854719453AC62388F188E4
:102F9000EFD00FB332478545194585460546EFD03A
:102FA0008FAEF24085451305600805616FD08FB97B
:102FB00083D7C188B29703CE0700B307B7000507D0
:102FC0002380C70183D7C1888507E98FC207C183E2
:102FD0002396F1884DB7E31D67FC1307004065B7E2
:102FE000828015654111130545F906C6EF00300AC8
:102FF00083C7918793F7E70FA38CF1862389018814
:10300000EFF09FAE371700407C57B24093E7074080
:103010007CD7A389018841018280156501111305C0
:1030200085FB06CE22CC26CA4AC84EC652C4EF0043
:103030001006371700403C57156593E707403CD70B
:103040001305C5FD8547A389F188EF0050041305DA
:103050004006152B1565130545FFEF005003054489
:103060008544156A9149EFF01F8363099504A28591
:103070001305CA00C92D1305200305042923E314F1
:1030800034FF156513050503EF0070003717004086
:103090007C57F240624493E707407CD7A3890188BC
:1030A0002389018883C79187D244424993F7E70F68
:1030B000A38CF186B249224A056182809387818D73
:1030C0008C5723AAB186238D918683C79187156576
:1030D00013D6B50093E71700A38CF18613054505B9
:1030E000238991888D256244F240D2444249B249F5
:1030F000224A05616FF04F91371700407C5741110C
:1031000006C693E707407CD7954513050040192E66
:10311000B240A38901882389018841018280A38864
:10312000A188828083C6118993F7F60F95CAA38878
:1031300001880947638DE7000D47638FE700054766
:103140006390E70283C7318981CF6FF09FE983C71E
:10315000318999E76FF07FEC83C73189FDF7DDBFD7
:103160008280B7470F00938707243355F5029307F2
:1031700000051375F50F6309F50A63E1A702F94726
:103180006306F5069307C0036303F508BD47630CA8
:10319000F502B717004023800700828093070006DE
:1031A0006301F50A93078007E315F5FEB7170040A2
:1031B000130770052380E700130780FA2380E700D8
:1031C0001307400481A0B717004013077005238040
:1031D000E700130780FA2380E70013072004238405
:1031E000E700130700F82385E70065B7B71700402D
:1031F000130770052380E700130780FA2380E70098
:10320000130700042384E700130720F8E9BFB7176A
:103210000040130770052380E700130780FA23801E
:10322000E70013078004F9BFB717004013077005C4
:103230002380E700130780FA2380E7001307600468
:10324000D1B7B7170040130770052380E7001307B5
:1032500080FA2380E700130750046DB737A70040BA
:1032600083574702A18B91C7A1472312F702054557
:1032700082800345C5023335A000060582804111D6
:1032800022C406C6B7A7004023A007002A842392C1
:1032900007002285EFF09FFC6DDDB2402244410122
:1032A0008280411122C406C6B7A7004023A00700B0
:1032B000130720102A842392E7002285EFF01FFADB
:1032C0006DDD8547631CF500B7A70040984758C0DF
:1032D000D84718C4984B58C4DC4B1CC8B240224491
:1032E0004101828083574502411122C406C6C207AC
:1032F00037A700401CC38567938777E02A84231291
:10330000F7002285EFF09FF56DDDB24022444101C8
:103310008280A94763E4B70695679387C7078A0544
:10332000BE959C418287B7170040F84B1345F5FFC7
:10333000698FF8CBB84B698FB8CBB843798DA8C3E8
:103340008280B7170040F44F1347F5FFF98EF4CF92
:10335000F44BF98EF4CBB44BC98E29A8B7170040B3
:10336000F44F1347F5FFF98EF4CFF44BC98EF4CB2D
:10337000B44BF98EB4CBB443758FB8C38280B71702
:103380000040F84F498FF8CFF44B1347F5FFD1B702
:10339000B7170040F84F498FF8CFF84B498FF8CB5B
:1033A000B84B1345F5FF41BFB7170040F84F498FA1
:1033B000F8CFB44F1347F5FFF98EB4CFF44B21A8E3
:1033C000B7170040F84F498FF8CFB84F498FB8CFA3
:1033D000F44B1347F5FF758FF8CBB843498F71BF96
:1033E000B7170040F44F1347F5FFF98EF4CFB44FF1
:1033F000E1B7B7170040F44F1347F5FFF98EF4CF4C
:10340000B44FC98E5DBFB7170040B44F1347F5FFE7
:10341000758FB8CFF84B498FC1B7B7170040B84F79
:10342000498FC5BFA94763E4B70695679387870AA5
:103430008A05BE959C418287B7170040F85B13450B
:10344000F5FF698FF8DBB85B698FB8DBB853798D0E
:10345000A8D38280B7170040F45F1347F5FFF98EB9
:10346000F4DFF45BF98EF4DBB45BC98E29A8B717DF
:103470000040F45F1347F5FFF98EF4DFF45BC98E6B
:10348000F4DBB45BF98EB4DBB453758FB8D38280B0
:10349000B7170040F85F498FF8DFF45B1347F5FF7B
:1034A000D1B7B7170040F85F498FF8DFF85B498F55
:1034B000F8DBB85B1345F5FF41BFB7170040F85F75
:1034C000498FF8DFB45F1347F5FFF98EB4DFF45B83
:1034D00021A8B7170040F85F498FF8DFB85F498F20
:1034E000B8DFF45B1347F5FF758FF8DBB853498FEE
:1034F00071BFB7170040F45F1347F5FFF98EF4DF93
:10350000B45FE1B7B7170040F45F1347F5FFF98EDA
:10351000F4DFB45FC98E5DBFB7170040B45F1347D7
:10352000F5FF758FB8DFF85B498FC1B7B71700405B
:10353000B85F498FC5BFB7177A0093870720335507
:10354000F5021375F50F238BA1889307803E330591
:10355000F502239AA1888280B7F700E0D84B759BCB
:10356000D8CB03C761893307A702D8C723A80700B0
:103570001307101098C337F700E05C4B898BF5DF19
:10358000232007008280B7F700E0D84B759BD8CB8B
:1035900003D741893307A702D8C723A80700130719
:1035A000101098C337F700E05C4B898BF5DF2320C0
:1035B00007008280411126C2AE842685B28522C4CE
:1035C00006C63284EFF05F91814737370040A1464D
:1035D00063C88700B2402285224492444101828020
:1035E0000346B740E30ED6FE3386F40003460600DA
:1035F00085072304C740E9BFB7270040C8C709476C
:103600002380E70051472380E7008280374700404E
:10361000834727801A0593F7F703C98F93F7F70FAE
:103620002301F780828019CDB747004003C7178078
:103630004D8FA380E78003C707801367870023802F
:10364000E7808280374700408347178093C5F5FFA6
:10365000ED8FA300F7808280AA95C205C18137470C
:103660000040A1463746004093170501C18363938C
:10367000B70082800348B780E30BD8FE834705007C
:1036800005052304F680CDB78147374700408346C0
:10369000A78089E6139507014181828003468780D0
:1036A000B306F50085072380C600D5B701A097D1E2
:1036B000FF1F9381A122171100201301A194172548
:1036C00000001305A5B097D5FF1F9385A59313861A
:1036D000418363FAC5008322050023A0550011052C
:1036E0009105E3EAC5FE1385418397E5FF1F9385A6
:1036F00065AF6377B500232005001105E36DB5FEC6
:1037000017D5012013050590972503209385853350
:103710006377B500232005001105E36DB5FE930224
:1037200080087390023097D2FFFF9382E28D93E27C
:1037300012007390523097D2FFFF9382C2F07390C1
:103740001234730020305D7122D406D62A842EDA1A
:1037500032DC36DEBAC0BEC2C2C4C6C603A5C18052
:1037600011C51C4D81E72AC6BD2B32450C455418A6
:10377000228636CEEF003028B2502254616182801A
:10378000011126CA06CE22CC4AC84EC652C4AA840B
:1037900019E11C4502901C4D2E89A5E7A9239C4CDC
:1037A0008044B5C397270000938707976310F406FA
:1037B000C0407C50858B81EB8357C40093F7072072
:1037C00099E3284C452D8357C400A18B99C31C480D
:1037D000C5E7A2852685492245C1FD547C50858BCD
:1037E00081EB8357C40093F7072099E3284C6125A8
:1037F000F24062444249B249224A2685D2440561D8
:103800008280004545B72685F92969BF97270000C2
:103810009387878E6314F400804461BF972700006C
:103820009387878BE317F4F8C04461B71CC405097C
:1038300063C907021C401387170018C02380B70014
:103840001C4483450900FD17F5F11CC463D9070228
:103850002286A94526858920FD57E300F5F8A9446D
:10386000B5BF184C63C4E700E39645FD2286268564
:103870002520E31735FD95B7FD59294AD1B71C40DE
:103880001387170018C029472380E700C9BFAA85FE
:1038900003A5C1806FF0DFEE011122CC26CA4AC811
:1038A00006CE4EC6AA842E89328401C51C4D91E3F2
:1038B0001D2997270000938727866318F402C040CC
:1038C0001C4C1CC48357C400A18B99C31C4895EFA2
:1038D000A2852685512015C97D59F2406244D24403
:1038E000B2494A8542490561828097270000938743
:1038F000A7806314F4008044E1B797170000938712
:10390000A77DE31FF4FAC04465BF1C4808409379C3
:10391000F90F1379F90F1D8D5C486346F500A285F8
:103920002685A52455F91C440505FD171CC41C401B
:103930001387170018C0238037015C486389A700EC
:103940008357C400858BD1DBA947E318F9F8A2851A
:103950002685252C59D149B7411122C426C24AC017
:1039600006C683A4C1802A892E8489C49C4C99E30D
:103970002685952E971700009387077A6314F40223
:10398000C0408317C40013F787002DEB13F707011E
:1039900015EB25472320E90093E707042316F400DD
:1039A0007D5559A897170000938707756314F40095
:1039B0008044C1BF9717000093870772E313F4FC9C
:1039C000C044C1B7918B8DC74C5889C99307440433
:1039D0006384F5004A855523232A04028357C400D3
:1039E0002322040093F7B7FD2316F4001C481CC0E3
:1039F0008357C40093E787002316F4001C4881EF27
:103A00008357C4001307002093F707286385E70056
:103A1000A2854A85C1218317C40013F717001DC36F
:103A20005848232404003307E04018CC18480145C7
:103A300001E713F707082DF3B240224492440249EC
:103A40004101828013F72700814611E3544814C4D2
:103A5000F1BF8397C500011122CC26CA06CE4AC801
:103A60004EC613F78700AA842E8469E7D8416345C0
:103A7000E000B8416358E008585449C7B18303A92E
:103A80000400858B23A004000C50B9CB70488357E9
:103A9000C400918B99C75C401D8E5C5899C33C4013
:103AA0001D8E5C540C50814626858297FD57630D10
:103AB000F5041C480567232204001CC08357C4007A
:103AC000F98F91C368C84C5823A0240185CD930772
:103AD00044046384F50026854D21232A04021DA099
:103AE0000146854626850297FD572A86E311F5FA99
:103AF0009C40D1DF75476385E70059476395E7062A
:103B000023A024010145BDA098408317C40001CF24
:103B1000F5466305D700D9466319D7041C4823220C
:103B200004001CC04DB71848B1832322040018C0FC
:103B3000858B41BF83A90501E38609FC03A9050024
:103B40008D8B23A0350133093941014791E3D849D1
:103B500018C4E35920FB1C540C50CA864E86268597
:103B600082976340A0028317C40093E707042316DB
:103B7000F4007D55F2406244D2444249B2490561A5
:103B80008280AA993309A940E9B79C49411106C628
:103B900022C426C281EB8144B2402244268592444D
:103BA00041018280AA842E8401C51C4D91E3252AFF
:103BB0009717000093874756631EF402C04083178F
:103BC000C400F1DB7850058B11E793F7072099E3E8
:103BD000284C4D242685A285EFF0BFE77C50AA84AF
:103BE000858BDDFB8357C40093F70720D5F7284C5E
:103BF00059245DB797170000938707506314F400AA
:103C0000804475BF971700009387074DE319F4FAB6
:103C1000C04475B7411122C406C62A842316B500D4
:103C20002317C500232005002322050023240500B7
:103C30002322050623280500232A0500232C05003E
:103C4000214681451305C505EFC0FF979717000072
:103C50009387E7C35CD097170000938747C61CD4AF
:103C600097170000938787CA5CD497170000938743
:103C700047CDB24000D01CD8224441018280970534
:103C800000009385C5F049A2411126C29307800622
:103C90009384F5FFB384F4024AC02E8922C406C679
:103CA00093854407C92E2A8401CD232005002322B1
:103CB0002501310508C4138684068145EFC0BF90F5
:103CC000B2402285224492440249410182801385F8
:103CD000018A4DA21385018A79AA1385418A59AABE
:103CE0001385418A49AA411122C406C62A84EFF0ED
:103CF000DFFE1C4C91C72244B24041016FF05FFED1
:103D0000970700009387E7F71CD423240404232695
:103D100004042328040483A7018363948700854750
:103D20001CCC2285152848C022853D2008C4228548
:103D3000252048C4484001469145EFF0BFED0844B6
:103D40000546A545EFF01FED48440946C945EFF08B
:103D50007FEC85471CCC45B7411126C24AC006C638
:103D600022C42A89EFF0BFF683A401839C4C81E72B
:103D70002685EFF05FF7938484048044DC40FD17D0
:103D800063D607009C40A5C78440C5BF0317C40085
:103D900021EFC17785075CC413058405232204063F
:103DA000C928EFF03FF32146232004002324040018
:103DB0002322040023280400232A0400232C0400C7
:103DC00081451305C405EFC01F80232A0402232C5C
:103DD00004022324040423260404B240228522443E
:103DE00092440249410182801304840649BF9145EF
:103DF0004A85EFF07FE988C02A8459F5EFF09FEDFE
:103E0000B1472320F900D1BF797122D44AD04ECED8
:103E100052CC5AC85EC606D626D256CA2A892E8ADF
:103E2000130485048149054BFD5B0444832A440047
:103E3000FD1A63D00A0200406DF8B2502254925429
:103E40000259624AD24A424BB24B4E85F249456111
:103E5000828083D7C400637BFB008397E400638781
:103E60007701A6854A85029AB3E9A900938484065E
:103E7000C1B78280828082805971A2D42E848395BA
:103E8000E500A6D2CAD086D6B284368963D30502AD
:103E90008357C40093F7070895EB13070040B6500B
:103EA00026542320F90098C00659965401456561AF
:103EB00082803000EF00302EE34C05FC3247BD67B6
:103EC000F98F7977BA9793B71700C1BF8147130766
:103ED0000004F1B783D7C500797122D406D626D263
:103EE0004AD04ECE898B2E8491CF930774041CC088
:103EF0001CC885475CC8B250225492540259F249FA
:103F00004561828074003000AA84EFF0FFF6A24978
:103F10002A892685CE85852201ED8317C40013F7F3
:103F2000072071FBF19B93E727002316F40075BF70
:103F3000970700009387E7D49CD48357C40008C038
:103F400008C893E707082316F400B247232A340170
:103F500091CF8315E4002685EF00702601C98357B1
:103F6000C400F19B93E717002316F4008357C400A5
:103F700033E527012316A400BDBFC5C183A7C5FF34
:103F8000011122CC06CE1384C5FF63D307003E94F3
:103F90002AC6EF0070291387C18A1C43324589EB7A
:103FA0002322040000C36244F24005616F005028E0
:103FB000637DF4001040B306C4006396D7009443B9
:103FC000DC43B29614C05CC0F1BF3E87DC4399C3AA
:103FD000E37DF4FE14433306D700631F86001040D0
:103FE000B29614C33306D700E39FC7FA9043DC436D
:103FF000B29614C35CC345BF6375C400B1471CC10E
:104000005DB71040B306C4006396D7009443DC4309
:10401000B29614C05CC040C379B7828041114AC0D7
:104020001389818A8327090022C426C206C6AA846E
:104030002E8491E78145EF00F0022320A900A2859C
:104040002685EF0030027D59631A25017D54B24068
:1040500022852244924402494101828013043500A2
:104060007198E30685FEB305A4402685EF00807FA6
:10407000E31F25FDE1BF011126CA93843500F198A5
:104080004AC806CE22CC4EC6A104B1472A8963F69F
:10409000F406B14463E5B4064A85EF00F01893894D
:1040A000C18A83A709003E8435E4A6854A85EFF0DE
:1040B000FFF6FD572A846317F50C03A40900A287B5
:1040C000C5EB8329040081454A85A299612F639439
:1040D000A90A1C408D049D8CF198A104B14763F39B
:1040E000F400B144A6854A85EFF05FF3FD57630401
:1040F000F5081C40A6971CC03DA8E3DD04F8B147B5
:104100002320F9000145F2406244D2444249B249B9
:10411000056182801440858E63C906042D47637E45
:10412000D70204C0330794006397870223A0E900F5
:104130005C4014C35CC34A85EF00900F1305B400C4
:104140009307440061993307F540E30EF5FA3A947A
:10415000898F1CC04DBFD8C3E1BF5840639587000D
:1041600023A0E900C9BFD8C3F9B7A28740402DBF3B
:104170003E84DC43B1B7B1472320F9004A85EF0004
:10418000300B49B704C145BF1C46FD171CC663DA96
:104190000700184E63C5E700A9476394F5006FF068
:1041A000AFEF1C422E851387170018C22380B7007B
:1041B0008280011122CC26CA4AC84EC652C406CEFD
:1041C0002A89AE893284B304D6007D5A63149400E0
:1041D000014511A8834504004E864A85EFF0DFFAB9
:1041E0000504E31545FFF2406244D2444249B24916
:1041F000224A05618280357122CD26CB4AC94EC73D
:1042000006CF52C556C35AC1DEDEE2DCE6DAAA8921
:104210002E843289B68409C51C4D99E3EFF0BFACFA
:1042200097170000938747EF631BF40403A449002A
:104230007C50858B89EB8357C40093F7072081E777
:10424000284CEFF03FC38357C400A18B99C31C488F
:10425000B5E3A2854E85EFF02FF029CD7C50858BFC
:10426000A9C37D55FA406A44DA444A49BA492A4A00
:104270009A4A0A4BF65B665CD65C0D6182809717A2
:104280000000938767E76315F40003A489004DB726
:1042900097170000938747E4E31CF4F803A4C900D0
:1042A00041BF8357C40093F70720C5FF284CEFF0A8
:1042B0009FBC45BF93070002A304F10293070003CC
:1042C00002D22305F10226C6930B5002971A000072
:1042D000938A8AE6054C294BCA8483C7040099C394
:1042E000639C7709B38C2441638E2401E6864A8659
:1042F000A2854E85EFF0FFEBFD57630EF518925740
:10430000E6973ED283C7040063870718FD571389D9
:10431000140002C802CE3ECA02CCA309010482D412
:104320008345090015465685DD25C24793041900CB
:1043300031E513F7070109C713070002A309E104D8
:1043400013F7870009C71307B002A309E1048346E6
:1043500009001307A002638BE602F247CA84814674
:10436000254603C7040093851400130707FD6375F2
:10437000E6068DC63ECE1DA0850485B733055541A2
:104380003315AC00C98F3EC8268959BF3247930602
:104390004700184336C6634A07023ACE03C70400F3
:1043A0009307E002631EF70403C714009307A002FB
:1043B000631AF702B2478904138747009C433AC641
:1043C00063D30700FD573ECA25A83307E04093E7B3
:1043D00027003ACE3EC8D9B7B3876703AE84854677
:1043E000BA9741B7850402CA81468147254603C76B
:1043F000040093851400130707FD6374E606E1F6D5
:1044000083C504000D4617150000130565D301256B
:1044100011CD971700009387A7D21D8DC2471307B0
:1044200000043317A700D98F85043EC883C5040054
:104430001946171500001305E5D01389140023044D
:10444000B102F12325CD9307000095E74247B2471B
:104450001377071009CF91073EC69257D2973ED2E5
:10446000A5BDB3876703AE848546BA9749B79D0754
:10447000E19BA107D5B77800970600009386A6D3E5
:1044800022860C084E8597000000E7000000FD57CB
:104490002A8AE314F5FC7C50858B89EB8357C40092
:1044A00093F7072081E7284CEFF0FF9C8357C40067
:1044B00093F70704E39707DA12556DB37800970670
:1044C0000000938646CF22860C084E85112AC1B77C
:1044D000797156CA9C49BA8A984522D44AD04ECEA0
:1044E00052CC06D626D25AC85EC6AA892E843289F4
:1044F000368A63D3E700BA872320F90003473404E0
:1045000001C785072320F9001C4093F7070291C7D4
:104510008327090089072320F9000440998891E83E
:10452000130B9401FD5B5C4403270900998F63CC56
:10453000F40483473404B336F0001C4093F70702B9
:10454000A5EB13063404D2854E85829AFD5763038A
:10455000F5041C4011478144998B6399E70044445A
:10456000832709009D8C63D3040081441C441848B0
:104570006354F700998FBE94014969047D5B639889
:104580002405014509A885465A86D2854E85829A1A
:10459000631E75017D55B250225492540259F2495E
:1045A000624AD24A424BB24B456182808504A5BF24
:1045B0003307D40013060003A301C70403475404C0
:1045C00093871600A2978906A381E7049DBF8546BD
:1045D0002286D2854E85829AE30E65FB050945B792
:1045E000797122D44AD04ECE52CC06D626D256CAA3
:1045F0005AC803C88501930780072A892E84B28987
:10460000368A63E20703930720069386350463E145
:1046100007036301081E93078005171600001306A1
:10462000E6B2630BF814930424042301040515A8CF
:104630009307D8F993F7F70F5546E366F6FE17167A
:104640000000130626B38A07B2979C43B29782876D
:104650001C4393842504938647009C4314C3238101
:10466000F50485474DAA90411C43137506089385B0
:10467000470039C19C430CC3584063D307149305CA
:10468000D002A301B40418C463500704B307F04078
:1046900017160000130686AB2948B68433F70703C4
:1046A000FD143297034707002380E4003E87B3D709
:1046B0000703E37507FF8DA09C43137506040CC325
:1046C00045DDC207C1874DBF6D9A10C0C1B790418B
:1046D0001C43137506089385470001C50CC39C4312
:1046E00039A0137606040CC37DDA83D707001307BD
:1046F000F00617160000130666A56311E80C2148A2
:10470000A3010404584018C4E34907F80C40ED998C
:104710000CC0C1F7B68451F3A147631EF8001C40DA
:10472000858B91CB58401C4863C7E7009307000373
:10473000A38FF4FEFD14858E14C85287CE867000B8
:10474000A2854A85EFF0DFD8FD5A631A550D7D55D5
:10475000B250225492540259F249624AD24A424B10
:10476000456182809C4193E707029CC11308800742
:10477000171600001306C69EA30204050C401C4336
:1047800013F80508138547006305080008C39C4318
:1047900001A813F8050408C3E30B08FE83D707003C
:1047A00013F7150001C793E505020CC099C34148F2
:1047B00081BF18401377F7FD18C0D5BF294889B7C6
:1047C000171600001306869829482DBF90411C43F8
:1047D000CC4913780608138547006306080008C310
:1047E0009C438CC301A808C3137606049C4375DA66
:1047F0002390B70023280400B68481B71C43D0411E
:1048000081459386470014C384432685092419C132
:10481000058D48C05C401CC8A301040439BF14487E
:104820002686CE854A85029AE30355F31C40898B80
:104830008DE7B2474844E35DF5F03E8511BF8546FC
:104840005686CE854A85029AE30365F185045C4469
:104850003247998FE3C5F4FEE9BF8144930A94017E
:104860007D5BF5B7411122C42A842E8523A8018AD5
:1048700006C63524FD576316F50083A7018B91C347
:104880001CC0B240224441018280411122C42E84C6
:104890008395E50006C64D22634905007C48AA972A
:1048A0007CC8B2402244410182808357C4007D7796
:1048B0007D17F98F2316F400EDB783D7C5000111DA
:1048C00022CC26CA4AC84EC606CE93F70710AA8441
:1048D0002E843289B68991C78395E50089460146C1
:1048E00011228357C4007D777D17F98F8315E4006B
:1048F0002316F4006244F240CE864A86B249424909
:104900002685D24405613DA8411122C42E84839599
:10491000E50006C6C1287D578357C400631BE50028
:104920007D777D17F98F2316F400B24022444101B0
:1049300082800567D98F2316F40068C8FDB7839578
:10494000E5003DA0411122C42A842E85B285368619
:1049500023A8018A06C6EFE0FFC5FD576316F500E0
:1049600083A7018B91C31CC0B240224441018280C5
:10497000411122C42A842E8523A8018A06C6D52087
:10498000FD576316F50083A7018B91C31CC0B2408D
:10499000224441018280411122C42A842E85B2859D
:1049A00023A8018A06C6E120FD576316F50083A7F8
:1049B000018B91C31CC0B24022444101828041114D
:1049C00022C42A842E8523A8018A06C67D20FD578D
:1049D0006316F50083A7018B91C31CC0B24022442B
:1049E00041018280411122C42A842E85B2853686F7
:1049F00023A8018A06C64128FD576316F50083A740
:104A0000018B91C31CC0B24022444101828093F5C6
:104A1000F50F2A966314C50001458280834705007F
:104A2000E38DB7FE0505FDB71385C1896FF08FC40F
:104A30001385C1896FF02FC4411122C42A842E85A9
:104A4000B285368623A8018A06C6A120FD576316C3
:104A5000F50083A7018B91C31CC0B24022444101E1
:104A600082809307800523A8F18A7D558280930771
:104A7000800523A8F18A7D5582809307800523A8AD
:104A8000F18A014582809307800523A8F18A7D552C
:104A900082809307800523A8F18A7D558280138741
:104AA000418B1C4389C73E9508C33E85828097C7CA
:104AB000FF1F938727733E9508C33E8582800000C1
:104AC0000A43483536392053442F55415254205516
:104AD0005342332062726964676520282564204D43
:104AE000487A290A0000000055534220696E697413
:104AF00020646F6E65000000920B0000A00B0000A8
:104B0000EC090000D0090000EC090000F80A0000E0
:104B1000F8090000EC090000EC090000020B00009D
:104B2000EC090000D0090000360C0000E80B000082
:104B3000C60B0000480C00009A0C0000AC0C0000F2
:104B40004344433A206C696E6520636F64696E6705
:104B500020256C6420626175640A0000555342335D
:104B60002E302064697361626C65000055534232D7
:104B70002E302066616C6C6261636B20284D53435C
:104B8000206F6E6C79290000050F160002071002D5
:104B9000060000000A1003000E00010000000000E3
:104BA00012034D0053004600540031003000300025
:104BB000010000002A03530044002000550041007A
:104BC0005200540020004200720069006400670037
:104BD0006500200055005300420033002000000013
:104BE0000902D400050100806409040000020806DF
:104BF0005000070582020004000630000000000794
:104C0000050302000400063000000000080B01024A
:104C10000202010009040100010202010005240052
:104C200010010524010002042402020524060102E9
:104C3000070581030004080630000000040904028F
:104C400000020A000000070584020004000630008C
:104C50000000000705040200040006300000000008
:104C6000080B030202020100090403000102020111
:104C7000000524001001052401000404240202059B
:104C8000240603040705850300040806300000001D
:104C90000409040400020A0000000705860200045B
:104CA0000006300000000007050602000400063080
:104CB0000000000012010003EF020109861A2CFE19
:104CC0000100010203010000E0160000E6150000EB
:104CD0008814000060160000881400009015000081
:104CE0006E140000881400009A150000A61500003C
:104CF000FE140000FE140000050F1600020710024B
:104D0000020000000A1003000E00010AFF07000065
:104D1000260357004300480020005500530042007E
:104D200032002E00300020004400450056004900AB
:104D3000430045002000000009022000010100C0DE
:104D40003209040000020806500007058202000232
:104D500000070503020002001201000200000040EB
:104D6000861A2CFE00110102000100005244206C42
:104D700062613D256C642073743D2530386C780A7F
:104D80000000000052442072656164792D74696DE1
:104D9000656F7574000000005244206661696C20E4
:104DA00066673D25303478206572723D2530347851
:104DB00020673D256C640A005244206F6B206667B3
:104DC0003D253034782062303D25303278207369BB
:104DD000673D25303278253032780A00961D000074
:104DE0008A1D00008A1D00008A1D00008A1D000027
:104DF0008A1D00008A1D00008A1D00009A1E000006
:104E0000B61D00008A1D00008A1D0000B61D0000AE
:104E10008A1D00008A1D00008A1D00008A1D0000F6
:104E2000C01D00008A1D0000261E00008A1D000013
:104E30008A1D0000901E00008A1D0000901E0000C8
:104E40008A1D00008A1D00008A1D0000901E0000BF
:104E5000B61D000052445445535420723D25642031
:104E60006572723D25303478202062303D25303225
:104E7000782062313D2530327820207369673D25E6
:104E800030327820253032780A000000000E000011
:104E9000000000080000003F000002000B000008B6
:104EA0000000003F00000200000000080000004079
:104EB00002000200232323413431207374613D2515
:104EC0006420727370333D2530386C782323230DB2
:104ED0000A00000020737570706F7274206C6F7719
:104EE00020766F6C2E2E0A200000000053443A20DA
:104EF000656E746572206D6F756E74206D6F64657C
:104F00003D25640A0000000053443A20434D4430DC
:104F10000000000053443A20434D44380000000094
:104F200053443A2041434D443431000053443A2025
:104F3000696E6974204F4B2028696F206D6F64651E
:104F4000202564292C20747970652025642C202567
:104F50006C6420736563746F72730A0053443A2063
:104F6000696E6974206661696C656420696E206190
:104F70006C6C20494F206D6F6465730075617274AD
:104F800032206C696E65206572726F723A25780AFC
:104F9000000000004F574E3A2072656C65617369DE
:104FA0006E67205344206361726420285042313080
:104FB000206C6F77290000004F574E3A20636C61D8
:104FC000696D696E672053442063617264202850C4
:104FD0004231302068696768290000004F574E3A17
:104FE0002050423130207365742C20736574746CCA
:104FF000696E67004F574E3A20736574746C656430
:105000002C206D6F756E74696E6700004F574E3AB5
:10501000205344206D6F756E7420617474656D70DB
:1050200074202564206661696C65640A00000000D4
:105030004F574E3A20534420696E69742066616967
:105040006C65642C2072656C656173696E672050B5
:10505000423130004F574E3A2063617264207265CE
:105060006164792C20256C6420736563746F72739E
:105070002028256C64204D42290A000026330000B8
:10508000423300005C3300007E33000090330000A8
:10509000A8330000C0330000E0330000F23300000A
:1050A000063400001A340000383400005434000084
:1050B0006E34000090340000A2340000BA340000C6
:1050C000D2340000F234000004350000183500002E
:1050D0002C3500000000000000000000000000006F
:1050E00000000000000000000000000000000000C0
:1050F00000000000000000000000000000000000B0
:10510000000000000000000000000000000000009F
:10511000000000000000000000000000000000008F
:10512000000000000000000000000000000000007F
:1051300000000000232D302B20000000686C4C0084
:1051400065666745464700003031323334353637BF
:105150003839414243444546000000003031323383
:1051600034353637383961626364656600000000A3
:10517000E0F4FFFFF6F4FFFFB6F4FFFFB6F4FFFF25
:10518000B6F4FFFFB6F4FFFFF6F4FFFFB6F4FFFF3F
:10519000B6F4FFFFB6F4FFFFB6F4FFFF5CF6FFFFC7
:1051A0005EF5FFFFF4F5FFFFB6F4FFFFB6F4FFFF77
:1051B0008CF6FFFFB6F4FFFF5EF5FFFFB6F4FFFFCE
:0851C000B6F4FFFFFCF5FFFF50
:1051C8001603300031003200330034003500360059
:1051D8003700380039000000008002021F0000007C
:1051E800454D4D4320202020555342332E3020205A
:1051F800202020204469736B205743481612000072
:1052080018120000381200003A1200005C12000068
:105218005E1200008012000082120000841200005A
:1052280086120000F0120000261300002813000068
:105238006A1300000000000014510000F450000040
:10524800D450000000000000000000000000000032
:105258000000000000000000000000000000000046
:105268000000000000000000000000000000000036
:105278000000000000000000000000000000000026
:105288000000000000000000000000000000000016
:1052980000000000000000000002000200C201003F
:1052A800000008007400002008035700430048006D
:1052B80004030904080357004300480004030904D1
:0C52C8000000003F000002007400002005
:00000001FF
