:040000006F3080726B
:1000040000000000000000006F30A0716F306071CC
:1000140011BFF9F70000000000000000000000001C
:1000240000000000000000000000000000000000CC
:100034006F30206F000000006F30A06E00000000E1
:100044006F30206E6F00905F6F30A06D6F30606D09
:100054006F00105A6F00106C6F30A06C6F2010315D
:100064006F30206C6F1040766F20E0346F30606B1F
:100074006F30206B6F30E06A6F30A06A6F20904D54
:100084006F30206A6F30E0696F30A0696F3060694B
:100094006F30206900000000000000000000000034
:1000A400000000000000000000000000000000004C
:0C00B40000000000000000000000000040
:1000C000B7870040194798D38280B787004013074D
:1000D000001498C34947D8C337574C00130717B4C7
:1000E000944B918ABDE623AE070623AC070623A6F0
:1000F000070823A4070823AE070823AC070823A694
:10010000070A23A4070A23AE070A23AC070A23A67B
:10011000070C23A4070C23AE070C23AC070C23A663
:10012000070E23A4070E4D47D8D337070300130744
:10013000170298D323A807069843014513672700A1
:1001400098C337C710001307D7C798C70947D8C344
:1001500082807D1751F70545828013051002828049
:1001600093178501E1879376750063DF0700B70772
:100170000001B397D70099C937860040345AD58F0C
:100180003CDA238CA1888280C167E5B7B78600403E
:10019000B05A93C7F7FFF18FBCDA238C01888280B5
:1001A000B787004088DF828001CD378700401C532D
:1001B00037060800D18F1CD38547A38BF188828036
:1001C000378600401C523707F8FF7D17F98F1CD285
:1001D000A38B01888280B787004093878707120529
:1001E0003E951C4113D707012310F6007D8BF18348
:1001F0002380E5009D8B2380F6008280B787004036
:100200009387870712053E951C414206EA054D8EED
:100210005D8E10C18280B7870040938787071205E3
:100220003E951C413707E003F98F1CC18280B787D8
:1002300000409387870712053E951C4186078583FA
:100240001CC18280B78700409387870712053E95BF
:1002500008416181137505088280378800401308C2
:10026000C80712054295D6073708E003B3F7070120
:10027000F205CD8F6A06D18FC206D58F1377F77F2F
:10028000D98F1CC18280B78700409387C7071205AA
:100290003E956A06F2051C414D8EC206558E1377B7
:1002A000F77F598E5D8E10C18280B787004093879B
:1002B000C70712053E951C41860785831CC18280B5
:1002C000B78700409387C70712053E951C41370743
:1002D000E003F98F1CC18280B78700409387C7076E
:1002E00012053E950841618113750508828083C718
:1002F0008189A98F9D8B99E7B78700408857218115
:100300007D898280B787004012059387C7073E9595
:1003100008414181F5B703C705009377F5006205F1
:10032000B706E00356076185758F9207B7860040D0
:10033000635705009386C607B69798C38280938655
:100340008607DDBF9377F50062058A079A05618508
:10035000DD8D6358050093E53500B7870040ECC399
:10036000828093E51500D5BF378700401C53620596
:10037000A207A1831CD31C535D8D08D382803787CD
:1003800000405C43F19B5D8D48C31C4B918BF5FF96
:100390008280B7870040885361818280B7470320FD
:1003A00003C7070493760706C1E29387070483C651
:1003B00017000D466389C60213061003638CC6043A
:1003C00005466393C6067D8B8946631FD7040111DA
:1003D00006CE03C547009305F100A3070100253FA2
:1003E000F2400561828083C72700130700036399E9
:1003F000E700378700401C43C166D58F1CC382804D
:10040000130710036392E702378700401C43B706C7
:100410000200E5B703C7370083C727002207BA9752
:10042000378700401CDF82808280378700405C5322
:10043000411122C406C613F4F70FA18B89CBA14743
:100440005CD383C7718981C7085BEF0030729377F3
:10045000140063890712378400405C505450A18314
:10046000B1829D8B858A63920710B1CEEF00900810
:1004700083C66189850693F6F60F238BD18883C6E0
:100480006189FD8A238BD18819E9238B0188B707FD
:1004900001043CDC232E040693071004B1A0232C96
:1004A00004067C5CB70620EC03C76189938606C00E
:1004B000F58FC98F5607D98F37050114C98F7CDC9A
:1004C0009307300415A03C5C13971700635307048F
:1004D000232C0406E1355D21C167FD17631FF5007C
:1004E000B70700187CDC8D477CC0B7870040054704
:1004F000D8D3B240224441018280B707010439C9F0
:1005000093070020E3E3A7FEB70701145D8D68DCC5
:1005100045BF3C5C1397270063590700EF00500C60
:10052000232E0406232C0406C9B7EF00500303C78B
:10053000518905071377F70FA38AE18803C751890B
:100540007D8BA38AE18809C983C7518937070104D4
:10055000D607D98F3CDC89B73707010438DC13078D
:10056000100478C0A38A018849B7FD173707002017
:100570001307C7038A07BA9781C69C438297B5B70A
:10058000DC4FEDBF098835D4B7870040B84F9306DC
:10059000000A1377071E6319D7001307002CB8C78A
:1005A00023A6070423A80704B7870040094789B793
:1005B0002A8309CA83830500230073007D1605037F
:1005C00085056DFA82802A8311C62300B3007D164B
:1005D000050365FE8280B717004089C5F857598D1D
:1005E000E8D78280B857498FB8D78280B7E7F5053A
:1005F00093870710B3D7A7023737004085462307F4
:10060000D74029479507B3D7E7023737004023166D
:10061000F740BA87130770FC2381E7400D47A38199
:10062000E74013070004A380E740B7170040F84FE6
:1006300013670718F8CFB7170040B84313670710C0
:10064000B8C3828037B5C40441111305054006C6FE
:1006500022C426C24AC0EF20B02837B5C40413050F
:100660000540EF203074716513050520413715658D
:1006700093050005130585B3EF308014EF20901F1C
:1006800095453705C001EF20F059B7170040B8571E
:10069000B70640007165558FB8D7B857B7068000C8
:1006A00013050520558FB8D7B857B7060001054484
:1006B000558FB8D7EF20E03FEF20404883C75187E0
:1006C0003755FE031305056C93F7E70FA38AF186F0
:1006D000B797004023A0070037071000B7E700E0F6
:1006E00023A0E7103707200023A0E71037070200F8
:1006F00023A0E710B727004023818700EF20B076C2
:10070000228535221565130505B6EF30E01F094532
:10071000EF20B018EF10B043EF208048EF205018C2
:10072000EF20807B83C51189370540006D3583C577
:10073000018937058000453583C5018437050001EF
:10074000F11593B51500413DF1B7B7E700E041471A
:10075000B443B8C305473317A7001386071818C258
:10076000B4C38280411106C68D321D67B787004031
:1007700013079775B8DB3747032013070704F8DB27
:10078000370702209387070813070700B7A6022040
:1007900098C393860604D4CBB7060220938606043A
:1007A000D4D3B7560320938606C494DBB7560320F0
:1007B00093860684D4DBB8C3375703201307074456
:1007C000B8CB3757032013070704F8CB05468545F8
:1007D0000D452D340147854601468545094565345B
:1007E00001478146014681450545713C01478546E3
:1007F000014685451145413C054685451145FD3A73
:100800000547238FE186814601470146814515450D
:100810009D3C01478546014685451945AD34054651
:1008200085451945E13AB24041016F20006A11C186
:1008300015BF4111094506C69936B7870040130711
:10084000800298C34D47D8C3B24023A4070019477C
:1008500098D34101828037450320130705040356CE
:100860006700411106C623AEC18283471700834645
:100870000700A38CF18293F6060613080004130602
:100880000504639D060593060005638CD7001307D6
:1008900010056387E702FD574165A38CF1827D1542
:1008A00029A883472700054591C705470945638364
:1008B000E7000D45EF20607E0145B2404101828096
:1008C00083C7118903C70189B337F0003337E000CC
:1008D0000607D98F2300F6000545C5B79306200209
:1008E0006386D70863EBF602930600026381D7069E
:1008F00093061002E391D7FA83474700054793F721
:10090000D70FE39AE7F8B70500201D469385C50D7C
:100910001305050471391D454DB79306E00F638437
:10092000D7029306F00FE398D7F683474700A5F761
:1009300023850186A384018623840186238A018678
:1009400023A2018695BF83474600C9D7A9B783472D
:100950004700054793F6D70FE39FE6F20546854526
:100960000145238CF182EFF07F89B9B783474700B7
:10097000054793F7D70FE390E7F23DBF01113745E5
:10098000032026CA9306050406CE22CC4AC84EC6CA
:1009900052C403C7160083D7660003C60600A38CA3
:1009A000E18223AEF1821376060609CA6244F24060
:1009B000D2444249B249224A056171BD2D4663695C
:1009C000E60015660A07130606B732971843028732
:1009D00093070003631CF7000149F2406244D244CC
:1009E000B249224A4A854249056182809307100331
:1009F0006308F710FD574169A38CF1827D19F1BF9F
:100A000003C736000D466302C7086362E6028546E7
:100A1000630BD7028946E31FD7FC1307400D6374AD
:100A2000F70023AEE1821564130484C52DA0BD46F2
:100A3000E312D7FC59476374F70023AEE1821564D3
:100A4000130404C009A849476374F70023AEE18288
:100A500015641304C4D203AAC18393070020D2896A
:100A600063F4470193090020A2854E86130505040F
:100A7000813613990901330A3A414E9413590901F9
:100A800023AE418323AA818289BF83C626000946FB
:100A90006384C604636BD60085EA11476374F7006C
:100AA00023AEE182138481817DB76381E60413075D
:100AB000E00EE391E6F449476374F70023AEE18268
:100AC0001564130484C141BF21476374F70023AE4A
:100AD000E1821384018141B71307A0026374F70018
:100AE00023AEE18215641304C4C2B5B759476374D9
:100AF000F70023AEE1823704002013040400A1BFF5
:100B000083C7260023AEF182C1BD054685450D454C
:100B1000EFF0CFEE01478546014685450945EFF0E8
:100B20008FF601478146014681450545EFF0AFF557
:100B300001478546014685451145EFF0CFF4B7578B
:100B400003209387078437840040232AF40A05464C
:100B500085451145EFF08FEAEF20A01D0547238F53
:100B6000E18681460147014681451545EFF0AFF129
:100B700001478546014685451945EFF0CFF0B75747
:100B8000032093870704232AF40C0546854519455D
:100B9000EFF0CFE6EF20603381B585472310F504F1
:100BA00023AE0182094915BD83C7460013076008BB
:100BB000636FF70013070008636EF7001147638641
:100BC000E70A19476385E7100D476385E704C167A6
:100BD000FD170DBF9387F70793F7F70F1547E368E6
:100BE000F7FE15678A07130707BABA979C438287EF
:100BF0000945EFF0EFEC83C74187918B81C7EF1078
:100C0000403CD9BB01478546014685450945EFF083
:100C10008FE7D9B30D45EFF00FE0B70702209387B8
:100C200007043787004085450D452322F70A05460E
:100C3000EFF0CFDC85450D45EFF0CFF071BB0545FA
:100C4000EFF00FE801478146014681450545C1B7F0
:100C50001145EFF0EFE60147854601468545114510
:100C6000EFF06FE2A38F018685BB1145EFF0AFDA9D
:100C7000B75703209387078437870040232AF70A52
:100C8000054685451145EFF06FD785451145EFF0D5
:100C90006FEB23910188239001880547238FE1861C
:100CA00025BB1545EFF0CFE101478146014681455F
:100CB0001545B1BF1945EFF0AFE001478546014644
:100CC00085451945EFF02FDC2387018831B319459D
:100CD000EFF06FD4B757032093870704378700409E
:100CE00085451945232AF70C0546EFF02FD1854598
:100CF000194599B703C7918301114EC606CE22CC80
:100D000026CA4AC852C456C299478149631FF7028E
:100D100083A4C18393070020268463F497001304FF
:100D2000002003A941833745032093190401CA8594
:100D3000228613050504818C2299EFF07F8793D9D1
:100D4000090123AE918223AA2183F2406244D24456
:100D50004249224A924A4E85B2490561828003C7C0
:100D6000918393070002631BF70603C781838547BE
:100D70006316F70637470320832507040111B707D9
:100D8000002006CE9387C70D93D68500A380D70099
:100D900093D605012381D7001307070493D6850155
:100DA000A381D700834647002E852380B700238286
:100DB000D70083465700034767002EC6A382D7009B
:100DC0002383E700EF10F04EB2451565130585BB90
:100DD000EF20101FF24001450561828001458280AD
:100DE00003C7918395476316F70003A5C1836FF08E
:100DF000AFD78280397106DE16DC1ADA1ED82AD601
:100E00002ED432D236D03ACE3ECC42CA46C872C672
:100E100076C47AC27EC0EFF04FE1F250E2525253F4
:100E2000C2533255A255125682567247E247524873
:100E3000C248324EA24E124F824F216173002030C1
:100E40005D7122DE3AD43ED23727004086C696C472
:100E50009AC29EC02ADC2EDA32D836D642D046CE8E
:100E600072CC76CA7AC87EC685472303F70003C7CB
:100E700001846316F704514523800184EFF0FF8C51
:100E80005545EFF09F8C0145EFF07F9A15651305EE
:100E900045BDEF2070277254B640A64216438643E4
:100EA0006255D2554256B256225792570258F248CE
:100EB000624ED24E424FB24F61617300203003C781
:100EC00001849147630CF7025145EFF01F885545A7
:100ED000EFF0BF870145EFF09F95B797004023A043
:100EE000070037070002B7E700E0054523A0E71039
:100EF000E5211565130545BEEF20102185472380A8
:100F0000F18437240040230104004545EFF0FF83BE
:100F100089472300F40041B75D7122DE3784004029
:100F20003ED05C4426DC856486C696C49AC29EC0C8
:100F30002ADA2ED832D636D43AD242CE46CC72CA2B
:100F400076C87AC67EC4E58F81CB9307201C1CC06F
:100F50000145EFF0CFC244C4B7870040D847058BA6
:100F600039C30547D8C703C7118401CF1307002829
:100F7000B8C7370702001107F8C723A80704A380E2
:100F80000184114745452380E184EFF00FFCB7272A
:100F9000004009472380E700654523810700EFF003
:100FA000CFFA01451529378400405C44918BB9C3C1
:100FB0002380018437071000B7E700E023A0E71083
:100FC0003707200023A0E7103707020023A0E7100F
:100FD0003755FE03B727004005472381E700130577
:100FE000056CEF204068EFF0EFF791475CC40945CE
:100FF000EFF0EFB8378700405C47A18B95CFA14752
:101000005CC7014505472380E184EFF05F825145CD
:10101000EFF0AFF3B727004009472380E7002381B3
:1010200007004545EFF06FF2B7E700E03707000231
:1010300023A0E71005454D26378700405C47B706DB
:101040001000F58F89C754C70945EFF04FB33784B7
:1010500000405C4493F7074099CF930700405CC47D
:101060001C48858B6387071A0945EFF04FB15C4038
:101070000567D98F5CC0B7860040D84685679387DF
:1010800007807D8F01CB0546A380C184DCC6014566
:10109000EFF0EFAE378400405C440967F98F85CBF1
:1010A00058C40945EFF0AFAD5C4093E707105CC052
:1010B000B7870040984B098B75FFD84309451377D4
:1010C000F7EFD8C3EF2020500145EFF0EFA93784A8
:1010D00000405C442167F98F6386070C1C50B706FB
:1010E00000800146D58F1CD058C4814601478145F8
:1010F0000545232E0406EFF00F990147814601466E
:1011000081450945EFF02F98014781460146814509
:101110000D45EFF04F970147814601468145114546
:10112000EFF06F9601478146014681451545EFF086
:101130008F9501478146014681451945EFF0AF94EF
:1011400001478146014681451D45EFF0CF93014699
:1011500081450545EFF08F8A014681450945EFF04D
:10116000EF89014681450D45EFF04F8901468145E4
:101170001145EFF0AF88014681451545EFF00F8826
:10118000014681451945EFF06F87014681451D45B0
:10119000EFF0CF860145EFF02F9D5C4041777D1742
:1011A000F98F5CC0378400405C4493F7070499C70B
:1011B0000545EFF0CF9C930700045CC437840040E2
:1011C0005C4493F7070299C70945EFF04F9B9307DB
:1011D00000025CC4378400405C44C18B91C7094560
:1011E000EFF0EF99C1475CC47254B640A642164373
:1011F0008643E2545255C2553256A2561257825770
:101200007248E248524EC24E324FA24F61617300A3
:101210002030232404000945EF20E03AA9BD828054
:101220004111094506C6EFF0AF89014781460146E5
:1012300085450945EFF02F85B24041016F00B0634D
:1012400082804111114506C6EFF08F870147814624
:10125000014685451145EFF00F83B240A38F01860B
:101260004101828082804111194506C6EFF04F8509
:1012700001478146014685451945EFF0CF80B240D0
:1012800023870188410182808280828082800111CF
:1012900081461306E1009305D1000D4506CE22CC10
:1012A000EFE07FF30D45EFE01FF737040220B7872B
:1012B00000401307040423A2E70A014681450D45B7
:1012C000EFE0DFF38355E10013050404EF00505D08
:1012D00083C7D18591EB85450D450546EFE01FF2AB
:1012E00085450D45EFF00F86F2406244056182802E
:1012F00001119306D1001306E1006C00114506CEE2
:10130000EFE07FED0357E10011452391E188EFE025
:101310009FF0014681451145EFE05FEEF240238FDB
:10132000018605618280828001119306D100130637
:10133000E1006C00194506CEEFE0FFE91945EFE04A
:101340009FEDB75703209387070437870040232A70
:10135000F70C054685451945EFE05FEA85451945D7
:10136000EFE05FFEF2400561828082808280B79765
:101370000040130740F8A388E700130700042398F0
:10138000E7043E8793070020231CF704231EF7047D
:10139000BA863747032013070704D8CA37A70220A5
:1013A0001307070498DE370702201307070498D2B3
:1013B00023980606368789462309D706A309070618
:1013C000231CF706BA8713072002238DE7061307AD
:1013D0000002A38FE7068280B797004001CD2380EB
:1013E0000700130790032380E7001307700223818F
:1013F000E700B5BF19472380E700828083C7818457
:101400009306E00F13F7F70F6389D7009307F00FE8
:10141000630BF70041657D158280B7470320238069
:1014200007040545828023850186A38401862384E1
:101430000186238A018623A201860145828001114B
:1014400022CC2399018483C681843746032006CEAB
:1014500026CA13050604AD450347050063E8D50217
:1014600093F7F60F95668A07938606D4B6979C4342
:101470008287834735008D466381D70663EAF6008D
:1014800085466383D7028946638FD702FD570DA82F
:10149000BD46E39DD7FE9567938707D723A2F184C6
:1014A00003D64185D94709A89567938707DD23A20D
:1014B000F18403D64185C94763E4C70083D74185DA
:1014C0002399F1842DA89567938707DB23A2F184E4
:1014D00003D6418593070002C5B703462500894618
:1014E000630AD60863EBC60035EE9387418223A2D8
:1014F000F18403D641859147C1B7E319F6F883D645
:101500002185C167FD1701466388F60483D72185CD
:10151000139607014182A9C383D621859307F0035F
:101520001306000463E6D70003D6218542064182F4
:1015300062076187635D070083A5418432C62EC4BC
:10154000EFF00F87A2453246B29523A2B18483D72C
:101550002185918F2399F184F2406244D2443285EF
:10156000056182809387C18123A2F18403D64185DE
:10157000A14799B79567938787D823A2F18403D6AB
:101580004185930760020DBF83462500A386D18461
:10159000BDB783C7E1842300F500854715B7B7972A
:1015A000004083C68700A1078D8A8DE2B70700201F
:1015B00093060004239CD70C834625009387C1849F
:1015C0002381D70085462382D70015BF83C7070034
:1015D00089468D8BE392D7FEB7070020A146D9BF7D
:1015E0009377F7018946639BD7048346450013062A
:1015F00010086389C602636CD6000546638BC60279
:10160000E396F6E8B7970040238D0706CDBD130695
:101610002008E39DC6E6B7960040239C0606238D6E
:10162000F606F1BDB7960040239A0606238BF60610
:10163000F9B5B7970040A38B0706D1B5E39807E447
:10164000834625008547E39CF6EA9387C18483C6D9
:101650003700F99AA381D7005DB59376F701E38748
:1016600006E28947E394F6E283472500E39007E228
:101670008347450013061008638FC7026360F602B4
:1016800005466383C704E393D7E0B797004083C65A
:10169000B70793E63600A38DD70695B593062008C5
:1016A000E396D7DEB797004083C6A70793E63600D8
:1016B000238DD706A9B5B797004083C6670793E681
:1016C0003600238BD70625BDB797004083C6770722
:1016D00093E63600A38BD7061DB58347450023103C
:1016E000060409462399C18493061008639ED70017
:1016F000B797004083C767078D468D8BE391D7E08E
:1017000085472300F5006DBB8546639BD700B796E0
:10171000004083C676070D468D8AE392C6DED5B7B4
:1017200093052008639FB700B797004083C7A707BA
:101730008D8B0D46E395C7DC2300D5002399D1841A
:101740007DBBE39EC7DAB797004083C7B707CDB725
:1017500083C7818495466384D70613F7F70F9947AB
:101760006305F700014632858280011122CC03D740
:10177000218506CE26CA9307F0031306000463E60C
:10178000E70003D621854206418283A5418437457F
:1017900003201305050432C62EC4EFE07FE1324674
:1017A00083D72185A245F240918F2399F184624429
:1017B000B29523A2B1843285D2440561828003C7E9
:1017C000D184B7970040A381E70069BF5D7122DE35
:1017D000379400403AD486C696C49AC29EC02ADC8A
:1017E0002EDA32D836D63ED242D046CE72CC76CA27
:1017F0007AC87EC68347A400290413F7070241CFA5
:10180000B74703209387070403C7070003C61700E1
:10181000A384E1842384C18483D6670013770706F9
:10182000239AD18435C3EFF07FBDC166379700405E
:10183000B7970040FD16130707079387270763181C
:10184000D504231007000D472380E700B797004019
:10185000A389E706B7970040130700022385E70036
:101860007254B640A642164386436255D25542563C
:10187000B256225792570258F248624ED24E424F09
:10188000B24F616173002030EFF07FBB79BF23104E
:10189000A700214755BF13F7270063010714B79727
:1018A000004003C7B700AD0783C707003D8B8946DB
:1018B00091838D8B630DD70A0D46630EC70C15E31C
:1018C0006396D7047135B79700409387070711EDEA
:1018D00037970040A146A309D706239007002309A4
:1018E0000706B7970040094795BF2390A700B79711
:1018F000004003C72707134787002389E70603C76C
:1019000027071377C70F2389E706E1BFF9FBB797CE
:10191000004003D6C70083D62185B107637CD60279
:1019200083D7070083D62185B387F6402399F184B6
:1019300083D721859DC3B797004003C73707134757
:101940008700A389E70603C737071377C70FA38963
:10195000E70641BF83D72185F1B7B79700402398A9
:10196000070621472389E706A38907069DBFE39A57
:10197000E7F6B7A7022037970040938707041CDFDC
:101980008347A70793F7C70F93E72700230DF706B1
:10199000EF00606EB9B7B1F737050220B797004086
:1019A0001305050488D33E8483C7F7071304F4079F
:1019B00093F7C70F93E727002300F400B797004081
:1019C00083D5C700EF00C06D83C7D18599FB8347DE
:1019D000040093F7C70F2300F40021B713F7170093
:1019E00021CFEFF0DF98B7970040A381070085472C
:1019F0002300F40003C701841374F70FE312F7E622
:101A0000B7E700E03707100023A0E71037072000F2
:101A100023A0E7103707020023A0E7103755FE0385
:101A2000B7270040238187001305056CEF10B043F2
:101A30002285EFE0DFDF2DB5918BE38307E291474D
:101A40002300F40031BD411122C483C7418706C67B
:101A5000858B85C703C701848547631BF7043797C8
:101A600000408347A70793E73700230DF70683C796
:101A7000418793F7E70F238AF18683C74187898BD4
:101A800085C703C701848547631CF7023797004069
:101A90008347F70793E73700A30FF70683C741870C
:101AA00093F7D70F238AF186B24022444101828006
:101AB00001478146094685450945EFE0CFFC45BF12
:101AC000014689450D45EFE06FF3C9BF9387818BD0
:101AD00083C61701E20623A0D18683C6270103A689
:101AE0000186C206B29623A0D18683C6370103A61B
:101AF0000186A206B29623A0D18603A6018683C6DC
:101B00004701B29623A0D18683C6670183C77701B8
:101B1000A20623A2D18683A64186B69723A2F18688
:101B200083A74186A60723A2F186239F01842385EC
:101B30000186A384018623840186828083C6818BEB
:101B4000130750059387818B639EE63883C6170081
:101B5000130730056398E63883C62700130720046F
:101B60006392E63883C6370013073004639CE63679
:101B700083C647002386D18683C657001387C18654
:101B8000A300D70083C667002301D70083C6770070
:101B9000A301D70003C7B700620723A2E18603C7EA
:101BA000A70003A641864207329723A2E18603C716
:101BB000970003A641862207329723A2E18603A657
:101BC000418603C78700329723A2E18603A7418697
:101BD00019CB0387C7006359070403C741871367FD
:101BE0001700238AE18603C7418703C6F7001367FE
:101BF0004700238AE18683C8618713F7F80F638A59
:101C0000080249476308E60A0D476300E6041947DE
:101C1000238B01862385E18613078002A384E18656
:101C200005472384E18645AC03C741871367270036
:101C30004DBF1308F0026365C80645486365C804D4
:101C4000630606260D476311E60613070007239C6B
:101C5000E18A03C7A186A381070023A4070023818B
:101C6000E7003707000AD8C303C79186A386070099
:101C7000239707002386E7002398070023ACF1840D
:101C800023840186828039161376F60F7545636DBD
:101C9000C50015650A06130545DE2A961042028620
:101CA0001305A005630AA61815472385E1861307C7
:101CB0000002ADB703A741869307400263F4E70033
:101CC00023A2F186B70700209387870123800700AE
:101CD00023ACF18423850186A384018655B703C60E
:101CE0005187058A630E061283A5418631466374C7
:101CF000B60023A2C1861566130686E783A5418632
:101D00006366B70283A60187E1822382D70083A698
:101D10000187C182A382D70083A6018703A7018719
:101D2000A1822383D700A383E7005DB73305E600D4
:101D300003450500B385E70005072380A500137759
:101D4000F70F6DBF03C65187058A79CA83A54186FF
:101D500021466374B60023A2C1861386818283A5BF
:101D60004186636AB70203A701877D1761832380D9
:101D7000E70003A701877D174183A380E70003A73E
:101D800001877D1721832381E70003A701877D1742
:101D9000A381E70035BF3305E60003450500B385A1
:101DA000E70005072380A5001377F70F4DBF83C712
:101DB0005187858BB5C719BB03C65187058A2DC2CC
:101DC00083A5418631466374B60023A2C186156699
:101DD0001306C6E683A541866368B70283A601871A
:101DE000E1822382D70083A60187C182A382D70024
:101DF00083A6018703A70187A1822383D700A3833A
:101E0000E70023ACF18482803305E600034505003A
:101E1000B385E70005072380A5001377F70F5DBFA3
:101E200009472385E1861307A003A384E1860547BC
:101E30002384E1866FF03FC183C517011306F003C9
:101E40006390C50683A5418641466374B60023A20C
:101E5000C18615661306C6E583A541866366B7028B
:101E600083A60187E1822384D70083A60187C182EC
:101E7000A384D70083A6018703A70187A1822385B6
:101E8000D700A385E700B5BF3305E600034505008D
:101E9000B385E70005072380A5001377F70F6DBF13
:101EA00015472385E1861307000241B783C7518791
:101EB000858B81CB23850186A384018623840186BB
:101EC000828089472385F1869307A003A384F18646
:101ED00085472384F18683C7418793E71700238AC8
:101EE000F18689BF15472385E18613070002A38485
:101EF000E18609472384E18683C7418793E717007A
:101F0000238AF18683C7418793E72700C9BF370734
:101F100000200356A70D83A64186411106C622C4A0
:101F200026C2637FD6040356A70D8356A70D03A7C9
:101F3000418642064182158F23A2E18603C70184B0
:101F400037A5022083A581851314060185479304D4
:101F50000504418013050504631FF702EFE04FE518
:101F6000B7970040239C870684DF03C7A707137732
:101F7000C70F238DE706B24022449244410182807C
:101F800003A6418623A2018683C7418793F7E70F03
:101F9000238AF18665B7EFE0AFE1B787004023AA57
:101FA000970822878545094585460546EFE0AFAD90
:101FB0002244B240924485451305200841016FE058
:101FC0006FB8238A018683C6C186B7574253411131
:101FD0009387573522C406C61387C18623ACF18A7E
:101FE0009387818B2382D7008346170023A40700A1
:101FF00037A50220A382D700834627000347370076
:10200000130405042383D700A383E70003C7818655
:1020100035469385818B2386E70003C70184854776
:10202000130505046314F702EFE08FD8B79700405B
:102030003547239CE70680DF03C7A7071377C70F41
:10204000238DE706B240224441018280EFE04FD663
:10205000B787004023AA8708854509453547854647
:102060000546EFE04FA22244B24085451305200803
:1020700041016FE02FAD83C74187858B81CF03C7B7
:10208000718C930780026316F7000547238EE18465
:102090008280B5BD83C74187918B91C31DB7828074
:1020A000411126C283C7418706C622C4898B99CBBA
:1020B000239CB1860547A38EE184B240224492441A
:1020C00041018280FD47E39AF5FE81471384818BAD
:1020D0007D47B306F50003C60600B3868700850773
:1020E0002380C600E397E7FEEFF05FA583C7418733
:1020F000898BE1F783C74187858B85C30347F4004C
:10210000930780026316F7000547238EE18475B7B5
:102110002244B24092444101DDBB83C78186D1FF96
:102120002244B2409244410169BD797126D283A70D
:10213000418606D622D44AD04ECE52CC56CA5AC870
:102140005EC662C466C285E783C7418793F7E70F1F
:10215000238AF186B250225492540259F249624ABB
:10216000D24A424BB24B224C924C4561828003A72B
:1021700041869307F01F1304002063E4E70003A4E3
:10218000418613599400B7A90220131C0901938AB0
:102190000904135C0C0193890904014A854B9317C8
:1021A0000A01C18363EC870583A70186420913599D
:1021B00009013E9923A0218783A74186818F23A20D
:1021C000F18683A7418699E783C7418793F7E70F95
:1021D000238AF18603C70184420485474180631145
:1021E000F706B7970040239C870623AC570303C725
:1021F000A7071377C70F238DE706A9BF03A601869C
:10220000CE851385818D52965129050A938909201F
:10221000E30775F911472385E1864547A384E186E5
:102220002254B25092540259F249624AD24A424B65
:10223000224C924C23847187B24B45616FF0BF8072
:102240000945EFE0EF87B787004023AA57092287A7
:102250008545094585460546EFE0EF822254B25098
:1022600092540259F249624AD24A424BB24B224C32
:10227000924C85451305200845616FE0AF8C011134
:1022800022CC03D4818726CA52C4B7040220131A71
:1022900004014AC84EC656C25AC006CE135A0A0195
:1022A0002580938404040149054B93170901C183D8
:1022B00063E6870483A7018601473E9423A08186B5
:1022C00083A6418663E6460103A74186330747415B
:1022D00023A2E18683A74186ADE383C74187624499
:1022E000F240D2444249B249224A924A024B93F701
:1022F000D70F238AF18605616FF0BFCC03A6018654
:10230000A6851385818D4A96212105099384042091
:10231000E30D65F90D472385E18662443147A384C7
:10232000E186F240D2444249B249224A924A024BE3
:102330002384018605616FF00FF1F2406244D244BC
:102340004249B249224A924A024B0561828083C6C1
:10235000C185411106C622C405476396E600238E57
:102360000184EFF09FDC03C7D18585461374F70F16
:102370006315D702A38E0184193783C74187898BE0
:1023800089CF83C70184639E8700379700408347C6
:10239000F70793F7C70FA30FF706B2402244410196
:1023A000828085450D450546EFD05FE52244B24069
:1023B00085450D4541016FD0FFF841113EC2B7A7D9
:1023C000004036C683D647023AC481CA1397060135
:1023D00041832382E1902392E702B246224792474B
:1023E000410173002030B7871E0093870748B7A6C6
:1023F000004003D746021377070419C305458280BE
:102400000347C50219E3FD17EDF709458280411125
:1024100022C437841E0026C206C6AA8413040448B8
:102420002685EF00D05B11C5B240224492444101A1
:1024300082807D1475F40945C5BF79714ECE52CCAA
:10244000B7A90040056A26D24AD056CA5AC85EC605
:1024500062C406D622D4AA8413094006938A49008E
:10246000130A7AE3378BFF40930B9022054C23A08D
:102470000900094523904A01EF10E0142685413FE9
:1024800089476318F5027D1951451379F90FEF104B
:102490002016E31E09FC0944B250228522549254AE
:1024A0000259F249624AD24A424BB24B224C456130
:1024B000828023A06901094523907A01EF10A010C2
:1024C0002685B1372A84E31085FD83A74901E3DC23
:1024D00007FA13D7E701058B05072381E4003707C7
:1024E0000001F98FD5DB1565130545E8EF10402D88
:1024F00065B7411122C426C206C6B7A4004085674D
:10250000938737E023A004002392F4002A84013744
:1025100085476316F500DC48C1832312F402B240FC
:10252000224492444101828083574502411122C4D2
:1025300026C206C6C207B7A400409CC093079010ED
:102540002392F4002A84E135054781476317E502A9
:102550009C445CC8D84418CC9C485CCCD44814D06B
:10256000F98295CA89462301D400C207B706FF0045
:10257000F58F4183D98F8507AA070357E4011CD43F
:1025800085473D8BB397E700B2402313F402224402
:102590009244410182808566F1168A07F58F935631
:1025A000E7013D83D58F1D8B850709072301A40013
:1025B000B397E700D9B783574502011122CC26CA49
:1025C0004AC84EC606CEC20737A9004085692320F7
:1025D000F900938779E32312F900AA842E84EFF09F
:1025E0001FE38547631FF500333480000604232072
:1025F0008900938969E0231239012685EF00303E76
:102600006DDDF2406244D2444249B24905618280A4
:1026100083574502011122CC26CA4AC84EC652C46D
:1026200006CEC207B7A4004085699CC0938779E3B2
:102630002392F4002A892E8AEFF07FDD85472A84D1
:102640006313F50423A64403B707080023AA040272
:1026500085079CD823A00400938939E32392340191
:102660004A85EF00D0372A8465DD4A85EFF0BFD771
:1026700085476313F50237A7004083574702C20717
:10268000C1832312F702F24022856244D2444249B8
:10269000B249224A056182800944F5B71C5563E6B8
:1026A000C7064111B7871E0022C406C69387074894
:1026B00037A40040B70602001850758F1DCB835712
:1026C0006502230605024CD4C207232A040293E7BD
:1026D00017001CD88567938717E110C02312F400F8
:1026E000EFF07FD08547630DF500FD572312F4020C
:1026F00019A0FD17F1F30945B2402244410182803F
:10270000930780042312F402C5BF130510028280D0
:102710001C5563E2C70C4111B7871E0022C426C2B4
:102720004AC006C62A842E8993870748B7A400406A
:10273000B70602009850758F39CF230604028567CB
:10274000938797E190C02392F4002285EFF03FCC6D
:1027500089476304F50493071004DCD883576402A7
:1027600023A6240393060008C20793E717009CD80A
:10277000B7871E0093870748B7A4004003D74402D9
:102780001377070815C32392D4020347C40211E745
:10279000FD17EDF719A0FD17D1FF0945B2402244FE
:1027A000924402494101828003D74402137707040F
:1027B00069DF930780042392F40285679387C7F04B
:1027C00023A004002392F4002285EFF05FC4A14708
:1027D0002392F402E1B71305100282801D71A2CC8E
:1027E000D6C2DAC0056B37A40040CAC8CEC65EDECA
:1027F00062DC66DA6AD8930CCBF086CEA6CAD2C465
:102800006ED60149938B818D130C44009389818D81
:10281000130B8BE0156DB7170040B85B4166B70529
:102820003E00518FB8DBB85B91664D8FB8DBB84B7B
:1028300013677700B8CBB853558FB8D3B84F136729
:102840007700B8CFB85F4D8FB8DFB85F518FB8DF72
:10285000B85F558FB8DFD147230CF400854763EA92
:10286000271BA147230CF4008347840193F7C70F6C
:10287000230CF4009307F051231CF402FD5423129F
:102880009402930770132314F402B947230EF40043
:1028900023860B0223200400094523109C01EF002E
:1028A00030555E8523129402EF00D0157945EF0074
:1028B00030545E85EF0010157945EF0070538D445C
:1028C000930DA01A054A2320B401B7871E002310D8
:1028D0006C01138707484E853ACEEF0050107247BF
:1028E00063090516631A45174E85EFF01FB5631B84
:1028F00045174E85EF005013631645171385818DDC
:10290000EFF03FBF631045171385818DEFF0DFC1F6
:10291000631A45151545EF00B04D1385818DEF0005
:1029200090156311451585451385818DEFF0BFC85E
:10293000631A4513B7AD004083C78D01B744032028
:102940009385042493F7C70F93E71700238CFD00AA
:102950001385818DEFF0DFCB631645118D4763EE54
:1029600027119307A070239CFD0201469385042440
:102970004E8523860902EFF07FD285472A8A6311AC
:10298000F51023860902B7A7004023AA07023707DC
:102990000004B7E700E09384042423A0E71083C772
:1029A000F41F03C7E41F83A6890203C62900156527
:1029B000CA851305C5E9EF00B06083C7F41F15652C
:1029C0001305C5ED3EC483C7E41F3EC283C7F400B0
:1029D0003EC083C8E40003C8D40083C7C40003C753
:1029E000340083C6240003C6140083C50400EF002E
:1029F000305DF6406644D6444649B649964A064B91
:102A0000F25B625CD25C425DB25D5285264A256112
:102A1000828099476305F9009D47631EF900A1472D
:102A2000230CF4008347840193F7C70F230CF400B1
:102A30009307F01191B593078002230CF4008347AC
:102A4000840193F7C70F230CF4008D47E3F427E3C9
:102A5000C5B77D17E31107E87945FD14EF0050393C
:102A6000E39304E60509A147E317F9DA15651305B1
:102A700005F5EF007069094AADBF9307A030E5B5D1
:102A8000CA8513050DF2EF00B053E9BFB7E700E0C8
:102A9000B843C146B4C3370600049386071890C2F2
:102AA000B8C3B7A7004023AA07027D572392E702C5
:102AB0008280B7E7F50593870710B3D7A7024111C6
:102AC00006C622C43747004085462307D780A9465B
:102AD0002A84854511459507B3D7D702C207C1831C
:102AE0002316F780930770FC2301F7808D47A3011D
:102AF000F78093070004A300F780371700403C4796
:102B000093E787003CC7EF00E07995452145EF004A
:102B100060790D45EF00703695450545EF0050375B
:102B2000B7E700E03707008023A0E710B7070020D1
:102B3000B24023AE870C224441018280B737004067
:102B40001387C7809306003214C309472380E780A8
:102B500011472380E78003C727801367170023816D
:102B6000E780B7E700E03707800023A0E710828006
:102B700041113AC63EC43737004083476780858B92
:102B800099CB85472303F78083D7C1878507C20781
:102B9000C183239EF1863247A24741017300203052
:102BA00003C7018485476305F718797122D483D759
:102BB000218806D626D24AD04ECE95CF03D701889B
:102BC00085451305F10093071700C207C1832390C1
:102BD000F188B757032093870784BA9783C7070004
:102BE000A307F10083D72188FD17C207C183239172
:102BF000F188EF00102D83C7E187A1E383D72188F7
:102C00008DEF83C7F18795EB239001888547238F4C
:102C1000F186B75703209387078437870040232A1C
:102C2000F70A1145EFD02FDF854511450546EFD056
:102C3000EFDC85451145EFD0EFF083C7F187639254
:102C4000070E83D74188C207C183239DF18683D7AE
:102C5000A187E1CB83D6A1879307F01F63F5D70047
:102C600083C7E18799C783D6C1879307803E63FAFC
:102C7000D70A83D7618883D6A187B6979306004089
:102C800063DBF60083D6618893070040958FC20707
:102C9000C183239DF18683D6A1879307002063F427
:102CA000D700239DF18683D6A18783D741883755E6
:102CB0000320130505C4958FC207C1832392F188B1
:102CC00083D56188B747032003D6A187938707443C
:102CD000BE95EFD0FF8D83D7A18703D76188BA97C0
:102CE000C207C1832393F18803D761889307F03F1C
:102CF00063F4E7002393018885471145A38FF1868C
:102D0000EFD00FDC03D7A1878546054685451145E1
:102D1000EFD06FD7854513054008EFD0AFE2239E73
:102D20000186B250225492540259F2494561828080
:102D30008280239401882393018823920188239120
:102D4000018823900188A38F0186238F0186239E0B
:102D50000186239D018682805D7136D83AD686C66B
:102D600096C49AC29EC02ADE2EDC32DA3ED442D20B
:102D700046D072CE76CC7ACA7EC802C402C6374725
:102D80000040834747809946BD8B6382D706314711
:102D90006389E70811476393E706374603209D4799
:102DA00037450040130606441308F03F83D6818858
:102DB00093851600C205C1812394B188834585801F
:102DC000B2962380B60083D681886374D80023949A
:102DD0000188FD1793F7F70FF1FB83D741889D0713
:102DE000C207C1832392F188239E018601A88345EF
:102DF00057801565130505F7EF00901CB640A642F5
:102E0000164386437255E2555256C2563257A25760
:102E100012588258724EE24E524FC24F6161730097
:102E200020302800EF00300D374603201378F50FCF
:102E30008147130606449308F03F93F6F70F63E8C3
:102E4000060183D741881375F50FAA9751BF83D622
:102E5000818893851600C205C1812394B1882C0016
:102E6000BE9583C50500B2962380B60083D68188BF
:102E700063F4D800239401888507C1B7056637033A
:102E8000002081467D161303031E63C3B6008280B3
:102E900083D7C18803D7A1888507F18FC207C18373
:102EA0006318F70003D7A1880507718F2395E18880
:102EB00003D7C188330ED500034E0E001A9785063E
:102EC0002300C7012396F188C9B72387018883D7D8
:102ED000C1882395F188828003C701848547630AEE
:102EE000F70883C7E188D1E783D6A18803D7C188D3
:102EF0006381E608011137060020B75503200565F8
:102F000006CE0147130300401306061E93850544B1
:102F10007D1503DEA18883D6C1886319DE024207CE
:102F20004183854519453AC62387B188EFD04FB90B
:102F300032478545AE862E861945EFD0CFB4F24094
:102F400085451305600805616FD0CFBFE30B67FCB3
:102F500083D6A188B29603CE0600B306B700050754
:102F60002380C60183D6A1888506E98E2395D18862
:102F70004DB7828015654111130585F806C6EF002F
:102F8000B01883C7518793F7E70FA38AF186238888
:102F90000188EFF0BFAFB7170040F857B240136792
:102FA0000740F8D7A3880188410182801565011187
:102FB0001305C5FA06CE22CC26CA4AC84EC652C44C
:102FC000EF009014B7170040B85705441367074047
:102FD000B8D713054006A3888188192D9567A28468
:102FE000138A07FD9149EFF06FFF63099504A285ED
:102FF0005285EF00E07C130520030504D52BE31474
:1030000034FF1565130545FFEF001010B71700409A
:10301000F857F240624413670740F8D7A388018845
:103020002388018883C75187D244424993F7E70F29
:10303000A38AF186B249224A056182809387818DF5
:103040008C5723A8B186238B918683C7518762440E
:10305000F24093E71700A38AF1864249B249224A17
:1030600023889188D244156513D6B50013058501D0
:103070000561B9A7B7170040F857411106C6136795
:103080000740F8D7954513050040692EB240A38844
:1030900001882388018841018280A387A1888280DA
:1030A00083C6F18893F7F60F9DCAA3870188094765
:1030B0006389E7000D476380E70205476388E700FF
:1030C000828083C7118981EF6FF05FEE83C711891A
:1030D00099C76FF03FEA83C71189E5FFF5B7828092
:1030E000B7470F00938707243355F50213070005F0
:1030F000B71700401375F50F6309E50A6361A7026E
:1031000079476306E5061307C0036303E5083D47F7
:10311000630CE502B7170040238007008280130785
:1031200000066301E50A13078007E315E5FE1307B0
:1031300070052380E700130780FA2380E700B717A4
:1031400000401307400481A0130770052380E700A7
:10315000130780FA2380E70013072004B717004005
:103160002384E700130700F82385E70065B71307FA
:1031700070052380E700130780FA2380E700B71764
:103180000040130700042384E700130720F8E9BF79
:10319000130770052380E700130780FA2380E700F8
:1031A000B717004013078004F9BF13077005238089
:1031B000E700130780FA2380E700B71700401307E2
:1031C0006004D1B7130770052380E700130780FA66
:1031D0002380E700B7170040130750046DB7B7A767
:1031E000004003D7470293874702218B11C721472D
:1031F0002390E700054582800345C5023335A000D2
:1032000006058280411122C406C6B7A7004023A04C
:1032100007002A84239207002285EFF05FFC6DDD12
:10322000B240224441018280411122C406C6B7A7A0
:10323000004023A00700130720102A842392E700F0
:103240002285EFF0DFF96DDD85476312F502B7A740
:1032500000409C475CC0B7A70040DC471CC4B7A730
:1032600000409C4B5CC4B7A70040DC4B1CC8B2407C
:1032700022444101828083574502411122C406C67F
:10328000C20737A700401CC38567938777E02A846D
:103290002312F7002285EFF09FF46DDDB240224447
:1032A00041018280A94763E9B70A956793870704BC
:1032B0008A05BE959C418287B7170040F84B13459D
:1032C000F5FF698FF8CBB7170040B84B698FB8CBC3
:1032D000B7170040B843798DA8C3828037170040E4
:1032E000744F9347F5FFFD8E74CF37170040744B32
:1032F000FD8E74CB37170040344BC98E34CB371753
:1033000000403443F58F3CC3828037170040744F30
:103310009347F5FFFD8E74CF37170040744BC98E6D
:1033200074CB37170040344BFD8EC9BFB717004030
:10333000F84F498FF8CFB7170040F44B1347F5FF0C
:10334000F98EF4CBB7170040B44BC98EB4CBB71786
:103350000040B443758FB8C38280B7170040F84F60
:10336000498FF8CFB7170040F84B498FF8CBB71704
:103370000040B84B1345F5FF91BFB7170040F84F19
:10338000498FF8CFB7170040B44F1347F5FFF98EB8
:10339000B4CFB7170040F44B05A0B7170040F84F63
:1033A000498FF8CFB7170040B84F498FB8CFB7173C
:1033B0000040F44B1347F5FF758FF8CB15A0371776
:1033C0000040744F9347F5FFFD8E74CF37170040D0
:1033D000344FFD8E34CF37170040744BF58F7CCBC4
:1033E000B7170040B843498FBDB7B7170040F44F37
:1033F0001347F5FFF98EF4CFB7170040B44FC98ECD
:1034000041BFB7170040B44F1347F5FF758FB8CFD2
:10341000B7170040F84B498F4DB7B7170040B84F6A
:10342000498FF5B7A94763E9B70A95679387C70638
:103430008A05BE959C418287B7170040F85B13450B
:10344000F5FF698FF8DBB7170040B85B698FB8DB11
:10345000B7170040B853798DA8D382803717004042
:10346000745F9347F5FFFD8E74DF37170040745B80
:10347000FD8E74DB37170040345BC98E34DB3717A1
:1034800000403453F58F3CD3828037170040745F7F
:103490009347F5FFFD8E74DF37170040745BC98ECC
:1034A00074DB37170040345BFD8EC9BFB71700408F
:1034B000F85F498FF8DFB7170040F45B1347F5FF5B
:1034C000F98EF4DBB7170040B45BC98EB4DBB717D5
:1034D0000040B453758FB8D38280B7170040F85FAF
:1034E000498FF8DFB7170040F85B498FF8DBB71753
:1034F0000040B85B1345F5FF91BFB7170040F85F78
:10350000498FF8DFB7170040B45F1347F5FFF98E16
:10351000B4DFB7170040F45B05A0B7170040F85FB1
:10352000498FF8DFB7170040B85F498FB8DFB7178A
:103530000040F45B1347F5FF758FF8DB15A03717D4
:103540000040745F9347F5FFFD8E74DF371700402E
:10355000345FFD8E34DF37170040745BF58F7CDB02
:10356000B7170040B853498FBDB7B7170040F45F95
:103570001347F5FFF98EF4DFB7170040B45FC98E2B
:1035800041BFB7170040B45F1347F5FF758FB8DF31
:10359000B7170040F85B498F4DB7B7170040B85FC9
:1035A000498FF5B7B7177A00938707203355F5028F
:1035B0001375F50F238AA1889307803E3305F50222
:1035C0002399A1888280B7F700E0D84B759BD8CBB0
:1035D00003C741893307A702D8C723A807001307E9
:1035E000101098C3D84B098B75DF23A00700828089
:1035F000B7F700E0D84B759BD8CB03D721893307A9
:10360000A702D8C723A807001307101098C3D84BE8
:10361000098B75DF23A00700828001112E85B285FA
:1036200032C62AC406CEEFF07F85224532463737B0
:103630000040B736004081471307B740A145938645
:10364000864063C6C700F240328505618280034828
:103650000700E30EB8FE3308F500034808008507AD
:1036600023800601F9BFB7270040C8C70947238058
:10367000E70051472380E7008280374700408347B7
:1036800027801A0593F7F703C98F2301F7808280FB
:10369000B747004003C717809387178009CD4D8F28
:1036A0002380E700B747004003C707801367870000
:1036B0002380E780828093C5F5FF6D8F2380E7002C
:1036C0008280AA95C205C18193170501C1836383D6
:1036D000F502B74700409387B780214783C60700AC
:1036E000E38EE6FE03470500B74700400505238447
:1036F000E780D9BF828037470040B7460040814706
:103700001307A780938686800346070009E6139572
:1037100007014181828083C506003306F5008507D5
:103720002300B600D5B701A097D1FF1F9381011BDD
:10373000171100201301018D17250000130545A561
:1037400097D5FF1F9385058C1386418363FAC500C7
:103750008322050023A0550011059105E3EAC5FE6B
:103760001385418397E5FF1F9385C5A76377B50050
:10377000232005001105E36DB5FE17D501201305C3
:103780006588972503209385E50B6377B500232093
:1037900005001105E36DB5FE9302800873900230B9
:1037A00097D2FFFF9382428693E2120073905230C9
:1037B00097D2FFFF938242E9739012347300203056
:1037C0005D7122D406D62A842EDA32DC36DEBAC007
:1037D000BEC2C2C4C6C603A5C18011C51C4D81E7C7
:1037E0002AC6BD2B32450C455418228636CEEF0032
:1037F0003028B250225461618280011126CA06CE5F
:1038000022CC4AC84EC652C4AA8419E11C45029073
:103810001C4D2E89A5E7A9239C4C8044B5C397274E
:1038200000009387A78B6310F406C0407C50858B03
:1038300081EB8357C40093F7072099E3284C452D6B
:103840008357C400A18B99C31C48C5E7A285268570
:10385000492245C1FD547C50858B81EB8357C400C0
:1038600093F7072099E3284C6125F24062444249CE
:10387000B249224A2685D24405618280004545B777
:103880002685F92969BF972700009387278363144A
:10389000F400804461BF9727000093872780E317D7
:1038A000F4F8C04461B71CC4050963C907021C4091
:1038B0001387170018C02380B7001C4483450900F4
:1038C000FD17F5F11CC463D907022286A945268598
:1038D0008920FD57E300F5F8A944B5BF184C63C42F
:1038E000E700E39645FD228626852520E31735FD72
:1038F00095B7FD59294AD1B71C401387170018C046
:1039000029472380E700C9BFAA8503A5C1806FF0BE
:10391000DFEE011122CC26CA4AC806CE4EC6AA84C2
:103920002E89328401C51C4D91E31D299717000093
:103930009387C77A6318F402C0401C4C1CC4835799
:10394000C400A18B99C31C4895EFA2852685512000
:1039500015C97D59F2406244D244B2494A85424970
:103960000561828097170000938747756314F40000
:103970008044E1B79717000093874772E31FF4FA7A
:10398000C04465BF1C4808409379F90F1379F90FBB
:103990001D8D5C486346F500A2852685A52455F952
:1039A0001C440505FD171CC41C401387170018C0D4
:1039B000238037015C486389A7008357C400858B47
:1039C000D1DBA947E318F9F8A2852685252C59D122
:1039D00049B7411122C426C24AC006C683A4C18089
:1039E0002A892E8489C49C4C99E32685952E9717A5
:1039F00000009387A76E6314F402C0408317C400CD
:103A000013F787002DEB13F7070115EB254723204C
:103A1000E90093E707042316F4007D5559A897178A
:103A200000009387A7696314F4008044C1BF97170F
:103A300000009387A766E313F4FCC044C1B7918BE1
:103A40008DC74C5889C9930744046384F5004A859F
:103A50005523232A04028357C4002322040093F72A
:103A6000B7FD2316F4001C481CC08357C40093E71D
:103A700087002316F4001C4881EF8357C400130706
:103A8000002093F707286385E700A2854A85C121B6
:103A90008317C40013F717001DC3584823240400DC
:103AA0003307E04018CC1848014501E713F7070831
:103AB0002DF3B2402244924402494101828013F71F
:103AC0002700814611E3544814C4F1BF8397C50011
:103AD000011122CC26CA06CE4AC84EC613F787006B
:103AE000AA842E8469E7D8416345E000B841635851
:103AF000E008585449C7B18303A90400858B23A06B
:103B000004000C50B9CB70488357C400918B99C7FF
:103B10005C401D8E5C5899C33C401D8E5C540C501B
:103B2000814626858297FD57630DF5041C4805677D
:103B3000232204001CC08357C400F98F91C368C8B6
:103B40004C5823A0240185CD930744046384F500D9
:103B500026854D21232A04021DA00146854626857F
:103B60000297FD572A86E311F5FA9C40D1DF75478D
:103B70006385E70059476395E70623A024010145C3
:103B8000BDA098408317C40001CFF5466305D70058
:103B9000D9466319D7041C48232204001CC04DB722
:103BA0001848B1832322040018C0858B41BF83A924
:103BB0000501E38609FC03A905008D8B23A03501CF
:103BC00033093941014791E3D84918C4E35920FB2F
:103BD0001C540C50CA864E86268582976340A002EC
:103BE0008317C40093E707042316F4007D55F240C1
:103BF0006244D2444249B24905618280AA9933099C
:103C0000A940E9B79C49411106C622C426C281EBEE
:103C10008144B24022442685924441018280AA8494
:103C20002E8401C51C4D91E3252A97170000938728
:103C3000E74A631EF402C0408317C400F1DB7850EA
:103C4000058B11E793F7072099E3284C4D2426852F
:103C5000A285EFF0BFE77C50AA84858BDDFB8357FC
:103C6000C40093F70720D5F7284C59245DB7971760
:103C700000009387A7446314F400804475BF97172E
:103C800000009387A741E319F4FAC04475B74111C6
:103C900022C406C62A842316B5002317C500232094
:103CA00005002322050023240500232205062328DE
:103CB0000500232A0500232C050021468145130514
:103CC000C505EFC05F90971700009387E7C35CD0EE
:103CD00097170000938747C61CD497170000938757
:103CE00087CA5CD497170000938747CDB24000D0B5
:103CF0001CD8224441018280970500009385C5F0BD
:103D000049A2411126C2930780069384F5FFB3842C
:103D1000F4024AC02E8922C406C693854407C92EE0
:103D20002A8401CD2320050023222501310508C462
:103D3000138684068145EFC01F89B2402285224444
:103D400092440249410182801385018A4DA2138564
:103D5000018A79AA1385418A59AA1385418A49AAF9
:103D6000411122C406C62A84EFF0DFFE1C4C91C725
:103D70002244B24041016FF05FFE97070000938735
:103D8000E7F71CD423240404232604042328040472
:103D900083A701836394870085471CCC228515285F
:103DA00048C022853D2008C42285252048C44840BB
:103DB00001469145EFF0BFED08440546A545EFF0FB
:103DC0001FED48440946C945EFF07FEC85471CCC00
:103DD00045B7411126C24AC006C622C42A89EFF05F
:103DE000BFF683A401839C4C81E72685EFF05FF743
:103DF000938484048044DC40FD1763D607009C4014
:103E0000A5C78440C5BF0317C40021EFC17785074C
:103E10005CC41305840523220406C928EFF03FF390
:103E20002146232004002324040023220400232805
:103E30000400232A0400232C040081451305C40533
:103E4000EFC06FF8232A0402232C04022324040465
:103E500023260404B24022852244924402494101AF
:103E600082801304840649BF91454A85EFF07FE9BB
:103E700088C02A8459F5EFF09FEDB1472320F9005F
:103E8000D1BF797122D44AD04ECE52CC5AC85EC628
:103E900006D626D256CA2A892E8A13048504814959
:103EA000054BFD5B0444832A4400FD1A63D00A02DB
:103EB00000406DF8B250225492540259624AD24ADC
:103EC000424BB24B4E85F2494561828083D7C40094
:103ED000637BFB008397E40063877701A6854A85AF
:103EE000029AB3E9A90093848406C1B782808280D4
:103EF00082805971A2D42E848395E500A6D2CAD0BF
:103F000086D6B284368963D305028357C40093F7FB
:103F1000070895EB13070040B65026542320F900FC
:103F200098C0065996540145656182803000EF00C3
:103F3000302EE34C05FC3247BD67F98F7977BA978D
:103F400093B71700C1BF814713070004F1B783D7A8
:103F5000C500797122D406D626D24AD04ECE898B9E
:103F60002E8491CF930774041CC01CC885475CC87D
:103F7000B250225492540259F24945618280740031
:103F80003000AA84EFF0FFF6A2492A892685CE8563
:103F9000852201ED8317C40013F7072071FBF19B05
:103FA00093E727002316F40075BF97070000938757
:103FB000E7D49CD48357C40008C008C893E7070817
:103FC0002316F400B247232A340191CF8315E4006D
:103FD0002685EF00702601C98357C400F19B93E743
:103FE00017002316F4008357C40033E52701231676
:103FF000A400BDBFC5C183A7C5FF011122CC06CE59
:104000001384C5FF63D307003E942AC6EF007029CE
:104010001387C18A1C43324589EB2322040000C365
:104020006244F24005616F005028637DF400104047
:10403000B306C4006396D7009443DC43B29614C021
:104040005CC0F1BF3E87DC4399C3E37DF4FE1443BB
:104050003306D700631F86001040B29614C33306A0
:10406000D700E39FC7FA9043DC43B29614C35CC306
:1040700045BF6375C400B1471CC15DB71040B306AE
:10408000C4006396D7009443DC43B29614C05CC06E
:1040900040C379B7828041114AC01389818A83273E
:1040A000090022C426C206C6AA842E8491E781454F
:1040B000EF00F0022320A900A2852685EF00300240
:1040C0007D59631A25017D54B240228522449244D1
:1040D000024941018280130435007198E30685FE90
:1040E000B305A4402685EF00807FE31F25FDE1BFD7
:1040F000011126CA93843500F1984AC806CE22CC15
:104100004EC6A104B1472A8963F6F406B14463E5BB
:10411000B4064A85EF00F0189389C18A83A7090085
:104120003E8435E4A6854A85EFF0FFF6FD572A84E4
:104130006317F50C03A40900A287C5EB83290400CB
:1041400081454A85A299612F6394A90A1C408D0478
:104150009D8CF198A104B14763F3F400B144A685A6
:104160004A85EFF05FF3FD576304F5081C40A697FE
:104170001CC03DA8E3DD04F8B1472320F900014548
:10418000F2406244D2444249B249056182801440FF
:10419000858E63C906042D47637ED70204C03307AA
:1041A00094006397870223A0E9005C4014C35CC3BA
:1041B0004A85EF00900F1305B400930744006199FE
:1041C0003307F540E30EF5FA3A94898F1CC04DBFD2
:1041D000D8C3E1BF58406395870023A0E900C9BF59
:1041E000D8C3F9B7A28740402DBF3E84DC43B1B7A6
:1041F000B1472320F9004A85EF00300B49B704C1CD
:1042000045BF1C46FD171CC663DA0700184E63C580
:10421000E700A9476394F5006FF0AFEF1C422E85CD
:104220001387170018C22380B7008280011122CCA7
:1042300026CA4AC84EC652C406CE2A89AE893284DE
:10424000B304D6007D5A63149400014511A8834538
:1042500004004E864A85EFF0DFFA0504E31545FFBA
:10426000F2406244D2444249B249224A0561828006
:10427000357122CD26CB4AC94EC706CF52C556C38B
:104280005AC1DEDEE2DCE6DAAA892E843289B684FF
:1042900009C51C4D99E3EFF0BFAC97170000938759
:1042A000E7E3631BF40403A449007C50858B89EB8E
:1042B0008357C40093F7072081E7284CEFF03FC3F2
:1042C0008357C400A18B99C31C48B5E3A2854E85D2
:1042D000EFF02FF029CD7C50858BA9C37D55FA4096
:1042E0006A44DA444A49BA492A4A9A4A0A4BF65B6E
:1042F000665CD65C0D61828097170000938707DCAF
:104300006315F40003A489004DB797170000938745
:10431000E7D8E31CF4F803A4C90041BF8357C400E5
:1043200093F70720C5FF284CEFF09FBC45BF9307CC
:104330000002A304F1029307000302D22305F10255
:1043400026C6930B5002971A0000938A2ADB054C6D
:10435000294BCA8483C7040099C3639C7709B38C33
:104360002441638E2401E6864A86A2854E85EFF0BD
:10437000FFEBFD57630EF5189257E6973ED283C7C1
:10438000040063870718FD571389140002C802CE82
:104390003ECA02CCA309010482D483450900154614
:1043A0005685DD25C2479304190031E513F707014F
:1043B00009C713070002A309E10413F7870009C71F
:1043C0001307B002A309E104834609001307A00202
:1043D000638BE602F247CA848146254603C7040080
:1043E00093851400130707FD6375E6068DC63ECE60
:1043F0001DA0850485B7330555413315AC00C98F21
:104400003EC8268959BF324793064700184336C62F
:10441000634A07023ACE03C704009307E002631E13
:10442000F70403C714009307A002631AF702B24708
:104430008904138747009C433AC663D30700FD579E
:104440003ECA25A83307E04093E727003ACE3EC88E
:10445000D9B7B3876703AE848546BA9741B7850459
:1044600002CA81468147254603C70400938514008C
:10447000130707FD6374E606E1F683C504000D46E5
:1044800017150000130505C8012511CD9717000069
:10449000938747C71D8DC247130700043317A70032
:1044A000D98F85043EC883C504001946171500003E
:1044B000130585C5138914002304B102F12325CD0A
:1044C0009307000095E74247B2471377071009CFDB
:1044D00091073EC69257D2973ED2A5BDB3876703D8
:1044E000AE848546BA9749B79D07E19BA107D5B72A
:1044F0007800970600009386A6D322860C084E8586
:1045000097000000E7000000FD572A8AE314F5FC3D
:104510007C50858B89EB8357C40093F7072081E794
:10452000284CEFF0FF9C8357C40093F70704E397F0
:1045300007DA12556DB3780097060000938646CFD0
:1045400022860C084E85112AC1B7797156CA9C493A
:10455000BA8A984522D44AD04ECE52CC06D626D21C
:104560005AC85EC6AA892E843289368A63D3E70088
:10457000BA872320F9000347340401C785072320A5
:10458000F9001C4093F7070291C7832709008907A8
:104590002320F9000440998891E8130B9401FD5BF6
:1045A0005C4403270900998F63CCF40483473404E7
:1045B000B336F0001C4093F70702A5EB1306340452
:1045C000D2854E85829AFD576303F5041C4011473E
:1045D0008144998B6399E7004444832709009D8CAB
:1045E00063D3040081441C4418486354F700998F36
:1045F000BE94014969047D5B63982405014509A8BF
:1046000085465A86D2854E85829A631E75017D55F0
:10461000B250225492540259F249624AD24A424B51
:10462000B24B456182808504A5BF3307D4001306D1
:104630000003A301C7040347540493871600A297FD
:104640008906A381E7049DBF85462286D2854E85D3
:10465000829AE30E65FB050945B7797122D44AD0E9
:104660004ECE52CC06D626D256CA5AC803C88501A9
:10467000930780072A892E84B289368A63E207036A
:10468000930720069386350463E107036301081E40
:104690009307800517160000130686A7630BF8140E
:1046A000930424042301040515A89307D8F993F76C
:1046B000F70F5546E366F6FE171600001306C6A769
:1046C0008A07B2979C43B29782871C439384250440
:1046D000938647009C4314C32381F50485474DAA64
:1046E00090411C43137506089385470039C19C43CC
:1046F0000CC3584063D307149305D002A301B4043C
:1047000018C463500704B307F040171600001306DF
:1047100026A02948B68433F70703FD1432970347D0
:1047200007002380E4003E87B3D70703E37507FF44
:104730008DA09C43137506040CC345DDC207C187D9
:104740004DBF6D9A10C0C1B790411C431375060848
:104750009385470001C50CC39C4339A0137606041A
:104760000CC37DDA83D707001307F0061716000085
:104770001306069A6311E80C2148A301040458406B
:1047800018C4E34907F80C40ED990CC0C1F7B68492
:1047900051F3A147631EF8001C40858B91CB584014
:1047A0001C4863C7E70093070003A38FF4FEFD14C2
:1047B000858E14C85287CE867000A2854A85EFF098
:1047C000DFD8FD5A631A550D7D55B25022549254CC
:1047D0000259F249624AD24A424B456182809C4169
:1047E00093E707029CC11308800717160000130601
:1047F0006693A30204050C401C4313F805081385B7
:1048000047006305080008C39C4301A813F805048A
:1048100008C3E30B08FE83D7070013F7150001C791
:1048200093E505020CC099C3414881BF1840137736
:10483000F7FD18C0D5BF294889B717160000130621
:10484000268D29482DBF90411C43CC49137806087A
:10485000138547006306080008C39C438CC301A866
:1048600008C3137606049C4375DA2390B700232807
:104870000400B68481B71C43D0418145938647002C
:1048800014C384432685092419C1058D48C05C40A2
:104890001CC8A301040439BF14482686CE854A8566
:1048A000029AE30355F31C40898B8DE7B2474844D5
:1048B000E35DF5F03E8511BF85465686CE854A8577
:1048C000029AE30365F185045C443247998FE3C59E
:1048D000F4FEE9BF8144930A94017D5BF5B7411171
:1048E00022C42A842E8523A8018A06C63524FD57B2
:1048F0006316F50083A7018B91C31CC0B24022440C
:1049000041018280411122C42E848395E50006C6B0
:104910004D22634905007C48AA977CC8B2402244D6
:10492000410182808357C4007D777D17F98F23165C
:10493000F400EDB783D7C500011122CC26CA4AC8BE
:104940004EC606CE93F70710AA842E843289B68904
:1049500091C78395E5008946014611228357C4001B
:104960007D777D17F98F8315E4002316F4006244E8
:10497000F240CE864A86B24942492685D244056134
:104980003DA8411122C42E848395E50006C6C128A6
:104990007D578357C400631BE5007D777D17F98F32
:1049A0002316F400B2402244410182800567D98F6A
:1049B0002316F40068C8FDB78395E5003DA04111BA
:1049C00022C42A842E85B285368623A8018A06C68B
:1049D000EFE0BFC4FD576316F50083A7018B91C3B9
:1049E0001CC0B240224441018280411122C42A8469
:1049F0002E8523A8018A06C6D520FD576316F5002B
:104A000083A7018B91C31CC0B24022444101828024
:104A1000411122C42A842E85B28523A8018A06C6A4
:104A2000E120FD576316F50083A7018B91C31CC0DD
:104A3000B240224441018280411122C42A842E8541
:104A400023A8018A06C67D20FD576316F50083A7BB
:104A5000018B91C31CC0B2402244410182804111AC
:104A600022C42A842E85B285368623A8018A06C6EA
:104A70004128FD576316F50083A7018B91C31CC025
:104A8000B24022444101828093F5F50F2A966314C7
:104A9000C5000145828083470500E38DB7FE05050B
:104AA000FDB71385C1896FF08FC41385C1896FF07D
:104AB0002FC4411122C42A842E85B285368623A8AC
:104AC000018A06C6A120FD576316F50083A7018B56
:104AD00091C31CC0B24022444101828093078005EB
:104AE00023A8F18A7D5582809307800523A8F18A47
:104AF0007D5582809307800523A8F18A0145828035
:104B00009307800523A8F18A7D558280930780054D
:104B100023A8F18A7D5582801387418B1C4389C766
:104B20003E9508C33E85828097C7FF1F9387876B9A
:104B30003E9508C33E8582800A4348353639205366
:104B4000442F5541525420555342332062726964B8
:104B5000676520282564204D487A290A0000000056
:104B600055534220696E697420646F6E65000000C1
:104B70009A0B0000A80B0000F4090000D8090000FF
:104B8000F4090000000B0000000A0000F409000016
:104B9000F40900000A0B0000F4090000D809000025
:104BA0003E0C0000F00B0000CE0B0000500C00008B
:104BB000A20C0000B40C00004344433A206C696E20
:104BC0006520636F64696E6720256C64206261757F
:104BD000640A0000555342332E30206469736162C9
:104BE0006C650000555342322E302066616C6C6259
:104BF00061636B20284D5343206F6E6C7929000050
:104C0000050F160002071002060000000A1003003C
:104C10000E0001000000000012034D00530046008A
:104C20005400310030003000010000002A0353001E
:104C30004400200055004100520054002000420072
:104C40007200690064006700650020005500530091
:104C500042003300200000000902D400050100805A
:104C600064090400000208065000070582020004DF
:104C700000063000000000070503020004000630B3
:104C800000000000080B01020202010009040100FB
:104C900001020201000524001001052401000204A4
:104CA0002402020524060102070581030004080608
:104CB000300000000409040200020A000000070599
:104CC0008402000400063000000000070504020012
:104CD0000400063000000000080B0302020201007D
:104CE000090403000102020100052400100105244B
:104CF00001000404240202052406030407058503B9
:104D000000040806300000000409040400020A0040
:104D100000000705860200040006300000000007BE
:104D20000506020004000630000000001201000326
:104D3000EF020109861A2CFE0100010203010000A6
:104D4000DA160000E01500008C1400005A1600006E
:104D50008C14000088150000721400008C140000F0
:104D6000921500009E150000FE140000FE140000C5
:104D7000050F160002071002020000000A100300CF
:104D80000E00010AFF0700002603570043004800F9
:104D9000200055005300420032002E003000200059
:104DA0004400450056004900430045002000000033
:104DB00009022000010100C03209040000020806B7
:104DC00050000705820200020007050302000200EE
:104DD0001201000200000040861A2CFE00110102A0
:104DE00000010000B41C0000A81C0000A81C00006A
:104DF000A81C0000A81C0000A81C0000A81C0000A3
:104E0000A81C0000B81D0000D41C0000A81C000055
:104E1000A81C0000D41C0000A81C0000A81C000056
:104E2000A81C0000A81C0000DE1C0000A81C00003C
:104E3000441D0000A81C0000A81C0000AE1D0000BE
:104E4000A81C0000AE1D0000A81C0000A81C00004B
:104E5000A81C0000AE1D0000D41C0000000E0000C5
:104E6000000000080000003F000002000B000008E6
:104E70000000003F000002000000000800000040A9
:104E80000200020020737570706F7274206C6F776F
:104E900020766F6C2E2E0A200000000053443A202A
:104EA000696E6974204F4B2028696F206D6F6465AF
:104EB000202564292C20747970652025642C2025F8
:104EC0006C6420736563746F72732C207369672040
:104ED0002530327820253032780A0000736563303F
:104EE0003A2025303278202530327820253032782B
:104EF0002025303278202E2E2E2025303278202585
:104F000030327820253032782025303278202065E4
:104F10006E64202530327820253032780A00000077
:104F200053443A20696F206D6F64652025642069C1
:104F300064656E7469666965732062757420646166
:104F400074612072656164206661696C730A000097
:104F500053443A20696E6974206661696C65642007
:104F6000696E20616C6C20494F206D6F6465730021
:104F70007561727432206C696E65206572726F7231
:104F80003A25780A000000004F574E3A2072656CAF
:104F9000656173696E6720534420636172642028E1
:104FA00050423130206C6F77290000004F574E3A45
:104FB00020636C61696D696E672053442063617280
:104FC0006420285042313020686967682900000059
:104FD0004F574E3A205344206D6F756E74206174A4
:104FE00074656D7074202564206661696C65640A5F
:104FF000000000004F574E3A20534420696E6974F8
:10500000206661696C65642C2072656C65617369EA
:105010006E672050423130004F574E3A2063617224
:10502000642072656164792C20256C64207365634B
:10503000746F72732028256C64204D42290A000089
:10504000B8320000DC3200000A3300002C330000CC
:105050005A3300007A3300009A330000BE33000058
:10506000EA330000023400001A3400003834000033
:105070005C3400008A340000AC340000DA340000F4
:10508000FA3400001A3500003E3500006A35000091
:10509000823500009A35000000000000000000008A
:1050A0000000000000000000000000000000000000
:1050B00000000000000000000000000000000000F0
:1050C00000000000000000000000000000000000E0
:1050D00000000000000000000000000000000000D0
:1050E00000000000000000000000000000000000C0
:1050F0000000000000000000232D302B20000000E5
:10510000686C4C00656667454647000030313233B5
:1051100034353637383941424344454600000000B3
:10512000303132333435363738396162636465661D
:105130000000000096F5FFFFACF5FFFF6CF5FFFFE8
:105140006CF5FFFF6CF5FFFF6CF5FFFFACF5FFFFA3
:105150006CF5FFFF6CF5FFFF6CF5FFFF6CF5FFFFD3
:1051600012F7FFFF14F6FFFFAAF6FFFF6CF5FFFF33
:105170006CF5FFFF42F7FFFF6CF5FFFF14F6FFFF32
:0C5180006CF5FFFF6CF5FFFFB2F6FFFFBF
:10518C001603300031003200330034003500360095
:10519C003700380039000000008002021F000000B8
:1051AC00454D4D4320202020555342332E30202096
:1051BC00202020204469736B205743481E120000A6
:1051CC002012000040120000421200006412000085
:1051DC0066120000881200008A1200008C12000077
:1051EC008E120000F012000026130000281300009D
:1051FC006A13000000000000D8500000B8500000F6
:10520C0098500000000000000000000000000000AA
:10521C000000000000000000000000000000000082
:10522C000000000000000000000000000000000072
:10523C000000000000000000000000000000000062
:10524C000000000000000000000000000000000052
:10525C0000000000000000000002000200C201007B
:10526C0000000800740000200803570043004800A9
:10527C00040309040803570043004800040309040D
:0C528C000000003F000002007400002041
:00000001FF
