:040000006F3050000D
:1000040000000000000000006F30607F6F30207F30
:1000140011BFF9F70000000000000000000000001C
:1000240000000000000000000000000000000000CC
:100034006F30E07C000000006F30607C0000000046
:100044006F30E07B6F00F0506F30607B6F30207B4F
:100054006F00704B6F00305D6F30607A6F20B05E60
:100064006F30E0796F1080646F2020746F302079D6
:100074006F30E0786F30A0786F3060786F20307B1D
:100084006F30E0776F30A0776F3060776F30207714
:100094006F30E07600000000000000000000000067
:1000A400000000000000000000000000000000004C
:0C00B40000000000000000000000000040
:1000C000B7870040194798D38280B787004013074D
:1000D000001498C34947D8C337574C00130717B4C7
:1000E000944B918ABDE623AE070623AC070623A6F0
:1000F000070823A4070823AE070823AC070823A694
:10010000070A23A4070A23AE070A23AC070A23A67B
:10011000070C23A4070C23AE070C23AC070C23A663
:10012000070E23A4070E4D47D8D337070300130744
:10013000170298D323A807069843014513672700A1
:1001400098C337C710001307D7C798C70947D8C344
:1001500082807D1751F70545828013051002828049
:1001600093178501E1879376750063DF0700B70772
:100170000001B397D70099C937860040345AD58F0C
:100180003CDA238BA1888280C167E5B7B78600403F
:10019000B05A93C7F7FFF18FBCDA238B01888280B6
:1001A000B787004088DF828001CD378700401C532D
:1001B00037060800D18F1CD38547A38AF188828037
:1001C000378600401C523707F8FF7D17F98F1CD285
:1001D000A38A01888280B78700409387870712052A
:1001E0003E951C4113D707012310F6007D8BF18348
:1001F0002380E5009D8B2380F6008280B787004036
:100200009387870712053E951C414206EA054D8EED
:100210005D8E10C18280B7870040938787071205E3
:100220003E951C413707E003F98F1CC18280B787D8
:1002300000409387870712053E951C4186078583FA
:100240001CC18280B78700409387870712053E95BF
:1002500008416181137505088280378800401308C2
:10026000C80712054295D6073708E003B3F7070120
:10027000F205CD8F6A06D18FC206D58F1377F77F2F
:10028000D98F1CC18280B78700409387C7071205AA
:100290003E956A06F2051C414D8EC206558E1377B7
:1002A000F77F598E5D8E10C18280B787004093879B
:1002B000C70712053E951C41860785831CC18280B5
:1002C000B78700409387C70712053E951C41370743
:1002D000E003F98F1CC18280B78700409387C7076E
:1002E00012053E950841618113750508828083C718
:1002F0006189A98F9D8B99E7B78700408857218135
:100300007D898280B787004012059387C7073E9595
:1003100008414181F5B703C705009377F5006205F1
:10032000B706E00356076185758F9207B7860040D0
:10033000635705009386C607B69798C38280938655
:100340008607DDBF9377F50062058A079A05618508
:10035000DD8D6358050093E53500B7870040ECC399
:10036000828093E51500D5BF378700401C53620596
:10037000A207A1831CD31C535D8D08D382803787CD
:1003800000405C43F19B5D8D48C31C4B918BF5FF96
:100390008280B7870040885361818280B7470320FD
:1003A00003C7070493760706C1E29387070483C651
:1003B00017000D466389C60213061003638CC6043A
:1003C00005466393C6067D8B8946631FD7040111DA
:1003D00006CE03C547009305F100A3070100253FA2
:1003E000F2400561828083C72700130700036399E9
:1003F000E700378700401C43C166D58F1CC382804D
:10040000130710036392E702378700401C43B706C7
:100410000200E5B703C7370083C727002207BA9752
:10042000378700401CDF82808280378700405C5322
:10043000411122C406C613F4F70FA18B89CBA14743
:100440005CD383C7518981C7085BEF00705F9377E6
:10045000140063890712378400405C505450A18314
:10046000B1829D8B858A63920710B1CEEF00E0794F
:1004700083C64189850693F6F60F238AD18883C601
:100480004189FD8A238AD18819E9238A0188B7071F
:1004900001043CDC232E040693071004B1A0232C96
:1004A00004067C5CB70620EC03C74189938606C02E
:1004B000F58FC98F5607D98F37050114C98F7CDC9A
:1004C0009307300415A03C5C13971700635307048F
:1004D000232C0406E1358521C167FD17631FF50054
:1004E000B70700187CDC8D477CC0B7870040054704
:1004F000D8D3B240224441018280B707010439C9F0
:1005000093070020E3E3A7FEB70701145D8D68DCC5
:1005100045BF3C5C1397270063590700EF00A07D9F
:10052000232E0406232C0406C9B7EF00A07403C7CA
:10053000318905071377F70FA389E18803C731894C
:100540007D8BA389E18809C983C7318937070104F5
:10055000D607D98F3CDC89B73707010438DC13078D
:10056000100478C0A389018849B7FD173707002018
:100570001307C7038A07BA9781C69C438297B5B70A
:10058000DC4FEDBF098835D4B7870040B84F9306DC
:10059000000A1377071E6319D7001307002CB8C78A
:1005A00023A6070423A80704B7870040094789B793
:1005B0002A8309CA83830500230073007D1605037F
:1005C00085056DFA82802A8311C62300B3007D164B
:1005D000050365FE828099C5B7170040F857598D0D
:1005E000E8D78280371700403C57C98F3CD78280BC
:1005F000B7E7F50593870710B3D7A7023737004051
:1006000085462307D740A9469507B3D7D702C20727
:10061000C1832316F740930770FC2301F7408D47F1
:10062000A301F74093070004A300F740B717004069
:10063000F84F13670718F8CFB84313670710B8C30C
:100640008280411122C437B4C4041305044006C695
:1006500026C24AC0EF20904613050440EF30000345
:1006600071641305042069371565930500051305AA
:10067000C5C0EF306022EF20D03D95453705C00161
:10068000EF20B06FB7170040B857B706400013050A
:100690000420558FB8D7B857B7068000558FB8D704
:1006A000B857B7060001558FB8D7EF20606EEF201E
:1006B000807683C791873755FE031305056C93F742
:1006C000E70FA38CF186B797004023A007003707F8
:1006D0001000B7E700E023A0E7103707200023A0B1
:1006E000E7103707020023A0E710B72700400547AF
:1006F0002381E700EF30A0050545C52815651305E2
:1007000045C3EF30E02D0945EF201037EF204003BF
:10071000EF20A076EF20B03683C5E1883705400092
:100720005D3D83C5D18837058000753583C501845B
:1007300037050001F11593B51500713DC1BFB7E74D
:1007400000E04147B443B8C305473317A7001386F9
:10075000071818C2B4C38280411106C6BD320567AE
:10076000B787004013079771B8DB3747032013079B
:100770000704F8DB370702209387070813070700F1
:1007800098C337A7022013070704D8CB37070220E6
:1007900013070704D8D337570320130707C498DB80
:1007A0003757032013070784D8DB054685450D45D9
:1007B000B13401478546014685450945E93401477D
:1007C00081460146814505457D3C014785460146F8
:1007D000854511454D3C0546854511450534B240DA
:1007E00005472380E1884101828011C1B5B74111DD
:1007F000094506C66936B78700401307800298C3CB
:100800004D47D8C3B24023A40700194798D34101EC
:100810008280374503201307050403566700411102
:1008200006C623AEC1828347170083460700A38C08
:10083000F18293F606061308000413060504639D6F
:10084000060593060005638CD70013071005638720
:10085000E702FD574165A38CF1827D1529A88347E6
:100860002700054591C7054709456383E7000D4506
:10087000EF2090200145B2404101828083C7E1888A
:1008800003C7D188B337F0003337E0000607D98FAC
:100890002300F6000545C5B7930620026385D708F7
:1008A00063EBF602930600026381D70693061002FB
:1008B000E391D7FA83474700054793F7D70FE39AA9
:1008C000E7F8B70500201D469385C50D13050504FF
:1008D000C5311D454DB79306E00F6384D7029306DB
:1008E000F00FE398D7F683474700A5F723870186E3
:1008F000A386018623860186238C018623A4018694
:1009000095BF83474600C9D7A9B783474700054726
:1009100093F6D70FE39FE6F2054685450145238C04
:10092000F182E93881BF83474700054793F7D70F26
:10093000E391E7F281B701113745032026CA9306F8
:10094000050406CE22CC4AC84EC652C403C71600C0
:1009500083D7660003C60600A38CE18223AEF18232
:100960001376060609CA6244F240D2444249B249AB
:10097000224A056179BD2D466369E60015660A07BE
:10098000130646C432971843028793070003631C7B
:10099000F7000149F2406244D244B249224A4A85F2
:1009A000424905618280930710036308F710FD57E1
:1009B0004169A38CF1827D19F1BF03C736000D4652
:1009C0006302C7086362E6028546630BD702894665
:1009D000E31FD7FC130700086374F70023AEE1821E
:1009E0001564130444D12DA0BD46E312D7FC59472A
:1009F0006374F70023AEE18215641304C4CB09A825
:100A000049476374F70023AEE1821564130444D9A7
:100A100003AAC18393070020D28963F44701930995
:100A20000020A2854E861305050459361399090145
:100A3000330A3A414E941359090123AE418323AA44
:100A4000818289BF83C6260009466384C604636B1E
:100A5000D60085EA11476374F70023AEE182138460
:100A600081817DB76381E6041307E00EE391E6F42C
:100A700049476374F70023AEE1821564130444CD43
:100A800041BF21476374F70023AEE18213840181E3
:100A900041B71307A0026374F70023AEE182156427
:100AA000130484CEB5B759476374F70023AEE182CF
:100AB0003704002013040400A1BF83C7260023AE1F
:100AC000F182C1BD054685450D45EFF02FF3014785
:100AD0008546014685450945EFF0EFFA0147814615
:100AE000014681450545EFF00FFA0147854601466D
:100AF00085451145EFF02FF9B757032093870784F9
:100B000037870040232AF70A054685451145EFF04F
:100B1000EFEEEF20A04F05472380E1889DBD85477C
:100B20002310F50423AE01820949ADB583C7460001
:100B3000130710086389E708636BF7000D47638F9D
:100B4000E7041147638AE708C167FD178DBF1307E4
:100B500020086383E70213074008E397E7FE114587
:100B6000EFF00FF601478546014685451145EFF048
:100B70008FF1A380018831BD0945EFF06FF483C781
:100B80008187918B81C7EF10A02E21B50147854643
:100B9000014685450945EFF00FEFE5BB0D45EFF048
:100BA0008FE7B70702209387070437870040232287
:100BB000F70A054685450D45EFF04FE485450D459F
:100BC000EFF04FF8F9B30545EFF08FEF014781469D
:100BD000014681450545C1B71145EFF0CFE3B75751
:100BE00003209387078437870040232AF70A0546A6
:100BF00085451145EFF08FE085451145EFF08FF405
:100C0000239201882391018839B703C79183011189
:100C10004EC606CE22CC26CA4AC852C456C29947EE
:100C20008149631FF70283A4C183930700202684B0
:100C300063F497001304002003A941833745032080
:100C400093190401CA85228613050504818C229913
:100C5000EFF01F9693D9090123AE918223AA218335
:100C6000F2406244D2444249224A924A4E85B249F5
:100C70000561828003C7918393070002631BF70617
:100C800003C7818385476316F7063747032083250B
:100C900007040111B707002006CE9387C70D93D62E
:100CA0008500A380D70093D605012381D7001307C1
:100CB000070493D68501A381D700834647002E857C
:100CC0002380B7002382D70083465700034767007D
:100CD0002EC6A382D7002383E700EF20600BB24526
:100CE0001565130545C7EF20303BF240014505610E
:100CF00082800145828003C7918395476316F70080
:100D000003A5C1836FF04FE68280397106DE16DCE1
:100D10001ADA1ED82AD62ED432D236D03ACE3ECCCB
:100D200042CA46C872C676C47AC27EC0EFF0EFEF00
:100D3000F250E2525253C2533255A25512568256C5
:100D40007247E2475248C248324EA24E124F824F7B
:100D50002161730020305D7122DE3AD43ED2372704
:100D6000004086C696C49AC29EC02ADC2EDA32D8CB
:100D700036D642D046CE72CC76CA7AC87EC6854771
:100D80002303F70003C701846315F704514523804B
:100D90000184EFF0DF9A5545EFF07F9A0145B134B9
:100DA0001565130505C9EF20B0437254B640A6423D
:100DB000164386436255D2554256B2562257925731
:100DC0000258F248624ED24E424FB24F61617300F8
:100DD000203003C701849147630BF7025145EFF0C0
:100DE0001F965545EFF0BF9501450134B797004078
:100DF00023A0070037070002B7E700E0054523A05E
:100E0000E7104D211565130505CAEF20703D854794
:100E10002380F18437240040230104004545EFF08E
:100E20001F9289472300F40049B75D7122DE3784A1
:100E300000403ED05C4426DC856486C696C49AC2D7
:100E40009EC02ADA2ED832D636D43AD242CE46CCFA
:100E500072CA76C87AC67EC4E58F81CB9307201C00
:100E60001CC00145EFF0AFD144C4B7870040D8475C
:100E7000058B39C30547D8C703C7118401CF1307B2
:100E80000028B8C7370702001107F8C723A80704CE
:100E9000A3800184114745452380E184EFF03F8A18
:100EA000B727004009472380E700654523810700F5
:100EB000EFF0FF880145FD26378400405C44918BAC
:100EC000B9C32380018437071000B7E700E023A0EF
:100ED000E7103707200023A0E7103707020023A000
:100EE000E7103755FE03B727004005472381E70089
:100EF0001305056CEF20B005EFF01F8691475CC429
:100F00000945EFF0CFC7378700405C47A18B95CFED
:100F1000A1475CC7014505472380E184EFF0FF8CC2
:100F20005145EFF0DF81B727004009472380E700F4
:100F3000238107004545EFF09F80B7E700E03707C2
:100F4000000223A0E7100545B12E378700405C471B
:100F5000B7061000F58F89C754C70945EFF02FC2B7
:100F6000378400405C4493F7074099CF93070040D3
:100F70005CC41C48858B6387071A0945EFF02FC0B6
:100F80005C400567D98F5CC0B7860040D84685674E
:100F9000938707807D8F01CB0546A380C184DCC683
:100FA0000145EFF0CFBD378400405C440967F98FFD
:100FB00085CB58C40945EFF08FBC5C4093E7071020
:100FC0005CC0B7870040984B098B75FFD843094533
:100FD0001377F7EFD8C3EF20806D0145EFF0CFB85E
:100FE000378400405C442167F98F6386070C1C50EE
:100FF000B70600800146D58F1CD058C481460147F2
:1010000081450545232E0406EFF0EFA701478146F1
:10101000014681450945EFF00FA70147814601468A
:1010200081450D45EFF02FA60147814601468145D8
:101030001145EFF04FA50147814601468145154511
:10104000EFF06FA401478146014681451945EFF055
:101050008FA301478146014681451D45EFF0AFA2B0
:10106000014681450545EFF06F99014681450945E7
:10107000EFF0CF98014681450D45EFF02F980146DE
:1010800081451145EFF08F97014681451545EFF0F9
:10109000EF96014681451945EFF04F96014681458F
:1010A0001D45EFF0AF950145EFF00FAC5C40417787
:1010B0007D17F98F5CC0378400405C4493F70704C8
:1010C00099C70545EFF0AFAB930700045CC43784C4
:1010D00000405C4493F7070299C70945EFF02FAA37
:1010E000930700025CC4378400405C44C18B91C705
:1010F0000945EFF0CFA8C1475CC47254B640A64280
:1011000016438643E2545255C2553256A2561257E0
:1011100082577248E248524EC24E324FA24F61612E
:1011200073002030232404000945EF204058A9BD56
:1011300082804111094506C6EFF08F98014781462C
:10114000014685450945EFF00F94B24041016F001B
:10115000705D82804111114506C6EFF06F96014720
:101160008146014685451145EFF0EF91B240A380DD
:1011700001884101828082804111194506C6EFF045
:101180002F94B240014781460146854519454101EA
:101190006FF06F8F828082808280011181461306FA
:1011A000E1009305D1000D4506CE22CCEFF0AF82D1
:1011B0000357E1000D45239EE18437040220EFF040
:1011C0008F85B78700401307040423A2E70A01466E
:1011D00081450D45EFF08F828355E100130504042E
:1011E000EF00F05683C7F18591EB85450D45054627
:1011F000EFF0CF8085450D45EFF0CF94F24062448B
:101200000561828001119306D1001306E1006C0094
:10121000114506CEEFE03FFC0357E1001145239254
:10122000E188EFE05FFF014681451145EFE01FFDDA
:10123000F2402380018805618280828082808280E2
:101240008280B7970040130740F8A388E700130790
:1012500000042398E70413070020239CE704B74603
:101260000320239EE70493860604D4CBB7A602206E
:101270009386060494DFB70602209386060494D36F
:101280002398070689462389D706A3890706239C46
:10129000E70613072002238DE70613070002A38F3A
:1012A000E7068280B797004001CD2380070013072F
:1012B00090032380E700130770022381E70051B7F2
:1012C00019472380E700828083C781849306E00F5B
:1012D00013F7F70F6389D7009307F00F630BF7003D
:1012E00041657D158280B7470320238007040545AB
:1012F000828023870186A386018623860186238C2C
:10130000018623A4018601458280011122CC239904
:10131000018403C681843745032006CE26CA4AC805
:101320004EC6AD458346050463EAC5021377F60F42
:1013300015660A07130686DA3297184393070504E1
:10134000028703C737000D466303C706636AE600DA
:1013500085476303F70289476301F704FD571DA81A
:10136000BD47E31DF7FE9567938787DD23A2F184D0
:1013700003D64185D94709A89567938787E323A2B8
:10138000F18403D64185C94763E6C70083D7418509
:10139000C207C1832399F1842DA89567938787E1BC
:1013A00023A2F18403D6418593070002F1BF83C7CE
:1013B00027000946638EC708636BF600D1E3938765
:1013C000418223A2F18403D64185914775BFE397FB
:1013D000E7F803D72185C167FD178144630AF70445
:1013E00083D7218593940701C180B9C303D7218591
:1013F0009307F0039304000463E6E70083D4218598
:10140000C204C180E206E18663DD060003A94184CF
:10141000268613050504CA852699EFF06F9923A245
:10142000218583D72185858FC207C1832399F184C4
:10143000F24062444249B2492685D2440561828025
:101440009387C18123A2F18403D64185A1472DBF93
:101450009567938707DF23A2F18403D6418593071D
:1014600060021DB703C72700A386E1849DB703C7A9
:10147000E1842380E700854731BF3796004003476A
:1014800086000D8B0DE33707002013060004231C94
:10149000C70C83C727001387C1842301F700854742
:1014A0002302F7003DB70347860009460D8BE31280
:1014B000C7FE370700202146D9BF13F7F6010946BA
:1014C000631BC70483C74700130610086389C7025C
:1014D000636CF6000546638BC702E391E7E8B797B4
:1014E0000040238D0706F5B513062008E398C7E6EC
:1014F000B7970040239C0706238DE706D9BDB79711
:101500000040239A0706238BE706E1B5B797004012
:10151000A38B07067DBDE31307E403C727008547B8
:10152000E319F7EA9387C18403C73700799BA38146
:10153000E70045B513F7F601E30207E20946E31FAA
:10154000C7E003C62700E31B06E083C74700130676
:101550001008638FC7026360F60205466383C70401
:10156000E39EE7DE379700408347B70793E73700EE
:10157000A30DF706B9BD13072008E391E7DE3797FF
:1015800000408347A70793E73700230DF70691B57F
:10159000379700408347670793E73700230BF70629
:1015A0000DBD379700408347770793E73700A30BBC
:1015B000F70605B503C7470089452310050423999D
:1015C000B184130610086310C70237970040034721
:1015D00067070D460D8BE31EC7DE05472380E70036
:1015E0002399E184FDB30546631BC700379600408D
:1015F000034676078D450D8AE31DB6DCC5B7130893
:101600002008631F0701379700400347A7070D8B8A
:101610008D45E310B7DC2380C7002399C18455BBF7
:10162000E319B7DA379700400347B707CDB783C749
:101630008184011106CE22CC26CA4AC84EC69546E0
:101640006381D70613F7F70F9947630BF70001443F
:10165000F24022856244D2444249B2490561828007
:1016600003D721859307F0031304000463E6E70022
:1016700003D421854204418083A44184374503205B
:101680002286A68513050504EFE09FF283D7218506
:10169000A29423A29184818FC207C1832399F184EC
:1016A00045BF03C7D184B7970040A381E70045B782
:1016B0005D7122DE3ED286C696C49AC29EC02ADCE6
:1016C0002EDA32D836D63AD442D046CE72CC76CA4A
:1016D0007AC87EC6379400400347A4009377F70F7B
:1016E0001377070241C7B74703209387070403C74F
:1016F000070003C61700A384E1842384C18483D632
:10170000670013770706239AD18429CB753EC167FA
:10171000FD176317F504B7970040239807060D4798
:101720002389E706A389E706B7970040130700025D
:101730002385E7007254B640A6421643864362559D
:10174000D2554256B256225792570258F248624E2C
:10175000D24E424FB24F6161730020307D3645BF9B
:10176000B79700402398A70621475DBF13F72700CE
:10177000630007120347B4008347B40089463D8BDA
:1017800091838D8B6306D70A0D466305C70C01EF65
:10179000639ED702693D01EDA147A309F406231812
:1017A000040623090406B7970040094751B72318D8
:1017B000A4068347240793C787002309F4068347B9
:1017C000240793F7C70F2309F406F1BFE9FF8356F7
:1017D000C40083D7218563F0F6048357C40083D601
:1017E0002185C207C183B387F640C207C18323990D
:1017F000F18483D721859DC3B797004003C737077E
:1018000013478700A389E70603C737071377C70F76
:10181000A389E70649BF83D72185D1B7B797004091
:101820002398070621472389E706A3890706A5BF52
:10183000E39BE7F6B7A70220938707041CDC8347E6
:10184000A40793F7C70F93E72700230DF406EF00D3
:10185000606D91BFA9FB37050220930705041CD0DA
:101860008347F4071305050493F7C70F93E7270091
:10187000A30FF4068355C400EF00606D83C7F185A4
:101880009DF38347F40793F7C70FA30FF40621BF17
:1018900013F7170031CBEFF0DF9A8547A30104005F
:1018A0002305F40003C701849376F70FE314F7E8E8
:1018B000B7E700E03707100023A0E7103707200044
:1018C00023A0E7103707020023A0E7103755FE03D7
:1018D000B72700402381D7001305056CEF10306750
:1018E0000545EFE09FF0B9B5918BE38507E491479B
:1018F0002305F40081B5411122C483C7818706C640
:10190000858B85C703C701848547631BF704379719
:1019100000408347A70793E73700230DF70683C7E7
:10192000818793F7E70F238CF18683C78187898BA3
:1019300085C703C701848547631CF70237970040BA
:101940008347F70793E73700A30FF70683C781871D
:1019500093F7D70F238CF186B24022444101828055
:1019600001478146094685450945EFE0DF9145BFBE
:10197000014689450D45EFE07F88C9BF9387418BBC
:1019800083C61701E20623A2D18683C6270103A6D8
:101990004186C206B29623A2D18683C6370103A62A
:1019A0004186A206B29623A2D18603A6418683C6AB
:1019B0004701B29623A2D18683C6670183C7770108
:1019C000A20623A4D18683A68186B69723A4F18696
:1019D00083A78186A60723A4F18623900186238707
:1019E0000186A386018623860186828083C6418B79
:1019F000130750059387418B639DE63883C6170014
:101A0000130730056397E63883C6270013072004C1
:101A10006391E63883C6370013073004639BE636CC
:101A200083C647002388D18683C657001387018762
:101A3000A300D70083C667002301D70083C67700C1
:101A4000A301D70003C7B700620723A4E18603C739
:101A5000A70003A681864207329723A4E18603C725
:101A6000970003A681862207329723A4E18603A666
:101A7000818603C78700329723A4E18603A7818666
:101A800019CB0387C7006359070403C7818713670E
:101A90001700238CE18603C7818703C6F70013670D
:101AA0004700238CE18683C8A18713F7F80F638A68
:101AB000080249476308E60A0D476300E604194730
:101AC000238D01862387E18613078002A386E186A2
:101AD00005472386E1867DA403C781871367270016
:101AE0004DBF1308F0026365C80645486365C80426
:101AF000630506260D476311E60613070007239AC0
:101B0000E18A03C7E186A381070023A4070023819C
:101B1000E7003707000AD8C303C7D186A3860700AA
:101B2000239707002386E7002398070023ACF1845E
:101B300023860186828039161376F60F7545636D0C
:101B4000C50015650A061305C5E42A9610420286EB
:101B50001305A0056309A61815472387E186130717
:101B60000002ADB703A781869307400263F4E70044
:101B700023A4F186B70700209387870123800700FD
:101B800023ACF18423870186A386018655B703C65B
:101B90009187058A630E061283A581863146637498
:101BA000B60023A4C1861566130606EE83A58186BA
:101BB0006366B70283A64187E1822382D70083A6AA
:101BC0004187C182A382D70083A6418703A74187AB
:101BD000A1822383D700A383E7005DB73305E60026
:101BE00003450500B385E70005072380A5001377AB
:101BF000F70F6DBF03C69187058A79CA83A58186D1
:101C000021466374B60023A4C1861386818283A50E
:101C10008186636AB70203A741877D1761832380AA
:101C2000E70003A741877D174183A380E70003A74F
:101C300041877D1721832381E70003A741877D1713
:101C4000A381E70035BF3305E60003450500B385F2
:101C5000E70005072380A5001377F70F4DBF83C763
:101C60009187858BB5C719BB03C69187058A2DC29D
:101C700083A5818631466374B60023A4C1861566A8
:101C8000130646ED83A581866368B70283A6418764
:101C9000E1822382D70083A64187C182A382D70035
:101CA00083A6418703A74187A1822383D700A3830B
:101CB000E70023ACF18482803305E600034505008C
:101CC000B385E70005072380A5001377F70F5DBFF5
:101CD00009472387E1861307A003A386E18605470A
:101CE0002386E18609B983C517011306F0036390C3
:101CF000C50683A5818641466374B60023A4C186C8
:101D00001566130646EC83A581866366B70283A633
:101D10004187E1822384D70083A64187C182A384BF
:101D2000D70083A6418703A74187A1822385D700D7
:101D3000A385E700BDBF3305E60003450500B38575
:101D4000E70005072380A5001377F70F6DBF154740
:101D50002387E1861307000249B783C79187858BE4
:101D600081CB23870186A386018623860186828014
:101D700089472387F1869307A003A386F1868547C9
:101D80002386F18683C7818793E71700238CF1862A
:101D900091BF15472387E18613070002A386E186DA
:101DA00009472386E18683C7818793E71700238C41
:101DB000F18683C7818793E72700C9BF37070020D3
:101DC0000356A70D83A68186411106C622C426C2EA
:101DD000637FD6040356A70D8356A70D03A78186FC
:101DE00042064182158F23A4E18603C7018437A5EB
:101DF000022083A5818513140601854793040504F9
:101E0000418013050504631FF702EFE06FFAB797EF
:101E10000040239C870684DF03C7A7071377C70FFB
:101E2000238DE706B240224492444101828003A6FA
:101E3000818623A4018683C7818793F7E70F238CCC
:101E4000F18665B7EFE0CFF6B787004023AA970881
:101E500022878545094585460546EFE0CFC22244E5
:101E6000B240924485451305200841016FE08FCDB3
:101E7000238C018683C60187B7574253411193874C
:101E8000573522C406C61387018723AAF18A938790
:101E9000418B2382D7008346170023A4070037A570
:101EA0000220A382D700834627000347370013048C
:101EB00005042383D700A383E70003C7C186354603
:101EC0009385418B2386E70003C70184854713056B
:101ED00005046314F702EFE0AFEDB7970040354714
:101EE000239CE70680DF03C7A7071377C70F238D5F
:101EF000E706B240224441018280EFE06FEBB787F2
:101F0000004023AA8708854509453547854605468B
:101F1000EFE06FB72244B240854513052008410128
:101F20006FE04FC283C78187858B81CF03C7318C18
:101F3000930780026316F7000547238FE1848280B0
:101F4000B5BD83C78187918B91C31DB78280411135
:101F500026C283C7818706C622C4898B89CB0547E1
:101F6000A38FE184B2402244924441018280FD4724
:101F7000E39AF5FE81471384418B7D47B306F50054
:101F800003C60600B386870085072380C600E39753
:101F9000E7FEEFF0BFA583C78187898BE1F783C791
:101FA0008187858B85C30347F400930780026316FE
:101FB000F7000547238FE18475B72244B24092446D
:101FC0004101EDBB83C7C186D1FF2244B240924498
:101FD000410179BD797122D406D626D24AD04ECE9F
:101FE00052CC56CA5AC85EC6B797004003C93707D5
:101FF00083C9270703C7018485466311D726B7E63F
:1020000000E0B042137FF70F4147B8C2938506182E
:102010003707000298C1B0C289462389D706A38931
:10202000D70683A48186B7A8022023A40186A580B1
:10203000B7A7004093860804C204D4D7C180C9461C
:10204000D4DB458F98DB03A741861379F90F93F909
:10205000F90F98C30567130727E12392E7000546A8
:10206000014E814701480147814593880804B7968E
:102070000040930F002089429303F00437A50040ED
:10208000C14E93000002930A0008130B0005930B46
:10209000D0041383F5FF635D670403C3A6001373C5
:1020A00023003366660029C603C6A6071376C60F4B
:1020B00013662600238DC60613969700469690DE7B
:1020C000239CF60703C6A6071376C60F238DC60604
:1020D0002385560063857706850793F7F70F63041A
:1020E0000E00232AD5030507420741830146014E0E
:1020F00003C3A600137303026304030023851600C1
:102100000353450213730308630D03028505050895
:10211000C205231255031378F80FC18163136801B8
:102120000148131398004693232665023383E54044
:1021300063C56B00232AD503A9BF7A8E99BF814757
:1021400079BF0353450213730304E30403F49306B6
:1021500080042312D50213030020B7960040094ED5
:10216000930EF0041308000203C5A6000989498EE6
:1021700069CE03C6A6071376C60F13662600238D05
:10218000C60613969700469690DE239C660603C605
:10219000A6071376C60F238DC6062385C601638165
:1021A000D70B850793F7F70F639EE5083797004035
:1021B0008347A700898BEDDF8347A70793F7C70FF6
:1021C00093E72700230DF70689472305F700B7A7F4
:1021D000004023AA0702056723A007001307C7F0E2
:1021E0002392E7001385418DEF10E01C65DDB7A752
:1021F00000407D572392E702B7E700E0370700026F
:1022000023A0E710B797004023893707A389270742
:1022100083A7818699E3EFF0BFC583A74186A69780
:1022200023A2F18683A781868DCFB2502254925487
:102230000259F249624AD24A424BB24B456182800E
:1022400081479DB705074207418303C6A600137661
:10225000060219C223850601014639B783A7818684
:1022600081EB83C7818793F7E70F238CF18675BFD6
:1022700003A781869307F01F9304002063E4E7001F
:1022800083A4818693D6940003AF418637A60220AB
:10229000939E060105681309060493DE0E011306DA
:1022A00006040147378E1E00B7A70040B70F020093
:1022B0001385418D130818E19302800493150701DB
:1022C000C18163EED50983A74186C206C182BE964D
:1022D00023A2D18683A78186858F23A4F18683A735
:1022E000818699E783C7818793F7E70F238CF1866F
:1022F0000945EFD0FFFCB78700401397040123AADC
:10230000270985450945418385460546EFD0BFF736
:102310002254B25092540259F249624AD24A424B74
:10232000B24B85451305200845616FE0AF81FD186C
:102330006399080211472387E18622544547A38603
:10234000E186B25092540259F249624AD24A424B53
:10235000B24B05472386E18645616FF0CFD99308DC
:102360000E488C53B3F5F501F9D183556502230668
:102370000502D0D7C20523AA070293E515008CDB1E
:10238000B305EF008CC32392070193080E4883D551
:10239000470293F5050499C52392570205071306D2
:1023A000062029BFFD18E39408FE7D572392E7021B
:1023B00051B739714ED606DE22DC26DA4AD852D41D
:1023C00056D25AD05ECE62CC66CA6AC86EC6B7977D
:1023D000004083C4370703C9270703C70184854624
:1023E0006317D720937AF70F37E700E0344341466D
:1023F00030C3B7050002130607180CC234C30947DF
:102400002389E706A389E70603A4818623A401861E
:1024100083A7418637A7004093F4F40F1CC3856758
:10242000938797E11379F90F25802312F70013851D
:10243000418DEF00507865DDB7A700401307100409
:10244000370802204204D8DB130B080437070002C8
:10245000418023A66703598C80DBB707022093874E
:102460000724379700401CD3B79700405686014E8B
:10247000814605458145130808041383A700130FFF
:102480000002930E0005894F37A700409302000811
:102490008348030093F80802638408002300E301E3
:1024A0008348030093F82800638E080483C8F70765
:1024B0000505050693F8C80F93E828004205A38F89
:1024C00017071376F60F41816313D601014693185F
:1024D0009600C29823A01703B308B5406393D807AA
:1024E00083C8F70793F8C80F93E82800A38F17074E
:1024F00063070E0093989600C298232617032300C3
:10250000F301014E8358470293F8080863820804D8
:1025100085058506C2052312570293F6F60FC18181
:102520006393D601814663F3A50293989600C298FF
:102530002326170383C8F70793F8C80FA38F17073D
:1025400081BF83C8F70793F8C80F4DB7568EDDB724
:102550008358470293F80804E38C08F293070004B9
:102560002312F702B796004083C7F60793F7C70F09
:1025700093E72700A38FF606232A07028567232007
:1025800007009387C7F02312F7001385418DEF00F2
:10259000906265DDB7A700407D572392E702B797A9
:1025A000004023A0670337E700E0B70600022320BE
:1025B000D71023892707A389970683A7818663926B
:1025C000071683C781876254F250D2544259B259D8
:1025D000225A925A025BF24B624CD24C424DB24D9F
:1025E00093F7D70F238CF18621616FF07F8883D416
:1025F000C185056B37090220139A0401130C9BE176
:10260000135A0A01A58013090904814C378D1E0055
:1026100037A40040938A418D130BCBF093970C01A4
:10262000C18363E5970283A741860147BE9423A235
:10263000918683A6818663E6460103A781863307D8
:10264000474123A4E18683A7818695BF83A741865E
:1026500093060D4837060200E6971850718F25CF74
:102660001387418D230607021CC023128401930D9A
:102670000D485685EF00305449C98947630FF5046A
:10268000930710045CD883D76A0223262403130718
:102690000D48C20793E717001CD883C6CA028357A8
:1026A000440293F70704B5C7930780042312F4028A
:1026B000232A04022320040023126401930D0D48F1
:1026C0005685EF00504F31C9A1472312F402850C03
:1026D00013090920A1B7FD16C9F20D472387E1862A
:1026E00062543147A386E186F250D2544259B2591E
:1026F000225A925A025BF24B624CD24C424DB24D7E
:102700002386018621616FF00F9FFD1DE3930DF677
:10271000E9B7E1F67D1741F7C9B7FD1DE3920DFA60
:102720006DBFF2506254D2544259B259225A925A51
:10273000025BF24B624CD24C424DB24D2161828021
:1027400083C6E185411106C622C405476396E600AB
:10275000238F0184EFF01F8803C7F185854613742A
:10276000F70F6316D702A38F0184EFF09FC483C7CE
:102770008187898B89CF83C70184639E87003797C0
:1027800000408347F70793F7C70FA30FF706B24040
:1027900022444101828085450D450546EFD01FA6A4
:1027A0002244B24085450D4541016FD0BFB941116A
:1027B0003EC2B7A7004036C683D647023AC481CA94
:1027C0001397060141832380E1902392E702B246EA
:1027D000224792474101730020305D714EDE56DA88
:1027E000B7A90040856AA2C4A6C252DC5AD85ED6F8
:1027F00062D466D26AD06ECE86C6CAC02AC6130A12
:10280000F00F81440144938B4900938A7AE3378B1C
:102810001E00B78CFF40130D9022854D130C40060F
:1028200023A0090023905B010945EF0050681309BC
:102830000B483245EF00303831C98947630BF50446
:1028400023A099012390AB010945EF005066930442
:102850000B483245EF0030362A8949C983A4490123
:10286000631AB90963D80408B24713D7E401058B8A
:1028700005072381E70037070001658F11C715653C
:102880001305C5EEEF1040014A8A29A87D19E3120D
:1028900009FA5145EF009064094905041374F40FD7
:1028A000E31084F91565A6865286A285130545F0C6
:1028B000EF00907EB736004003C7564013770704F9
:1028C00065DF130740066313E4000949B640264458
:1028D0009644F259625AD25A425BB25B225C925CD5
:1028E000025DF24D4A85064961618280FD14B5F0B2
:1028F0000949ADB75145EF00705E4A8A79BF411171
:1029000022C426C206C637A70040856723200700D9
:10291000938737E037841E00AA842312F70013043C
:1029200004482685EF00302919CD85476318F50046
:10293000B7A70040DC4BC1832392F402B24022448B
:102940009244410182807D1469FC0945C5BF8357CB
:102950004502411122C426C206C6C20737A700405D
:102960001CC337841E0093079010AA842312F7001B
:10297000130404482685EF00102439C98547014413
:10298000631AF502B7A600409C46DCC8D84698CC2E
:102990009C4ADCCCD44A94D0F9829DCE1394070192
:1029A000B707FF007D8C4183598C8946050423813C
:1029B000D4002A0403D7E40180D4B24022443D8BE2
:1029C0008547B397E7002393F40292444101828044
:1029D0007D144DF00945F9BF139427008567F11761
:1029E0007D8C9357E7013D835D8C1D8B05040907A2
:1029F0002381A4003314E40075BF835745024111BD
:102A000022C426C24AC006C6C20737A700401CC35C
:102A10008567938777E337891E00AA842E84231263
:102A2000F700130909482685EF00F01815C9054776
:102A3000631CE50233348000060437A70040856735
:102A400000C3938767E037841E002312F700130446
:102A500004482685EF00301601E97D147DF821A099
:102A60007D19E31209FC0945B2402244924402490F
:102A70004101828083574502411122C426C24AC0C7
:102A800006C6C20737A700401CC38567938777E354
:102A9000B7841E002A842E892312F70093840448E9
:102AA0002285EF00501135C58547631EF504B7A791
:102AB000004023A627033707080023AA07020507BB
:102AC00098DB056723A00700130737E3B7841E00D0
:102AD0002392E700938404482285EF00D00D15CDA2
:102AE000B7871E0093870748B7A6004003D7460262
:102AF000137707041DC737A7004083574702C20753
:102B0000C1832312F702B240224492440249410198
:102B10008280FD14D1F40945FDB7FD14D5FC0945AB
:102B2000C1B7FD17E1F70945F9B75D7156DA5ED611
:102B3000B7AA0040856BA2C4A6C2CAC04EDE52DC52
:102B400062D486C65AD866D26AD06ECE814937140E
:102B5000004013898A01514C054A938B8BE03C5805
:102B6000C16637063E00D58F3CD83C581167D18FDF
:102B70003CD83C4893E777003CC83C50D98F3CD0C8
:102B80003C4C93E777003CCC3C5CD18F3CDC3C5C1C
:102B9000D58F3CDC3C5CD98F3CDC23008901636B26
:102BA0003A15A1472300F9008347090093F7C70F9F
:102BB0002300F9009307F051239CFA02FD5723925A
:102BC000FA02930770132394FA02B947238EFA008E
:102BD0001385418DEF0050007945EF0030301385AB
:102BE000418DEF00607F7945EF00502F8D4D930CA4
:102BF000A01A138D4A00378B1E0023A09A012310C0
:102C00007D0193070B481385418D3EC6EF00A07AE6
:102C1000B24763010512631245131385418DEFF02E
:102C2000DFBB631245131385418DEF00007D631CEC
:102C300045111385418DEFF09FCC63164511138527
:102C4000418DEFF0DFD0631045111545EF001029DD
:102C50001385418DEF00607E6317450F8545138511
:102C6000418DEFF09FD96310450F37A70040834790
:102C70008701B74503209385052493F7C70F93E792
:102C80001700230CF7001385418DEFF0BFDE2A8B70
:102C9000631B450B8D4763E5370DB7A7004013074E
:102CA000A070239CE7029384418D23860402B7A77A
:102CB000004023AA070237070004B7E700E023A07B
:102CC000E710945403C624001565CE851305C5F29C
:102CD000EF00903CB640264496440649F259625AA9
:102CE000D25AB25B225C925C025DF24D5A85425B25
:102CF0006161828099476385F9009D47639EF90071
:102D0000A1472300F9008347090093F7C70F230069
:102D1000F9009307F0114DB5930780022300F900E5
:102D20008347090093F7C70F2300F9008D47E3F3AA
:102D300037E9C5B7FD17E39807EC7945FD1DEF00AE
:102D4000F019E39C0DEA850993F9F90FA147E3987F
:102D5000F9E015651305C5F5EF009048094B9DBFD7
:102D6000B7A700401307A0302DBFB7E700E0B84376
:102D7000C146B4C3370600049386071890C2B8C38F
:102D8000B7A7004023AA07027D572392E70282805B
:102D9000B7E7F50593870710B3D7A702411106C619
:102DA00022C43747004085462307D780A9462A8496
:102DB000854511459507B3D7D702C207C1832316AE
:102DC000F780930770FC2301F7808D47A301F780FC
:102DD00093070004A300F780371700403C4793E7B0
:102DE00087003CC7512595452145BD2D0D45EF0078
:102DF000501795450545EF007018B7E700E0370715
:102E0000008023A0E710B7070020B24023AE870C54
:102E1000224441018280B73700401387C780930660
:102E2000003214C309472380E78011472380E780DD
:102E300003C72780136717002381E780B7E700E007
:102E40003707800023A0E710828041113AC63EC4B4
:102E50003737004083476780858B99CB85472303AD
:102E6000F78083D7E1878507C207C183239FF18657
:102E70003247A24741017300203003C701848547D0
:102E80006305F718797122D483D7418806D626D2F4
:102E90004AD04ECE95CF03D7218885451305F10042
:102EA00093071700C207C1832391F188B757032006
:102EB00093870784BA9783C70700A307F10083D7D6
:102EC0004188FD17C207C1832392F188EF00300EBD
:102ED00083C70188A1E383D741888DEF83C7118819
:102EE00095EB2391018885472380F188B75703200C
:102EF0009387078437870040232AF70A1145EFD0CC
:102F00008FB1854511450546EFD04FAF8545114539
:102F1000EFD04FC383C711886392070E83D76188B0
:102F2000C207C183239EF18683D7C187E1CB83D6B5
:102F3000C1879307F01F63F5D70083C7018899C73E
:102F400083D6E1879307803E63FAD70A83D78188C7
:102F500083D6C187B6979306004063DBF60083D61D
:102F6000818893070040958FC207C183239EF18615
:102F700083D6C1879307002063F4D700239EF18690
:102F800083D6C18783D7618837550320130505C4CD
:102F9000958FC207C1832393F18883D58188B74772
:102FA000032003D6C18793870744BE95EFD04FE037
:102FB00083D7C18703D78188BA97C207C183239477
:102FC000F18803D781889307F03F63F4E7002394E7
:102FD000018885471145A380F188EFD06FAE03D7F4
:102FE000C1878546054685451145EFD0CFA9854562
:102FF00013054008EFD00FB5239F0186B25022542D
:1030000092540259F2494561828082802395018859
:1030100023940188239301882392018823910188B6
:10302000A380018823800188239F0186239E018637
:1030300082805D7136D83AD686C696C49AC29EC042
:103040002ADE2EDC32DA3ED442D246D072CE76CCA4
:103050007ACA7EC802C402C6374700408347478009
:103060009946BD8B6382D70631476389E7081147CC
:103070006393E706374603209D4737450040130614
:1030800006441308F03F83D6A18893851600C20535
:10309000C1812395B18883458580B2962380B6008F
:1030A00083D6A1886374D80023950188FD1793F710
:1030B000F70FF1FB83D761889D07C207C183239374
:1030C000F188239F018601A8834557801565130564
:1030D000C5F7EF00607CB640A642164386437255A2
:1030E000E2555256C2563257A25712588258724E63
:1030F000E24E524FC24F6161730020302800C52557
:10310000374603201378F50F8147130606449308CA
:10311000F03F93F6F70F63E8060183D761881375D4
:10312000F50FAA9759BF83D6A18893851600C205CB
:10313000C1812395B1882C00BE9583C50500B29648
:103140002380B60083D6A18863F4D8002395018834
:103150008507C1B715654111130545F906C6EF008E
:10316000300883C7918793F7E70FA38CF186A38676
:103170000188EFF09FBF371700407C57B24093E7BC
:1031800007407CD7238701884101828015650111A2
:10319000130585FB06CE22CC26CA4AC84EC652C4A9
:1031A000EF001004371700403C571305400693E723
:1031B00007403CD785472387F1880544052385448C
:1031C000156A9149EFF07F9663099504A28513056E
:1031D000CAFDD9251305200305040923E31434FF90
:1031E000156513050500EF00A07F371700407C57D9
:1031F000F240624493E707407CD723870188A38687
:10320000018883C79187D244424993F7E70FA38C83
:10321000F186B249224A056182809387418D8C579D
:1032200023AAB186238D918683C791876244F24099
:1032300093E71700A38CF1864249B249224AA3863C
:103240009188D244156513D6B50013054502056172
:10325000A1A5371700407C57411106C693E70740E8
:103260007CD7954513050040092EB240238701887D
:10327000A3860188410182802386A188828083C63B
:10328000C18893F7F60F95CA238601880947638D95
:10329000E7000D47638FE70005476390E70283C7A8
:1032A000E18881CF6FF01FEB83C7E18899E76FF06A
:1032B000FFED83C7E188FDF7DDBF8280B7470F00D0
:1032C000938707243355F502930700051375F50F0F
:1032D0006309F50A63E1A702F9476306F506930758
:1032E000C0036303F508BD47630CF502B717004040
:1032F000238007008280930700066301F50A930785
:103300008007E315F5FEB71700401307700523800B
:10331000E700130780FA2380E7001307400481A029
:10332000B7170040130770052380E700130780FAE2
:103330002380E700130720042384E700130700F825
:103340002385E70065B7B717004013077005238092
:10335000E700130780FA2380E700130700042384A3
:10336000E700130720F8E9BFB717004013077005FF
:103370002380E700130780FA2380E7001307800407
:10338000F9BFB7170040130770052380E700130744
:1033900080FA2380E70013076004D1B7B717004015
:1033A000130770052380E700130780FA2380E700E6
:1033B000130750046DB737A7004083574702A18B0E
:1033C00091C7A1472312F702054582800345C50234
:1033D0003335A00006058280411122C406C6B7A776
:1033E000004023A007002A84239207002285E137AA
:1033F00075DDB240224441018280411122C406C6DB
:10340000B7A7004023A00700130720102A842392A7
:10341000E70022854D3775DD8547631CF500B7A7AA
:103420000040984758C0D84718C4984B58C4DC4B44
:103430001CC8B24022444101828083574502411199
:1034400022C406C6C20737A700401CC385679387FE
:1034500077E02A842312F7002285EFF0DFF56DDD97
:10346000B240224441018280A94763E4B7069567D0
:103470009387C7048A05BE959C418287B717004091
:10348000F84B1345F5FF698FF8CBB84B698FB8CB74
:10349000B843798DA8C38280B7170040F44F134713
:1034A000F5FFF98EF4CFF44BF98EF4CBB44BC98E03
:1034B00029A8B7170040F44F1347F5FFF98EF4CF52
:1034C000F44BC98EF4CBB44BF98EB4CBB443758FA7
:1034D000B8C38280B7170040F84F498FF8CFF44B3C
:1034E0001347F5FFD1B7B7170040F84F498FF8CF12
:1034F000F84B498FF8CBB84B1345F5FF41BFB717D1
:103500000040F84F498FF8CFB44F1347F5FFF98EBD
:10351000B4CFF44B21A8B7170040F84F498FF8CF2C
:10352000B84F498FB8CFF44B1347F5FF758FF8CBE1
:10353000B843498F71BFB7170040F44F1347F5FFE9
:10354000F98EF4CFB44FE1B7B7170040F44F1347EB
:10355000F5FFF98EF4CFB44FC98E5DBFB7170040A9
:10356000B44F1347F5FF758FB8CFF84B498FC1B7EC
:10357000B7170040B84F498FC5BFA94763E4B706E6
:103580009567938787078A05BE959C418287B71701
:103590000040F85B1345F5FF698FF8DBB85B698F76
:1035A000B8DBB853798DA8D38280B7170040F45F99
:1035B0001347F5FFF98EF4DFF45BF98EF4DBB45BAF
:1035C000C98E29A8B7170040F45F1347F5FFF98E9D
:1035D000F4DFF45BC98EF4DBB45BF98EB4DBB45377
:1035E000758FB8D38280B7170040F85F498FF8DF36
:1035F000F45B1347F5FFD1B7B7170040F85F498F69
:10360000F8DFF85B498FF8DBB85B1345F5FF41BF86
:10361000B7170040F85F498FF8DFB45F1347F5FF35
:10362000F98EB4DFF45B21A8B7170040F85F498F2B
:10363000F8DFB85F498FB8DFF45B1347F5FF758F8C
:10364000F8DBB853498F71BFB7170040F45F1347D9
:10365000F5FFF98EF4DFB45FE1B7B7170040F45F10
:103660001347F5FFF98EF4DFB45FC98E5DBFB7175E
:103670000040B45F1347F5FF758FB8DFF85B498FE3
:10368000C1B7B7170040B85F498FC5BFB7177A00F9
:10369000938707203355F5021375F50F2389A18809
:1036A0009307803E3305F5022398A1888280B7F7FF
:1036B00000E0D84B759BD8CB03C721893307A702FD
:1036C000D8C723A807001307101098C337F700E0E6
:1036D0005C4B898BF5DF232007008280B7F700E081
:1036E000D84B759BD8CB03D701893307A702D8C71E
:1036F00023A807001307101098C337F700E05C4BAE
:10370000898BF5DF2320070082808280411126C249
:10371000AE842685B28522C406C63284FD37814731
:1037200037370040A14663C88700B2402285224453
:103730009244410182800346B740E30ED6FE3386B1
:10374000F4000346060085072304C740E9BFB727F6
:103750000040C8C709472380E70051472380E7009E
:10376000828037470040834727801A0593F7F70385
:10377000C98F93F7F70F2301F780828019CDB747E0
:10378000004003C717804D8FA380E78003C70780E1
:10379000136787002380E780828037470040834794
:1037A000178093C5F5FFED8FA300F7808280AA955F
:1037B000C205C18137470040A146374600409317F4
:1037C0000501C1836393B70082800348B780E30B90
:1037D000D8FE8347050005052304F680CDB7814751
:1037E000374700408346A78089E61395070141814A
:1037F000828003468780B306F50085072380C600D4
:10380000D5B701A097D1FF1F9381410D170100206B
:103810001301417F172500001305459897C5FF1F29
:103820009385457E1386418363FAC5008322050094
:1038300023A0550011059105E3EAC5FE13854183D8
:10384000938541906377B500232005001105E36D52
:10385000B5FE17C501201305E57A9715032093855A
:10386000657E6377B500232005001105E36DB5FE85
:10387000930280087390023097C2FFFF9382C27850
:1038800093E212007390523097D2FFFF9382A2DB33
:1038900073901234730020305D7122D406D62A84CE
:1038A0002EDA32DC36DEBAC0BEC2C2C4C6C603A53A
:1038B000C18011C51C4D81E72AC6BD2B32450C4580
:1038C0005418228636CEEF003028B250225461615F
:1038D0008280011126CA06CE22CC4AC84EC652C4E6
:1038E000AA8419E11C4502901C4D2E89A5E7A92345
:1038F0009C4C8044B5C3971700009387E77E631004
:10390000F406C0407C50858B81EB8357C40093F74D
:10391000072099E3284C452D8357C400A18B99C3F8
:103920001C48C5E7A2852685492245C1FD547C5027
:10393000858B81EB8357C40093F7072099E3284CCC
:103940006125F24062444249B249224A2685D24466
:1039500005618280004545B72685F92969BF97171B
:103960000000938767766314F400804461BF971763
:10397000000093876773E317F4F8C04461B71CC471
:10398000050963C907021C401387170018C023806C
:10399000B7001C4483450900FD17F5F11CC463D929
:1039A00007022286A94526858920FD57E300F5F800
:1039B000A944B5BF184C63C4E700E39645FD2286D1
:1039C00026852520E31735FD95B7FD59294AD1B73E
:1039D0001C401387170018C029472380E700C9BF80
:1039E000AA8503A5C1806FF0DFEE011122CC26CAA3
:1039F0004AC806CE4EC6AA842E89328401C51C4D03
:103A000091E31D29971700009387076E6318F4024E
:103A1000C0401C4C1CC48357C400A18B99C31C48D4
:103A200095EFA2852685512015C97D59F240624443
:103A3000D244B2494A854249056182809717000005
:103A4000938787686314F4008044E1B797170000F8
:103A500093878765E31FF4FAC04465BF1C4808409C
:103A60009379F90F1379F90F1D8D5C486346F500C2
:103A7000A2852685A52455F91C440505FD171CC4FF
:103A80001C401387170018C0238037015C486389E6
:103A9000A7008357C400858BD1DBA947E318F9F849
:103AA000A2852685252C59D149B7411122C426C2A9
:103AB0004AC006C683A4C1802A892E8489C49C4C2E
:103AC00099E32685952E971700009387E761631485
:103AD000F402C0408317C40013F787002DEB13F7DF
:103AE000070115EB25472320E90093E70704231678
:103AF000F4007D5559A8971700009387E75C63147D
:103B0000F4008044C1BF971700009387E759E3137F
:103B1000F4FCC044C1B7918B8DC74C5889C9930739
:103B200044046384F5004A855523232A04028357FD
:103B3000C4002322040093F7B7FD2316F4001C48A9
:103B40001CC08357C40093E787002316F4001C4869
:103B500081EF8357C4001307002093F7072863857C
:103B6000E700A2854A85C1218317C40013F7170017
:103B70001DC35848232404003307E04018CC1848DC
:103B8000014501E713F707082DF3B24022449244A0
:103B900002494101828013F72700814611E354480E
:103BA00014C4F1BF8397C500011122CC26CA06CEEA
:103BB0004AC84EC613F78700AA842E8469E7D84105
:103BC0006345E000B8416358E008585449C7B183E1
:103BD00003A90400858B23A004000C50B9CB7048C6
:103BE0008357C400918B99C75C401D8E5C5899C364
:103BF0003C401D8E5C540C50814626858297FD57B3
:103C0000630DF5041C480567232204001CC083577C
:103C1000C400F98F91C368C84C5823A0240185CDF6
:103C2000930744046384F50026854D21232A04026A
:103C30001DA00146854626850297FD572A86E31179
:103C4000F5FA9C40D1DF75476385E70059476395D6
:103C5000E70623A024010145BDA098408317C400B6
:103C600001CFF5466305D700D9466319D7041C4830
:103C7000232204001CC04DB71848B183232204003E
:103C800018C0858B41BF83A90501E38609FC03A900
:103C900005008D8B23A0350133093941014791E39C
:103CA000D84918C4E35920FB1C540C50CA864E86D0
:103CB000268582976340A0028317C40093E7070418
:103CC0002316F4007D55F2406244D2444249B24981
:103CD00005618280AA993309A940E9B79C4941113D
:103CE00006C622C426C281EB8144B2402244268506
:103CF000924441018280AA842E8401C51C4D91E327
:103D0000252A971700009387273E631EF402C040C0
:103D10008317C400F1DB7850058B11E793F7072078
:103D200099E3284C4D242685A285EFF0BFE77C500F
:103D3000AA84858BDDFB8357C40093F70720D5F752
:103D4000284C59245DB7971700009387E737631411
:103D5000F400804475BF971700009387E734E31998
:103D6000F4FAC04475B7411122C406C62A8423164A
:103D7000B5002317C50023200500232205002324B6
:103D800005002322050623280500232A0500232CED
:103D90000500214681451305C505EFC0DF82971751
:103DA00000009387E7C35CD097170000938747C64E
:103DB0001CD497170000938787CA5CD4971700001C
:103DC000938747CDB24000D01CD822444101828065
:103DD000970500009385C5F049A2411126C29307BB
:103DE00080069384F5FFB384F4024AC02E8922C46E
:103DF00006C693854407C92E2A8401CD23200500D9
:103E000023222501310508C4138684068145EFC0AD
:103E10008FFBB240228522449244024941018280B4
:103E20001385C1894DA21385C18979AA1385018A99
:103E300059AA1385018A49AA411122C406C62A84B7
:103E4000EFF0DFFE1C4C91C72244B24041016FF0FD
:103E50005FFE970700009387E7F71CD42324040430
:103E6000232604042328040483A701836394870082
:103E700085471CCC2285152848C022853D2008C4D2
:103E80002285252048C4484001469145EFF0BFED0A
:103E900008440546A545EFF01FED48440946C945CD
:103EA000EFF07FEC85471CCC45B7411126C24AC0D4
:103EB00006C622C42A89EFF0BFF683A401839C4C76
:103EC00081E72685EFF05FF7938484048044DC402B
:103ED000FD1763D607009C40A5C78440C5BF0317E4
:103EE000C40021EFC17785075CC413058405232234
:103EF0000406C928EFF03FF32146232004002324C1
:103F000004002322040023280400232A0400232C75
:103F1000040081451305C405EFC0EFEA232A04021B
:103F2000232C04022324040423260404B240228503
:103F3000224492440249410182801304840649BF0D
:103F400091454A85EFF07FE988C02A8459F5EFF062
:103F50009FEDB1472320F900D1BF797122D44AD017
:103F60004ECE52CC5AC85EC606D626D256CA2A892A
:103F70002E8A130485048149054BFD5B0444832A82
:103F80004400FD1A63D00A0200406DF8B25022547A
:103F900092540259624AD24A424BB24B4E85F24980
:103FA0004561828083D7C400637BFB008397E40074
:103FB00063877701A6854A85029AB3E9A9009384AD
:103FC0008406C1B78280828082805971A2D42E84F7
:103FD0008395E500A6D2CAD086D6B284368963D34B
:103FE00005028357C40093F7070895EB13070040B9
:103FF000B65026542320F90098C00659965401451E
:10400000656182803000EF00302EE34C05FC3247C2
:10401000BD67F98F7977BA9793B71700C1BF81470A
:1040200013070004F1B783D7C500797122D406D6EF
:1040300026D24AD04ECE898B2E8491CF930774041A
:104040001CC01CC885475CC8B25022549254025907
:10405000F2494561828074003000AA84EFF0FFF6D7
:10406000A2492A892685CE85852201ED8317C400C1
:1040700013F7072071FBF19B93E727002316F40049
:1040800075BF970700009387E7D49CD48357C4007B
:1040900008C008C893E707082316F400B247232A8C
:1040A000340191CF8315E4002685EF00702601C905
:1040B0008357C400F19B93E717002316F40083573E
:1040C000C40033E527012316A400BDBFC5C183A7E3
:1040D000C5FF011122CC06CE1384C5FF63D30700B0
:1040E0003E942AC6EF0070291387818A1C4332450B
:1040F00089EB2322040000C36244F24005616F0093
:104100005028637DF4001040B306C4006396D700C6
:104110009443DC43B29614C05CC0F1BF3E87DC43DD
:1041200099C3E37DF4FE14433306D700631F860072
:104130001040B29614C33306D700E39FC7FA9043EA
:10414000DC43B29614C35CC345BF6375C400B1477A
:104150001CC15DB71040B306C4006396D7009443FA
:10416000DC43B29614C05CC040C379B78280411171
:104170004AC01389418A8327090022C426C206C681
:10418000AA842E8491E78145EF00F0022320A90044
:10419000A2852685EF0030027D59631A25017D54E2
:1041A000B240228522449244024941018280130494
:1041B00035007198E30685FEB305A4402685EF001F
:1041C000807FE31F25FDE1BF011126CA93843500DE
:1041D000F1984AC806CE22CC4EC6A104B1472A891E
:1041E00063F6F406B14463E5B4064A85EF00F018BF
:1041F0009389818A83A709003E8435E4A6854A8590
:10420000EFF0FFF6FD572A846317F50C03A40900AD
:10421000A287C5EB8329040081454A85A299612FB5
:104220006394A90A1C408D049D8CF198A104B147A8
:1042300063F3F400B144A6854A85EFF05FF3FD57C0
:104240006304F5081C40A6971CC03DA8E3DD04F8F4
:10425000B1472320F9000145F2406244D24442496B
:10426000B249056182801440858E63C906042D47DA
:10427000637ED70204C0330794006397870223A0AC
:10428000E9005C4014C35CC34A85EF00900F13053E
:10429000B4009307440061993307F540E30EF5FA43
:1042A0003A94898F1CC04DBFD8C3E1BF5840639575
:1042B000870023A0E900C9BFD8C3F9B7A28740404F
:1042C0002DBF3E84DC43B1B7B1472320F9004A85B6
:1042D000EF00300B49B704C145BF1C46FD171CC693
:1042E00063DA0700184E63C5E700A9476394F50039
:1042F0006FF0AFEF1C422E851387170018C2238082
:10430000B7008280011122CC26CA4AC84EC652C4C8
:1043100006CE2A89AE893284B304D6007D5A63144E
:104320009400014511A8834504004E864A85EFF0AC
:10433000DFFA0504E31545FFF2406244D2444249E6
:10434000B249224A05618280357122CD26CB4AC905
:104350004EC706CF52C556C35AC1DEDEE2DCE6DAEE
:10436000AA892E843289B68409C51C4D99E3EFF0E1
:10437000BFAC97170000938727D7631BF40403A4EF
:1043800049007C50858B89EB8357C40093F7072045
:1043900081E7284CEFF03FC38357C400A18B99C33A
:1043A0001C48B5E3A2854E85EFF02FF029CD7C5057
:1043B000858BA9C37D55FA406A44DA444A49BA4913
:1043C0002A4A9A4A0A4BF65B665CD65C0D6182808B
:1043D00097170000938747CF6315F40003A4890063
:1043E0004DB797170000938727CCE31CF4F803A47C
:1043F000C90041BF8357C40093F70720C5FF284C6D
:10440000EFF09FBC45BF93070002A304F10293079E
:10441000000302D22305F10226C6930B5002971A1D
:104420000000938A6ACE054C294BCA8483C70400D6
:1044300099C3639C7709B38C2441638E2401E6867B
:104440004A86A2854E85EFF0FFEBFD57630EF51807
:104450009257E6973ED283C7040063870718FD573B
:104460001389140002C802CE3ECA02CCA30901047B
:1044700082D48345090015465685DD25C24793043D
:10448000190031E513F7070109C713070002A30953
:10449000E10413F7870009C71307B002A309E10479
:1044A000834609001307A002638BE602F247CA8421
:1044B0008146254603C7040093851400130707FDB2
:1044C0006375E6068DC63ECE1DA0850485B733050F
:1044D00055413315AC00C98F3EC8268959BF3247B4
:1044E00093064700184336C6634A07023ACE03C70D
:1044F00004009307E002631EF70403C71400930748
:10450000A002631AF702B2478904138747009C434D
:104510003AC663D30700FD573ECA25A83307E040DB
:1045200093E727003ACE3EC8D9B7B3876703AE8476
:104530008546BA9741B7850402CA81468147254618
:1045400003C7040093851400130707FD6374E60690
:10455000E1F683C504000D4617150000130545BBA1
:10456000012511CD97170000938787BA1D8DC2478B
:10457000130700043317A700D98F85043EC883C5ED
:1045800004001946171500001305C5B81389140057
:104590002304B102F12325CD9307000095E742479C
:1045A000B2471377071009CF91073EC69257D297AB
:1045B0003ED2A5BDB3876703AE848546BA9749B797
:1045C0009D07E19BA107D5B7780097060000938669
:1045D000A6D322860C084E8597000000E700000055
:1045E000FD572A8AE314F5FC7C50858B89EB8357B1
:1045F000C40093F7072081E7284CEFF0FF9C835716
:10460000C40093F70704E39707DA12556DB37800F7
:1046100097060000938646CF22860C084E85112A05
:10462000C1B7797156CA9C49BA8A984522D44AD0F2
:104630004ECE52CC06D626D25AC85EC6AA892E8441
:104640003289368A63D3E700BA872320F90003470B
:10465000340401C785072320F9001C4093F70702A3
:1046600091C78327090089072320F900044099880E
:1046700091E8130B9401FD5B5C4403270900998FBB
:1046800063CCF40483473404B336F0001C4093F742
:104690000702A5EB13063404D2854E85829AFD5796
:1046A0006303F5041C4011478144998B6399E7002B
:1046B0004444832709009D8C63D3040081441C4437
:1046C00018486354F700998FBE94014969047D5BD3
:1046D00063982405014509A885465A86D2854E85EA
:1046E000829A631E75017D55B2502254925402592C
:1046F000F249624AD24A424BB24B456182808504FC
:10470000A5BF3307D40013060003A301C704034762
:10471000540493871600A2978906A381E7049DBFDE
:1047200085462286D2854E85829AE30E65FB050971
:1047300045B7797122D44AD04ECE52CC06D626D275
:1047400056CA5AC803C88501930780072A892E8450
:10475000B289368A63E207039307200693863504FD
:1047600063E107036301081E930780051716000025
:104770001306C69A630BF81493042404230104055A
:1047800015A89307D8F993F7F70F5546E366F6FE99
:10479000171600001306069B8A07B2979C43B29730
:1047A00082871C4393842504938647009C4314C34B
:1047B0002381F50485474DAA90411C4313750608D3
:1047C0009385470039C19C430CC3584063D30714F9
:1047D0009305D002A301B40418C463500704B307BF
:1047E000F04017160000130666932948B68433F785
:1047F0000703FD143297034707002380E4003E8738
:10480000B3D70703E37507FF8DA09C431375060418
:104810000CC345DDC207C1874DBF6D9A10C0C1B73B
:1048200090411C43137506089385470001C50CC3CE
:104830009C4339A0137606040CC37DDA83D70700A6
:104840001307F006171600001306468D6311E80CD7
:104850002148A3010404584018C4E34907F80C4058
:10486000ED990CC0C1F7B68451F3A147631EF8005F
:104870001C40858B91CB58401C4863C7E7009307C9
:104880000003A38FF4FEFD14858E14C85287CE86D4
:104890007000A2854A85EFF0DFD8FD5A631A550DE6
:1048A0007D55B250225492540259F249624AD24A7A
:1048B000424B456182809C4193E707029CC11308EB
:1048C0008007171600001306A686A30204050C40F5
:1048D0001C4313F80508138547006305080008C347
:1048E0009C4301A813F8050408C3E30B08FE83D713
:1048F000070013F7150001C793E505020CC099C323
:10490000414881BF18401377F7FD18C0D5BF29482B
:1049100089B7171600001306668029482DBF9041FD
:104920001C43CC491378060813854700630608002A
:1049300008C39C438CC301A808C3137606049C4398
:1049400075DA2390B70023280400B68481B71C438E
:10495000D04181459386470014C3844326850924AA
:1049600019C1058D48C05C401CC8A301040439BFAF
:1049700014482686CE854A85029AE30355F31C40E7
:10498000898B8DE7B2474844E35DF5F03E8511BF62
:1049900085465686CE854A85029AE30365F18504ED
:1049A0005C443247998FE3C5F4FEE9BF8144930A22
:1049B00094017D5BF5B7411122C42A842E8523A67C
:1049C000018A06C63524FD576316F50083A7C18A00
:1049D00091C31CC0B240224441018280411122C4D3
:1049E0002E848395E50006C64D22634905007C4868
:1049F000AA977CC8B2402244410182808357C400F8
:104A00007D777D17F98F2316F400EDB783D7C500A6
:104A1000011122CC26CA4AC84EC606CE93F707100B
:104A2000AA842E843289B68991C78395E500894688
:104A3000014611228357C4007D777D17F98F8315B6
:104A4000E4002316F4006244F240CE864A86B2495E
:104A500042492685D24405613DA8411122C42E84D5
:104A60008395E50006C6C1287D578357C400631BA4
:104A7000E5007D777D17F98F2316F400B2402244BC
:104A8000410182800567D98F2316F40068C8FDB7FD
:104A90008395E5003DA0411122C42A842E85B2856C
:104AA000368623A6018A06C6EFE05FC6FD57631669
:104AB000F50083A7C18A91C31CC0B24022444101C2
:104AC0008280411122C42A842E8523A6018A06C62B
:104AD000D520FD576316F50083A7C18A91C31CC07A
:104AE000B240224441018280411122C42A842E8591
:104AF000B28523A6018A06C6E120FD576316F5009C
:104B000083A7C18A91C31CC0B24022444101828064
:104B1000411122C42A842E8523A6018A06C67D203F
:104B2000FD576316F50083A7C18A91C31CC0B2402C
:104B3000224441018280411122C42A842E85B285FB
:104B4000368623A6018A06C64128FD576316F5005E
:104B500083A7C18A91C31CC0B24022444101828014
:104B600093F5F50F2A966314C500014582808347AB
:104B70000500E38DB7FE0505FDB7138581896FF04C
:104B80008FC4138581896FF02FC4411122C42A84F8
:104B90002E85B285368623A6018A06C6A120FD573A
:104BA0006316F50083A7C18A91C31CC0B24022449A
:104BB000410182809307800523A6F18A7D5582807A
:104BC0009307800523A6F18A7D558280930780058F
:104BD00023A6F18A014582809307800523A6F18AE6
:104BE0007D5582809307800523A6F18A7D558280BA
:104BF0001387018B1C4389C73E9508C33E8582807D
:104C0000938741903E9508C33E8582800A4348358C
:104C100036392053442F55415254205553423320A6
:104C200062726964676520282564204D487A290AE4
:104C30000000000055534220696E697420646F6E55
:104C4000650000001E0B00002C0B0000AE090000E8
:104C500092090000AE090000BA0A0000BA0900007B
:104C6000AE090000AE090000C40A0000AE09000051
:104C7000920900004344433A206C696E6520636FDB
:104C800064696E6720256C6420626175640A0000A7
:104C9000555342332E302064697361626C650000A5
:104CA000555342322E302066616C6C6261636B201A
:104CB000284D5343206F6E6C79290000050F1600B4
:104CC00002071002060000000A1003000E00010A8D
:104CD000FF07000012034D0053004600540031004E
:104CE00030003000010000002A035300440020007F
:104CF000550041005200540020004200720069003B
:104D00006400670065002000550053004200330036
:104D100020000000090280000301008064090400F3
:104D20000002080650000705820200040006300059
:104D30000000000705030200040006300000000028
:104D4000080B010202020100090401000102020134
:104D500000052400100105240100020424020205BC
:104D60002406010207058103000408063000000044
:104D70000409040200020A0000000705840200047E
:104D800000063000000000070504020004000630A1
:104D90000000000012010003EF020109861A2CFE38
:104DA0000100010203010000B4150000BA14000064
:104DB0005C130000341500005C1300006414000054
:104DC000421300005C1300006E1400007A1400000F
:104DD000D2130000D2130000050F160002071002C4
:104DE000020000000A1003000E00010AFF07000085
:104DF000260357004300480020005500530042009E
:104E000032002E00300020004400450056004900CA
:104E1000430045002000000009022000010100C0FD
:104E20003209040000020806500007058202000251
:104E3000000705030200020012010002000000400A
:104E4000861A2CFE0011010200010000641B000004
:104E5000581B0000581B0000581B0000581B000086
:104E6000581B0000581B0000581B0000681C000065
:104E7000841B0000581B0000581B0000841B00000E
:104E8000581B0000581B0000581B0000581B000056
:104E90008E1B0000581B0000F41B0000581B000074
:104EA000581B00005E1C0000581B00005E1C000028
:104EB000581B0000581B0000581B00005E1C00001F
:104EC000841B0000000E0000000000080000003FEE
:104ED000000002000B0000080000003F000002007C
:104EE00000000008000000400200020020737570FE
:104EF000706F7274206C6F7720766F6C2E2E0A2084
:104F0000000000000D0A4040402041343120693D3E
:104F10002564207374613D256420727370333D25D0
:104F200030386C78204040400D0A000053443A204D
:104F3000696E6974204F4B2028696F206D6F64651E
:104F4000202564292C20747970652025642C202567
:104F50006C6420736563746F72730A0053443A2063
:104F6000696E6974206661696C656420696E206190
:104F70006C6C20494F206D6F6465730075617274AD
:104F800032206C696E65206572726F723A25780AFC
:104F9000000000004F574E3A2072656C65617369DE
:104FA0006E67205344206361726420285042313080
:104FB000206C6F77290000004F574E3A20636C61D8
:104FC000696D696E672053442063617264202850C4
:104FD0004231302068696768290000004F574E3A17
:104FE000205344206D6F756E7420617474656D700C
:104FF00074202564206661696C65640A0000000005
:105000004F574E3A20534420696E69742066616997
:105010006C65642C2072656C656173696E672050E5
:10502000423130004F574E3A2063617264207265FE
:105030006164792C20256C6420736563746F7273CE
:105040002028256C64204D42290A00007C34000091
:1050500098340000B2340000D4340000E63400007C
:10506000FE340000163500003635000048350000DB
:105070005C350000703500008E350000AA35000058
:10508000C4350000E6350000F83500001036000099
:1050900028360000483600005A3600006E36000000
:1050A0008236000000000000000000000000000048
:1050B00000000000000000000000000000000000F0
:1050C00000000000000000000000000000000000E0
:1050D00000000000000000000000000000000000D0
:1050E00000000000000000000000000000000000C0
:1050F00000000000000000000000000000000000B0
:1051000000000000232D302B20000000686C4C00B4
:1051100065666745464700003031323334353637EF
:1051200038394142434445460000000030313233B3
:1051300034353637383961626364656600000000D3
:1051400062F6FFFF78F6FFFF38F6FFFF38F6FFFF45
:1051500038F6FFFF38F6FFFF78F6FFFF38F6FFFF5F
:1051600038F6FFFF38F6FFFF38F6FFFFDEF7FFFFE8
:10517000E0F6FFFF76F7FFFF38F6FFFF38F6FFFF98
:105180000EF8FFFF38F6FFFFE0F6FFFF38F6FFFFEF
:0851900038F6FFFF7EF7FFFF78
:105198001603300031003200330034003500360089
:1051A8003700380039000000008002021F000000AC
:1051B800454D4D4320202020555342332E3020208A
:1051C800202020204469736B205743483011000089
:1051D8003211000052110000541100007611000035
:1051E8007811000094110000961100009811000039
:1051F8009A110000041200003A1200003C1200004C
:105208003E12000000000000E4500000C4500000FE
:10521800A450000000000000000000000000000092
:105228000000000000000000000000000000000076
:105238000000000000000000000000000000000066
:105248000000000000000000000000000000000056
:105258000000000000000000000000000000000046
:1052680000000000000000000002000200C201006F
:10527800000008007400002008035700430048009D
:105288000403090408035700430048000403090401
:0C5298000000003F000002007400002035
:00000001FF
